:020000040800F2
:10000000780500209D0100082327000869240008C6
:1000100021270008FD020008132F0008000000003F
:10002000000000000000000000000000D9290008C6
:100030003B0300080000000025270008DB2900081A
:10004000B7010008B7010008B7010008B7010008B0
:10005000B7010008B7010008B7010008B7010008A0
:10006000B7010008B7010008B7010008B701000890
:10007000B7010008B7010008B7010008B701000880
:10008000B7010008B7010008B7010008B701000870
:10009000B7010008B7010008B7010008B701000860
:1000A000B7010008B7010008B7010008B701000850
:1000B000B7010008B7010008B7010008B701000840
:1000C000B7010008B7010008B7010008B701000830
:1000D000B7010008B7010008B7010008B701000820
:1000E000B7010008B7010008B7010008B701000810
:1000F000B7010008B7010008B7010008B701000800
:10010000B7010008B7010008B7010008B7010008EF
:10011000B7010008B7010008B12A0008B7010008BC
:10012000B7010008B701000801030008B701000883
:10013000B7010008B7010008B7010008B7010008BF
:10014000B7010008B7010008B7010008B7010008AF
:10015000B7010008B7010008B7010008B70100089F
:10016000B7010008B7010008B7010008B70100088F
:10017000B7010008B7010008B7010008000000003F
:10018000B7010008B7010008DFF80CD000F02AF82A
:1001900000480047552F0008780500200648804792
:1001A00006480047FEE7FEE7FEE7FEE7FEE7FEE75C
:1001B000FEE7FEE7FEE7FEE76D2A0008890100087A
:1001C000D2B201E000F8012B491EFBD27047002299
:1001D000F6E710B513460A4604461946FFF7F0FF46
:1001E000204610BD064C074D06E0E06840F00103D4
:1001F00094E8070098471034AC42F6D3FFF7C8FFE5
:10020000103000083030000810B5846A616D11F0BC
:10021000500F06D0616DC90625D5204600F009FBB8
:1002200010BD606D40F400706065206801680907CA
:1002300016D502F02CF978B12068C0688004002837
:100240000ADB606D20F480706065606DC00403D4CB
:10025000606D40F001006065204600F0E8FA10BDD6
:10026000C0688007EBE7E16C496BBDE810400847C8
:1002700010B5806A416D41F040014165816D41F0EA
:100280000401816500F0D5FA10BD10B5806A00F058
:10029000CFFA10BD70B504460068816811F0010FF7
:1002A00028D18168144A114215D18168D54329406B
:1002B000491C816000F092FE064616E0816811F04C
:1002C000010F03D181682940491C816000F086FE3E
:1002D000801B022809D9606D40F010006065A06D98
:1002E00040F00100A065012070BD20680168C9438D
:1002F000C907E3D1002070BD3F000080FEE7000089
:10030000014800F03DBC00002C01002030B590F801
:10031000444004F01C050124AC40056C6C6004688A
:1003200063608368102B036803D099600068C26023
:1003300030BD9A600068C16030BD704770470000F2
:100340002DE9F047044690F850009AB00D464FF062
:100350000008012813D0012084F85000304E206896
:100360004FF00009B0420ED12E4F0097384602F0F0
:100370008AF88246206802F086F860B10EE002201A
:100380001AB0BDE8F087616D41F02001616584F825
:1003900050900120F4E7BAF1000F09D0606D40F0F1
:1003A000200060654FF0010884F850904046E7E770
:1003B0001D4829681D4A0029816840F61F7321F4F1
:1003C00060411BD094F830C041EA4C31D5F804C0EC
:1003D00041EA0C018160B168BE6801F0010106F0DC
:1003E00001069268314302F001021143DCD1AA6890
:1003F0002968114382689A4311430EE08160B16815
:10040000BD6801F0010105F001059268294302F081
:1004100001021143C8D1816899438160C4E700009B
:100420000000045000010450000304500002045076
:100430002DE9F84F00270446009790F85000DFF8A8
:10044000B8930D46B846012811D0012684F85060B3
:10045000206802F014F860B1606D40F02000606523
:100460005FF0010784F85080384600F0DDB90220C3
:10047000FBE768680C23052812D8022807D0032858
:1004800007D0042807D0052807D0062007E06B60B6
:1004900006E0122003E0182001E04FF4807068604D
:1004A000D5E90021206803EA91131844036B01F099
:1004B0001F014FF01F0C0CFA01FCC2F3846223EA07
:1004C0000C038A4013430363206801F0D8FF82467F
:1004D000206801F0D0FF5AEA00001DD1AA682968FF
:1004E000206801F0DCFF20686969C268C2F3C102BC
:1004F000520091402A69042A0FD000EB82002B6839
:10050000026EDFF8F8C203F0F84302EA0C020B4374
:100510001A4342F00041016672E0002101F0A5FF9C
:10052000400320684FF0000172D001F09EFF90FA66
:10053000A0F0B0FA80F1286842036ED090FAA0F0E3
:10054000B0FA80F0814204D100221146206801F007
:10055000B5FF0121206801F088FF400320684FF0BB
:1005600001015DD001F081FF90FAA0F0B0FA80F1B6
:100570002868420359D090FAA0F0B0FA80F0814286
:1005800004D100220121206801F098FF0221206897
:1005900001F06BFF400320684FF0020148D001F0EA
:1005A00064FF90FAA0F0B0FA80F12868420344D0CA
:1005B00090FAA0F0B0FA80F0814204D1002202212A
:1005C000206801F07BFF0321206801F04EFF40030B
:1005D00020684FF0030133D001F047FF90FAA0F0FC
:1005E000B0FA80F1286842032FD090FAA0F0B0FA58
:1005F00080F0814204D100220321206801F05EFFD7
:100600002068816811F0010F22D0ACE000E004E026
:1006100001F02BFFC0F384618DE7C0F3846091E7A4
:1006200001F023FFC0F38461A2E7C0F38460A6E772
:1006300001F01BFFC0F38461B7E7C0F38460BBE740
:1006400001F013FFC0F38461CCE7C0F38460D0E70E
:100650002A7B296850F8B03FC1F3120C23EA0C033F
:1006600002F0180C664A22FA0CF20A4013430360A7
:10067000E968494577D1286841031CD090FAA0F178
:10068000B1FA81F1491C01F01F0109294FEA4031FB
:1006900032D8002912D000BF90FAA0F1B1FA81F14E
:1006A00001F1010101F01F0106FA01F609D100BFB5
:1006B000C0F3846109E0C0F38461E3E7C0F38461BF
:1006C000EEE790FAA0F1B1FA81F101F1010101F038
:1006D0001F0146EA816102D1C0F3846003E090FA11
:1006E000A0F0B0FA80F000F1010000F01F0000EB74
:1006F000400041EA005132E000290ED090FAA0F10A
:10070000B1FA81F101F1010101F01F0106FA01F6D0
:1007100006D100BFC0F3846106E0C0F38461F1E755
:1007200090FAA0F1B1FA81F101F1010101F01F018C
:1007300046EA816102D1C0F3846003E090FAA0F040
:10074000B0FA80F000F1010000F01F002D4A00EB2C
:10075000400002EB005041EA000141F00071AA683C
:10076000206801F09CFE28482A6802423FF47AAED5
:1007700026488168264E274B274D01F0E071B24292
:100780001CD10E021AD422689A4202D0AA427FF4E7
:1007900069AE826841F4000122F0E0720A4382608F
:1007A0001E481F490068B0FBF1F000EB40008000DC
:1007B00000E0401E00900028FBD153E6194EB242E3
:1007C00009D1CE0107D422689A4201D0AA42F4D1BD
:1007D00041F080710AE06FF00045EA42EDD14A0233
:1007E000EBD422689A42E8D141F48001826822F079
:1007F000E0720A43826035E600007F4000F0FF03AC
:10080000FFFF0700000020FE0000088000030450E6
:10081000000052C700000450000204500C000020E9
:10082000400D0300000084CB18BCBDE8E08F70478A
:1008300070477047F8B54FF0000504002E4600954C
:1008400002D0606D10B107E00120F8BD204600F035
:10085000D5F8A66584F8506020688168C1F34071BE
:1008600019B181685B4A1140816020688168C1F3D9
:10087000007179B98168584A114041F08051816016
:10088000564857490068B0FBF1F000E0401E009068
:100890000028FBD120688168C1F3007141B9616D06
:1008A00041F010016165A16D41F00101A1650125D3
:1008B00001F0E5FD616DC90600D430B1606D40F016
:1008C0001000606501252846F8BD606D20F4807039
:1008D00040F0020060652068806810F0010F15D1BB
:1008E00040488068404900F00100896801F001013A
:1008F00008433E49896801F00101084306D13C499B
:1009000060688A6822F47C1202438A60E168606B46
:10091000627E0843A16841EA4231084394F82010FE
:1009200040EA0140012904D1A18C324A02EB414145
:100930000843A16A29B101F47071E26A014342EAF5
:1009400001002268D1682C4B19400143D160206816
:1009500001F095FD0646206801F08DFD304315D16C
:10096000207E94F830102268800340EA4101D0686C
:1009700044F2020398430843D06094F838000128F9
:100980000CD02068016921F0010101612069012872
:100990002068016B21F00F0111D013E0D4E90F01A1
:1009A0000843D4E911121143084321680A6940F24F
:1009B000FC739A43104340F001000861E6E7E269E6
:1009C000521E11430163606D20F0020040F00100EF
:1009D000606578E7C0FFFF5FC0FFFF7F0C0000206D
:1009E000400D0300000004500001045000020450B8
:1009F000000304500000FEFF07C0F0FF70B586B092
:100A0000064614216846FFF7E2FB1C49306888421D
:100A100031D11B49C86C40F40050C864C86C00F464
:100A200000500590C86C40F00400C864C86C0025F4
:100A300000F0040005900F2000900B20CDE9010587
:100A40006946104800F092F9104C0F48C4E90005BF
:100A50008020A560C4E90350800060618000A0612F
:100A60002020C4E90705204600F0E8F808B1FFF7A8
:100A700065FCF464A66206B070BD0000000004507E
:100A80000010024000080048300402402C01002001
:100A90002DE9F0410446334817468846806800F047
:100AA0001F05206801F0EBFC002859D194F8500094
:100AB000012855D0012084F85000002625B1052DCD
:100AC00002D0092D00D003E02046FFF7E3FB18B168
:100AD00084F85060BDE8F081606D40F601618843A4
:100AE00040F48070606520492068884201D11F4928
:100AF00000E00146814200D01DB9606D20F48010F5
:100B00006065606DC00404D5A06D20F00600A0658E
:100B100000E0A665E16C1648C862E16C1548086300
:100B2000E16C1548486321681C20086084F8506017
:100B30002068416841F0100141602068C16841F0BF
:100B40000101C16021683B4642464031E06C00F043
:100B5000D5F821688A68094B1A40121D8A60B9E7E6
:100B60000220B7E7000304500001045000000450C5
:100B7000090200088B02000871020008C0FFFF7F15
:100B8000F0B4016C0C6801680D6890F8442002F024
:100B90001C06042202FA06F3234211D06B070FD57C
:100BA0000B689B0603D40B6823F004030B6090F8DA
:100BB000441001F01C018A40016C4A60016B1DE089
:100BC000022303FA06F727424FF0000C4FF0010210
:100BD00018D0AF0716D50C68A40605D40C6824F00D
:100BE0000A040C6080F8252090F8441001F01C01E4
:100BF0008B40016C4B6080F824C0C16A00291AD078
:100C0000F0BC08470823B340234214D02B0712D569
:100C10000B6823F00E030B6090F84410036C01F096
:100C20001C0102FA01F15960C26380F8252080F8A6
:100C300024C0416BE2E7F0BC7047000070B568B1BA
:100C40002B4C036814212B4AA34209D22A4C1C4482
:100C5000B4FBF1F18900C0E910210BE0012070BD67
:100C6000234C64421C44B4FBF1F1890041642049E7
:100C700008390164022180F825101C6847F6F071DC
:100C80008C43D0E902152943D0E904563543294362
:100C900085692943C5692943056A294321431960A8
:100CA0008168B1F5804F19D0036C0F21934202D1B6
:100CB00052F8A83F02E00E4AA032136890F8444070
:100CC00004F01C04A1408B43136090F84430416849
:100CD00003F01C0399401368194311600021C1639C
:100CE000012280F8252080F82410084670BD0000FD
:100CF0000804024000000240F8FFFDBF70B5044642
:100D000090F82400002501280CD0012084F824004C
:100D100094F825600020012E06D084F824000225D6
:100D2000284670BD022070BD022684F82560E0636D
:100D30002068066826F0010606602046FFF7E6FAFE
:100D4000206B00282068016802D041F00E0106E007
:100D500021F0040101602068016841F00A0101608E
:100D60002068016841F001010160D9E72DE9F04FE9
:100D7000DFF83492002309F1040A012403250AF163
:100D8000040B87B00F270BF1040E04E104FA03F6FD
:100D900032407CD0D1F804C0BCF1010F08D0BCF1C6
:100DA000020F05D0BCF1110F02D0BCF1120F29D1F6
:100DB000D0F808C0CDF800C04FEA430C05FA0CF893
:100DC000CDF80CC0DDF800C02CEA080CCDF800C04E
:100DD000D1F80C80DDF80CC008FA0CF8DDF800C082
:100DE00048EA0C08C0F80880D0F8048091F804C0E4
:100DF00028EA0608CCF3001C0CFA03FC4CEA080CA9
:100E0000C0F804C0D1F804806FEA080C5FEA8C7C5B
:100E100009D1D0F82CC02CEA060CC8F3C0069E40BD
:100E200046EA0C06C662D0F80CC04FEA430805FA41
:100E300008F62CEA060CCDF8148002968E6806FAA5
:100E400008F646EA0C06C6604E68022E01D0122E45
:100E500015D1DE0800EB86060396366A4FEA437C1E
:100E60004FEADC6807FA08FC26EA0C06D1F810C045
:100E70000CFA08FC4CEA060C039EC6F820C0066873
:100E8000DDF808C026EA0C0691F804C000E081E015
:100E9000DDF814800CF0030C0CFA08FC4CEA060C8C
:100EA000C0F800C04E68F60074D5404ED6F860C059
:100EB0004CF0010CC6F860C0366E23F0030C06F04F
:100EC000010600963A4E66440296D6F808C09E0780
:100ED0004FEA167807FA08F62CEA060CB0F1904FA4
:100EE00004D0344EB04203D101261BE0002619E0A5
:100EF000314EB04201D1022614E0304EB04201D151
:100F000003260FE02E4EB04201D104260AE02D4EFA
:100F1000B04201D1052605E02B4EB04201D1062694
:100F200000E0072606FA08F646EA0C06DDF808C0D7
:100F3000CCF80860D9F80060CC46D1F8048096431C
:100F40005FEAC83800D51643CCF80060DAF80060D4
:100F5000D446D1F8048096435FEA883800D516431A
:100F6000CCF80060DBF80060DC46D1F804809643E2
:100F70005FEAC82800D51643CCF80060DEF80060B0
:100F8000F446D1F8048096435FEA882800D51643DA
:100F9000CCF800605B1C0A6832FA03F67FF4F6AE08
:100FA00007B000F013B80000000401400010024038
:100FB000000001400004004800080048000C004800
:100FC00000100048001400480018004830BCBDE87C
:100FD000C08F0AB1816170478162704701488068A3
:100FE0007047000000000020024881680278114428
:100FF000816070470000002010B50024032000F03D
:1010000071F8002000F008F808B1012401E000F0B8
:1010100025F8204610BD000070B50E4E0546002490
:10102000307898B14FF47A71B1FBF0F00A49096851
:10103000B1FBF0F000F0F2FD40B9102D06D2002215
:101040002946501E00F02EF8756000E0012420466D
:1010500070BD0000000000200C000020094808B509
:10106000016E41F001010166016E01F00101009184
:10107000816D41F080518165806D00F0805000905D
:1010800008BD000000100240002809DB00F01F022C
:10109000012191404009800000F1E020C0F80011DA
:1010A00070470000F0B40E4B1B680C46C3F30223DC
:1010B000C3F10705042D00D90425191D072901D204
:1010C000002300E0DB1E012606FA05F1491E21403F
:1010D00099409E40761E16403143F0BC01F01ABF85
:1010E0000CED00E0064900F0070208684FF6FF0328
:1010F000184040EA0220034A10430860704700008D
:101100000CED00E00000FA051649B0F5007F086814
:10111000C0F3412009D0022805D0086820F4C0603F
:1011200040F480600860002070470128FBD0086808
:1011300020F4C06040F4007008600B483222006860
:1011400050430A4AB0FBF2F0401C00E0401E4A69DE
:10115000520501D50028F9D148694005E3D503209F
:1011600070470000007000400C00002040420F005B
:101170000248006800F4C060704700000070004042
:101180002DE9F84F044600270088E54D3E4601054D
:1011900004F1200B1DD5606E78B1B0F5800F11D031
:1011A000B0F5000F04D0B0F5400F22D001270FE0BA
:1011B000E86840F48030E8601BE00021201D01F069
:1011C000B3FA03E00021584601F044FB070010D0B9
:1011D0003E462088C00426D5A06EC0B1B0F1807F05
:1011E0001AD0B0F1007F0DD0B0F1407F19D00127A7
:1011F00018E0D5F88800616E20F440000843C5F877
:101200008800E6E7E86840F48030E86009E0002103
:10121000201D01F089FA03E00021584601F01AFB75
:101220000746F7B13E46206880033AD5A86D4FF0D7
:101230000008C00009D4A86D40F08050A865A86DD2
:101240004FF0010800F080500090DFF8D8A2DAF8E3
:10125000001041F48071CAF80010FFF7BFFE81460C
:1012600010E0D5F88800A16E20F040700843C5F862
:101270008800D8E7FFF7B2FEA0EB0900022801D9E9
:10128000032705E0DAF80000C005F3D5002F7CD075
:101290004FEA0706B8F1000F03D0A86D20F0805088
:1012A000A8652078C00707D0D5F88800A16B20F08A
:1012B00003000843C5F888002078800707D5D5F8D3
:1012C0008800E16B20F00C000843C5F88800207806
:1012D000400707D5D5F88800216C20F0300008437E
:1012E000C5F888002078000707D5D5F88800616C1C
:1012F00020F0C0000843C5F888002078C00607D554
:10130000D5F88800A16C20F440700843C5F8880027
:101310002078800607D5D5F88800E16C20F440607D
:101320000843C5F888002088800507D5D5F88800CF
:10133000E16D20F440200843C5F88800208840056E
:1013400007D5D5F88800216E20F440100843C5F871
:1013500088002078400607D5D5F88800216D20F454
:1013600040500843C5F888002078000607D5D5F816
:101370008800616D20F440400843C5F8880020884B
:10138000C00509D5D5F8880000E01CE0A16D20F467
:1013900040300843C5F8880020884FF0006780047B
:1013A0004FF080684FD5D5F88800E16E20F040609E
:1013B0000843C5F88800E06EB8423CD1E86840F4C4
:1013C0008010E8603FE0D5F8900010F4407015D030
:1013D000D4F88410814211D0D5F89000D5F890103F
:1013E00020F4407041F48031C5F89010D5F8901089
:1013F00021F48031C5F89010C5F89000C00710D0D6
:10140000FFF7ECFD074641F2883906E0FFF7E6FDFD
:10141000C11B494501D903263CE7D5F89000800758
:10142000F4D5D5F89000D4F8841020F44070084327
:10143000C5F890002EE7404505D10121201D01F09F
:1014400073F900B106462068000317D5D5F8880067
:10145000216F20F040600843C5F88800206FB84233
:1014600004D1E86840F48010E86007E0404505D109
:101470000121201D01F058F900B106462068400303
:1014800017D5D5F88800616F20F040600843C5F893
:101490008800606FB84204D1E86840F48010E860CA
:1014A00007E0404505D10121201D01F03DF900B1C3
:1014B0000646208840041AD5D5F88800A16F20F090
:1014C00040500843C5F88800A06FB0F1805F03D09A
:1014D000B0F1005F05D00AE00221201D01F024F9DF
:1014E00003E00221584601F0B5F900B10646208814
:1014F000000407D5D5F88800E16F20F0804008434C
:10150000C5F888002068C00307D555F8880FD4F8BF
:10151000801020F0004008432860304600F004B8F6
:10152000001002400070004018BCBDE8E08F0000D1
:101530002DE9F0470F46050058D0404E306800F0C6
:101540000700B84209D2306820F007003843306005
:10155000306800F00700B84248D12878384CC007FE
:101560002CD06868032811D0022812D0216898B1C5
:10157000490500293ADAA16821F003010143A1607D
:10158000FFF72CFD804641F2883910E0216889017F
:10159000EFE721688903ECE78907EAE7FFF71EFD1B
:1015A000A0EB0801494502D90320BDE8F087A068F7
:1015B000696800F00C00B0EB810FEFD1287880074C
:1015C00005D5A068A96820F0F0000843A060306845
:1015D00000F00700B8420BD9306820F0070038430C
:1015E0003060306800F00700B84201D00120DCE72D
:1015F0002878400705D5A068E96820F4E060084332
:10160000A0602878000706D5A068296920F46050FA
:1016100040EAC100A06000F01BF8A168094AC1F3CC
:101620000311515C01F01F01C840074908600748D9
:101630000068BDE8F047FFF7EFBC00000020024063
:1016400000100240D02F00080C00002004000020F1
:1016500070B52549002318468A68CC6812F00C0240
:1016600004F00306214C4FEA640509D00C2A05D08A
:10167000042A32D0082A00D1284670BD012E10D18C
:101680000B681B0704D4D1F89430C3F3032302E0A2
:101690000B68C3F30313164E56F82330DAB10C2A45
:1016A000EBD1C86800F00300022818D0032818D036
:1016B0001846CA68CB68C2F30212C3F30623434339
:1016C000521CB3FBF2F2C868C0F34160401C4000FA
:1016D000B2FBF0F070BD184670BD204670BD2046CC
:1016E000E7E72846E5E70000001002400024F40088
:1016F000E02F00082DE9F84304006FD0FE4DA868E4
:1017000000F00C06E86800F003072078C00664D5F6
:1017100076B10C2E01D1012F0AD0A06900282868CB
:101720007AD040F001002860FFF758FC80465DE069
:101730002868800702D5A0690028DED0216A2868C1
:10174000000703D5286800F0F00004E0D5F8940005
:10175000F02202EA1010814216D9084601F0FEF884
:1017600000283BD1286840F0080028602868216ADA
:1017700020F0F000084328606868E16920F47F40A9
:1017800040EA0120686016E0286840F00800286000
:101790002868216A20F0F000084328606868E16941
:1017A00020F47F4040EA0120686026B9206A01F0F9
:1017B000D5F80028D5D1FFF74BFFA968CF4AC1F370
:1017C0000311515C01F01F01C840CD490860CD48AC
:1017D0000068FFF721FC00287ED12EE0CAE000BFA0
:1017E000FFF7FCFBA0EB0800022876D828688007EA
:1017F000F6D5286840F0080028602868216A20F0A3
:10180000F000084328606868E16920F47F4040EAFE
:101810000120686011E0FFE720F001002860FFF779
:10182000DDFB804606E000BFFFF7D8FBA0EB080019
:101830000228DAD828688007F6D42078C00740D07C
:10184000082E18D00C2E01D1032F14D06068B0F5EB
:10185000803F17D0B0F5A02F286817D020F4803033
:101860002860286820F4802028606068E0B1FFF7D5
:10187000B5FB804614E02868800322D56068002804
:1018800078D01EE0286840F48030EDE740F48020F6
:101890002860F7E7FFF7A2FBA0EB08006428A4D8B4
:1018A00028688003F6D50CE0FFF798FB804605E03A
:1018B000FFF794FBA0EB0800642896D82868800303
:1018C000F6D4207880073BD5042E11D00C2E01D100
:1018D000022F0DD0E06801E092E1F1E000282868D5
:1018E0001ED040F480702860FFF778FB07460CE0BC
:1018F000286840050CD5E0680028C1D008E000BF8A
:10190000FFF76CFBC01B022893D828684005F7D569
:101910006868217C20F0F85040EA016068600FE0C0
:1019200020F480702860FFF759FB074605E000BFF0
:10193000FFF754FBC01B0228B1D828684005F7D434
:101940002078000729D560690028D5F8940012D0C6
:1019500040F00100C5F89400FFF740FB074604E0A3
:10196000FFF73CFBC01B022899D8D5F894008007EC
:10197000F6D512E000E120F00100C5F89400FFF771
:101980002DFB074605E000BFFFF728FBC01B022820
:1019900085D8D5F894008007F6D42078400766D51E
:1019A000A86D0027C00008D4A86D40F08050A8653D
:1019B000A86D012700F08050009053480168C905C8
:1019C00012D40168814641F480710160FFF706FB83
:1019D000804605E0FFF702FBA0EB080002286FD865
:1019E000D9F80000C005F5D5A068012816D0052853
:1019F000D5F8900017D020F00100C5F89000D5F878
:101A0000900020F0040000BFC5F89000A06841F2EB
:101A10008839C0B1FFF7E2FA80460FE0D5F89000B0
:101A200040F00100F0E740F00400C5F89000F5E751
:101A3000FFF7D4FAA0EB0801494541D8D5F890004A
:101A40008007F5D50EE0FFF7C9FA804606E000BF33
:101A5000FFF7C4FAA0EB0801494531D8D5F890004A
:101A60008007F5D41FB1A86D20F08050A865A06A4A
:101A700038B302280AD00C2E7ED0286820F080705F
:101A80002860286810F0205F77D0AAE0E868E26A52
:101A900000F0030191422BD1216B00F0700209018B
:101AA0001039914224D1626B00F4FE41B1EB022F58
:101AB0001ED1A26B00F40031072A03D0012202E0FC
:101AC0009DE089E00022914212D1A18F00F4C00272
:101AD00049084905A1F50011914209D194F8401037
:101AE00000F0C06049084906A1F1007181425CD054
:101AF0000C2E41D0286809E000100240D02F0008C9
:101B00000C000020040000200070004040017ED442
:101B10002868C0007BD4286820F080702860FFF718
:101B20005DFA064605E000BFFFF758FA801B022861
:101B300065D828688001F7D4D4E90B016FF00F0253
:101B400002EB01110843A18F5204490802EB4151F5
:101B5000626B41EA0221084394F840104FF07E4244
:101B6000490802EB41610843A16B090940EA414081
:101B7000E968284A114001E049E02EE00843E860A6
:101B8000286840F080702860E86840F08070E86065
:101B9000FFF724FA044604E0FFF720FA001B0228AE
:101BA0002DD828688001F7D52FE0286880012CD433
:101BB000286840F080702860E86840F08070E86035
:101BC000FFF70CFA044604E0FFF708FA001B0228AE
:101BD00015D828688001F7D517E0E86820F00300E1
:101BE000E860E8680C490840E860FFF7F7F9044648
:101BF00008E000BFFFF7F2F9001B022802D903201A
:101C0000BDE8F88328688001F4D40020F8E70120BB
:101C1000F6E700008C809DF9FFFFEEFE10B5401E38
:101C2000B0F1807F01D3012010BD4FF0E02460614E
:101C30000F21601701F06EF90020A06107202061DC
:101C4000002010BD704770477047000030B590F815
:101C50003C20012A3AD0012280F83C20CA688B68D7
:101C600022F440721A434B6822F480621A430B68D4
:101C700022F400621A430B6922F480521A434B6922
:101C800022F400521A438B6A22F480421A430B8BCF
:101C900022F4702242EA03420D4D03680024AB4255
:101CA00002D00C4DAB420CD18D8C22F4700242EA72
:101CB0000552CD6922F080722A43096A22F000722F
:101CC0000A435A6480F83C40002030BD022030BDF9
:101CD000002C014000340140F0B590F83C20012A6E
:101CE00039D0012480F83C40022280F83D2002686F
:101CF00053689568194E1A4FB24201D0BA4204D1C6
:101D000023F4700C4B6843EA0C0323F0700C0B684F
:101D100043EA0C0353600268B24210D0B2F1804F24
:101D20000DD0104B9A420AD00F4B9A4207D00F4B5E
:101D30009A4204D0BA4202D00D4B9A4204D189682B
:101D400025F080031943916080F83D40002180F820
:101D50003C100846F0BD0220F0BD0000002C014000
:101D6000003401400004004000080040000C004026
:101D70000040014010B5040003D094F83D0010B1BC
:101D800007E0012010BD002084F83C00204600F050
:101D900023F8022084F83D00211D206800F08EFE0B
:101DA000012084F8480084F83E0084F83F0084F85D
:101DB000400084F8410084F8420084F8430084F82D
:101DC000440084F8450084F8460084F8470084F80D
:101DD0003D00002010BD000008B5114A01681148FF
:101DE000914211D1816D41F010018165806D002219
:101DF00000F01000009002213620FFF753F9BDE8F3
:101E000008403620FFF740B9074A914207D1016EDA
:101E100041F400510166006E00F40050009008BDCE
:101E200000100040001002400034014090F83D10C6
:101E3000012901D001207047022180F83D1001687E
:101E4000CA6842F00102CA6000681149884211D094
:101E5000B0F1804F0ED00F4988420BD00E49884216
:101E600008D00E49884205D00D49884202D00D495C
:101E7000884207D181680C4A1140062906D0B1F585
:101E8000803F03D0016841F00101016000207047EC
:101E9000002C01400004004000080040000C0040FD
:101EA00000340140004001400700010070B50446C5
:101EB00090F83C00012817D0012584F83C500220FE
:101EC00084F83D00226890682E4B184020F47F4033
:101ED00090600868502830D00DDC20284DD005DCFB
:101EE00098B310283BD148E0022070BD302844D080
:101EF000402834D139E0602828D0702806D0B0F5C9
:101F0000805F2CD0B0F5005F29D10AE0CB68D1E921
:101F10000121206800F03FFE2068816841F07701D0
:101F200009E0CB68D1E90121206800F034FE206887
:101F3000816841F48041816011E0CA684968206885
:101F400000F0C4FF5021206807E016E0CA68496825
:101F5000206800F0CCFF6021206800F026FE84F8A5
:101F60003D50002084F83C0070BDCA684968206874
:101F700000F0ACFF40212068EFE7226801461046E0
:101F8000EBE7000088FFFEFF704770B5044600686D
:101F900001694FF00005C943890715D4C168C943D9
:101FA000890711D4E91E016101202077206880692A
:101FB0008007204602D0FFF7E7FF04E000F0D2F8E8
:101FC000204600F091F9257720680169C943490747
:101FD00017D4C168C943490713D46FF004010161E4
:101FE000022020772068806910F4407F204602D0CC
:101FF000FFF7CAFF04E000F0B5F8204600F074F9DE
:10200000257720680169C943090716D4C168C94307
:10201000090712D46FF008010161042020772068BD
:10202000C0698007204602D0FFF7AEFF04E000F051
:1020300099F8204600F058F9257720680169C943CE
:10204000C90617D4C168C943C90613D46FF010017B
:102050000161082020772068C06910F4407F204685
:1020600002D0FFF791FF04E000F07CF8204600F07A
:102070003BF9257720680169C943C90708D1C168C0
:10208000C943C90704D1891E0161204600F0B0F997
:1020900020680169C943090609D4C168C943090612
:1020A00005D46FF0800101612046FFF7CCFD206868
:1020B0000169C943C90509D4C168C943090605D4E2
:1020C0006FF4807101612046FFF7BCFD2068016953
:1020D000C943490609D4C168C943490605D46FF00C
:1020E00040010161204600F091F920680169C9436F
:1020F00089060BD4C168C943890607D46FF0200153
:1021000001612046BDE87040FFF79EBD70BD000034
:1021100010B586B0044614216846FEF758F80E49FB
:102120002068884216D10D48C16C41F00401C16499
:10213000C06C694600F0040005904FF47070009088
:102140000220019000200290039003200490044894
:10215000FEF70CFE06B010BD003401400010024036
:1021600000080048704770B5044690F83C000D46E2
:1021700001280BD0012084F83C000C2A45D007DC54
:102180005AB1042A1BD0082A78D12CE0022070BD55
:10219000102A4ED0142A71D15DE0206800F00EFDA7
:1021A0002068816941F0080181612068816921F01E
:1021B00004018161206881692A69114311E0206866
:1021C00000F04AFD2068816941F400618161206866
:1021D000816921F480618161206881692A6941EA0D
:1021E000022181614AE0206800F07EFD2068C1691B
:1021F00041F00801C1612068C16921F00401C16199
:102200002068C1692A69114311E0206800F0B4FD1B
:102210002068C16941F40061C1612068C16921F48D
:102220008061C1612068C1692A6941EA0221C161F6
:1022300024E0206800F0DAFD2068416D41F00801DB
:1022400041652068416D21F0040141652068416DC0
:102250002A69114311E0206800F000FE2068416DFA
:1022600041F4006141652068416D21F48061416560
:102270002068416D2A6941EA02214165002084F805
:102280003C0070BD10B5040003D094F83D0010B1BF
:1022900007E0012010BD002084F83C00204600F03B
:1022A00022F8022084F83D00211D206800F006FC81
:1022B000012084F8480084F83E0084F83F0084F848
:1022C000400084F8410084F8420084F8430084F818
:1022D000440084F8450084F8460084F8470084F8F8
:1022E0003D00002010BD70477047000030B5044627
:1022F000022269B1042912D0082917D00C291CD058
:10230000102921D094F84300012824D0012030BDA9
:1023100094F83E000128F9D184F83E201DE094F89D
:102320003F000128F2D184F83F2016E094F84000E5
:102330000128EBD184F840200FE094F841000128F7
:10234000E4D184F8412008E094F842000128DDD16E
:1023500084F8422001E084F843200122206800F044
:102360000DFC1A4A20681A4B1A49904209D098422B
:1023700007D0884205D0184DA84202D0174DA84278
:1023800003D1456C45F400454564206890420FD068
:10239000B0F1804F0CD0124A904209D0114A9042BD
:1023A00006D0114A904203D0984201D0884207D10A
:1023B00081680E4A1140062906D0B1F5803F03D04E
:1023C000016841F001010160002030BD002C014096
:1023D00000340140004001400044014000480140F9
:1023E0000004004000080040000C0040070001000D
:1023F00010B5042203490448FEF74AFBBDE810402B
:1024000000F006B8100000203000002070470000E7
:10241000134B10B50020372203F1100153F8204070
:10242000B4FBF2F4373441F82040401CC0B2042819
:10243000F4D3C868282801D2282002E0462801D910
:102440004620C86007480A6803685A6303684A68F8
:102450009A6303688A68DA630068C968016410BD1A
:1024600010000020E0000020FEE700EB8100006E7D
:1024700000F0F84070478068C0F3C0007047806883
:10248000C0F3800070478068C0F380007047C06868
:1024900010F4406F01D000207047012070470423E2
:1024A00003EAD15310B518444369C1F3045107241A
:1024B0008C40A3438A401343436110BD00EB81006D
:1024C000016E21F0004111430166704730B589B0BB
:1024D000002406940794182168460894FDF777FEB7
:1024E000224821490425C0E9001445610121846086
:1024F000C0E9034104764176C56180F820408462DA
:10250000C46280F83040446380F83840FEF792F9A6
:1025100006A916480694FDF713FF154800900620FB
:10252000CDE901047F200594CDE9030569460F48F4
:10253000FDF77EFF0F4800900C20019069460B4884
:10254000FDF776FF0C48009012200190694607487D
:10255000FDF76EFF09480090182001906946034876
:10256000FDF766FF09B030BD0000045030000020C8
:1025700002003004040060080800900C1000C01035
:1025800010B586B014216846FDF721FE1648C16CCF
:1025900041F08001C164C16C01F080010591C16C02
:1025A00041F00401C164C16C01F004010591C16CEA
:1025B00041F00101C164C06C4FF0904400F0010093
:1025C0000590002220212046FEF703FD20200090E8
:1025D00001200021CDE90101039169462046FEF763
:1025E000C5FB06B010BD0000001002401FB500245E
:1025F0000094019436200294FEF746FD1048816D48
:1026000041F010018165806D0E4900F010000390CB
:102610000D4801604F21C0E9011440F2E7318461A7
:10262000C160FFF7A7FB0094694607480294FFF7D3
:1026300053FB0548FFF79EFB0348FFF7F7FB1FBD61
:1026400000100240001000409400002010B59AB025
:1026500000241794189415941694129413941C2122
:1026600068461494FDF7B3FD2C2107A8FDF7AFFDD4
:102670002A482949016040F23F61C0E901144FF442
:102680007A71C0E9031444618461FFF773FB4FF46E
:102690008050159015A92148FFF708FC1F48FFF747
:1026A000F1FD1294139412A91C481494FFF714FB23
:1026B0006020CDE900040294039404940594002260
:1026C000694616480694FFF74EFD042269461348F2
:1026D000FFF749FD082269461048FFF744FD0C2228
:1026E00069460E48FFF73FFD0794089409944FF49C
:1026F00000500A94CDE90B400003CDE90E400D9443
:10270000109407A905481194FFF7A0FA0348FFF7B2
:10271000FFFC1AB010BD000000340140E0000020B2
:10272000FEE77047704700002DE9F041444C054634
:102730008846E0680026810728680DD0E16801F02E
:102740000301814216D1A8B1E0686968C0F30210A4
:10275000401C88420ED120E0012804D0022805D078
:10276000032807D108E02168890701E021684905AD
:10277000002907DB01265FE02168890302D4216874
:102780004903F5E7E1686A686FF00F0321F0730110
:1027900003EB021211430143E160206820F08060E6
:1027A0002060FEF71BFC074605E000BFFEF716FCA5
:1027B000C01B022837D820680001F7D4B8F1000FF9
:1027C00018D0B8F1010F1ED0287D4FF07E4140088F
:1027D00001EB4060A96840EA01202169194A1140D3
:1027E00008432061206840F080602060FEF7F6FB1F
:1027F00007461AE0A868E9680002090940EA414072
:102800002169114AEBE7288A1049400801EB405042
:10281000A96840EA012021690D4AE0E7FEF7DEFBE6
:10282000C01B022801D9032606E020680001F5D567
:102830002069A969084320613046BDE8F0810000A5
:1028400000100240FF80FFF9FF80FDFF0000E0FF65
:10285000FF809FFF2DE9F0413D4C06468846E06829
:102860000025810730680DD0E16801F00301814245
:1028700016D1A8B1E0687168C0F30210401C88420C
:102880000ED120E0012804D0022805D0032807D16A
:1028900008E02168890701E021684905002907DB74
:1028A000012551E02168890302D421684903F5E735
:1028B000E16872686FF00F0321F0730103EB0212FD
:1028C00011430143E160206820F080502060FEF752
:1028D00085FB074605E000BFFEF780FBC01B022812
:1028E00029D820688000F7D4B8F1000F15D0307CCB
:1028F0004FF07E41400801EB4060B16840EA0120A2
:102900006169144A114008436061206840F08050BA
:102910002060FEF763FB07460FE0B068F168000235
:10292000090940EA414061690B4AEBE7FEF756FBB3
:10293000C01B022801D9032506E020688000F5D5D8
:1029400060697169084360612846BDE8F081000054
:1029500000100240FF80FFF9FF80FDFFF8B51C4D1D
:1029600006460024A86DC00002D5FEF701FC0DE06C
:10297000A86D40F08050A865A86D00F080500090D0
:10298000FEF7F6FBA96D21F08051A965B0F5007F37
:1029900004D0802E07D94FF003040AE0802E08D916
:1029A000A02E01D804E001D1022402E0702E00D153
:1029B00001240848016821F00701214301600068F3
:1029C00000F00700A04201D00120F8BD0020F8BDB2
:1029D00000100240002002407047FEF705BB2DE9C1
:1029E000F041B8B0442122A8FDF7F1FB142133A82F
:1029F000FDF7EDFB88216846FDF7E9FB0124002681
:102A0000CDE928464FF010080225CDF888806020D7
:102A1000CDE92C542A9028200727CDE92E40CDE976
:102A20003075329522A8FEF765FE0F203390032003
:102A3000CDE934063696042133A83796FEF778FDA3
:102A4000A003009080031E9001940011CDE9065070
:102A5000CDE90475CDE902486846FEF791FB6002B6
:102A6000FEF752FB38B0BDE8F08100000D48016868
:102A700041F4700101600C48016841F001010160FE
:102A8000002181600268094B1A4002608214C26012
:102A9000026822F48022026081610249C003803909
:102AA0000860704788ED00E000100240FFFFF6EA82
:102AB0000148FFF76ABA0000940000202DE9F047B2
:102AC0000268264B264D274E274F284C4FF0804A50
:102AD000984209D0504507D0A84205D0B04203D053
:102AE000B84201D0A04204D122F0700C4A6842EAF8
:102AF0000C02DFF87CC0DFF87C80DFF87C90984225
:102B00000FD050450DD0A8420BD0B04209D0B842EA
:102B100007D0A04205D0604503D0404501D04845CC
:102B200003D122F44075CA682A434D6922F080021D
:102B30002A4302608A68C2620A688262984207D0A9
:102B4000A04205D0604503D0404501D0484501D1A1
:102B50000969016301214161BDE8F087002C014052
:102B60000004004000080040000C00400034014018
:102B700000400140004401400048014010B501F010
:102B80001F030121046A99408C430462016A9A4040
:102B90001143016210BD10B5846842EA032224F497
:102BA0007F440A432243826010BD826822F0700293
:102BB0000A4342F007018160704700002DE9F043AD
:102BC000026A22F001020262056A436882691C4CB3
:102BD00025F0020522400C6822F0030214438A68A3
:102BE000194E2A43174D194FDFF864C0DFF864907F
:102BF000A84207D0B04205D0B84203D0604501D00A
:102C0000484506D122F00808CA6842EA080222F0C4
:102C10000402A84207D0B04205D0B84203D06045B4
:102C200001D0484505D14D6923F440731D438B699C
:102C30002B4343608461496841630262BDE8F083CD
:102C40008FFFFEFF002C0140003401400040014096
:102C50000044014000480140F0B5026A22F0100231
:102C60000262056A42688369194C1B4E23400C6856
:102C700023F4407343EA042425F020038D6843EADB
:102C80000513144DA84201D0B04206D1CF6823F0FD
:102C9000800343EA071323F04003A8420AD0B0425E
:102CA00008D00E4DA84205D00D4DA84202D00D4DC2
:102CB000A84207D14D6922F4406242EA85028D693B
:102CC00042EA850242608461496881630362F0BD23
:102CD000FF8FFFFE002C0140003401400040014006
:102CE0000044014000480140F0B5026A22F48072BD
:102CF0000262056A4368C269194C1B4E22400C6887
:102D000022F00302144325F400728D6842EA052282
:102D1000144DA84201D0B04206D1CF6822F400621F
:102D200042EA072222F48062A8420AD0B04208D0C8
:102D30000E4DA84205D00E4DA84202D00D4DA8421E
:102D400007D14D6923F4405343EA05138D6943EAE3
:102D500005134360C4614968C1630262F0BD0000AD
:102D60008FFFFEFF002C0140003401400040014075
:102D7000004401400048014030B5026A22F480520C
:102D80000262046A4268C369124D24F400542B4065
:102D90000D6823F4407343EA05238D6844EA053443
:102DA0000D4DA8420BD00D4DA84208D00C4DA842A5
:102DB00005D00C4DA84202D00B4DA84204D14D695C
:102DC00022F4804242EA85124260C361496801648C
:102DD000046230BDFF8FFFFE002C01400034014033
:102DE00000400140004401400048014030B5026A03
:102DF00022F480320262046A4268436D114D2B4016
:102E00000D681D4324F400330C8943EA04430E4C3F
:102E1000A0420BD00D4CA04208D00D4CA04205D0D2
:102E20000C4CA04202D00C4CA04204D14C6922F4BC
:102E3000803242EA04224260456549688165036246
:102E400030BD00008FFFFEFF002C01400034014028
:102E500000400140004401400048014030B5026A92
:102E600022F480120262046A4268436D114D24F418
:102E700000142B400D6843EA05230D8944EA0554EC
:102E80000D4DA8420BD00D4DA84208D00C4DA842C4
:102E900005D00C4DA84202D00B4DA84204D14D697B
:102EA00022F4802242EA8522426043654968C16576
:102EB000046230BDFF8FFFFE002C01400034014052
:102EC00000400140004401400048014010B5036A41
:102ED000046A24F001040462846924F0F00444EAE2
:102EE000021423F00A020A438461026210BD10B585
:102EF000036A23F0100303628369046A23F47043B6
:102F000043EA023224F0A00343EA01118261016224
:102F100010BDFEE70907090E002804DB00F1E020E0
:102F200080F80014704700F00F0000F1E02080F8F6
:102F3000141D704702E008C8121F08C1002AFAD108
:102F400070477047002001E001C1121F002AFBD129
:102F50007047000008B5FEF74FF8FFF740FDFFF798
:102F60000FFB1848816C41F002018164806C0022E3
:102F700000F00200009011463A20FEF793F83A2044
:102F8000FEF782F8FFF7A2FAFFF730FBFFF75EFBD0
:102F900000210D48FFF7AAF904210B48FFF7A6F915
:102FA00008210948FFF7A2F90C210748FFF79EF90D
:102FB000054804220549B038FDF76AFDFFF728FAF5
:102FC000FEE7000000100240E0000020100000209A
:102FD00000000000000000000102030406070809C9
:102FE000A0860100400D0300801A060000350C0089
:102FF00040420F0080841E0000093D0000127A004C
:103000000024F40000366E010048E801006CDC0288
:10301000303000080000002010000000342F0008AD
:10302000403000081000002068050000442F000810
:1030300001000000100000000000000000093D0039
:040000050800018965
:00000001FF
