:020000040800F2
:10000000200400209D010008D90F0008D10F00082E
:10001000D50F00081102000831110008000000008F
:10002000000000000000000000000000791000083F
:100030001502000800000000DB0F00087B1000081C
:10004000B7010008B7010008B7010008B7010008B0
:10005000B7010008B7010008B7010008B7010008A0
:10006000B7010008B7010008B7010008B701000890
:10007000B7010008B7010008B7010008B701000880
:10008000B7010008B7010008B7010008B701000870
:10009000B7010008B7010008B7010008B701000860
:1000A000B7010008B7010008B7010008B701000850
:1000B000B7010008B7010008B7010008B701000840
:1000C000B7010008B7010008B7010008B701000830
:1000D000B7010008B7010008B7010008B701000820
:1000E00017020008B7010008B7010008B7010008AF
:1000F000B7010008B7010008B7010008B701000800
:10010000B7010008B7010008B7010008B7010008EF
:10011000B7010008B7010008B7010008B7010008DF
:10012000B7010008B7010008B7010008B7010008CF
:10013000B7010008B7010008B7010008B7010008BF
:10014000B7010008B7010008B7010008B7010008AF
:10015000B7010008B7010008B7010008B70100089F
:10016000B7010008B7010008B7010008B70100088F
:10017000B7010008B7010008B7010008000000003F
:10018000B7010008B7010008DFF80CD000F02EF826
:1001900000480047C5130008200400200648804797
:1001A00006480047FEE7FEE7FEE7FEE7FEE7FEE75C
:1001B000FEE7FEE7FEE7FEE7E11000088901000820
:1001C00030B50B46014600202022012409E021FA27
:1001D00002F59D4205D303FA02F5491B04FA02F524
:1001E0002844151EA2F10102F1DC30BD064C074D7A
:1001F00006E0E06840F0010394E8070098471034F7
:10020000AC42F6D3FFF7C4FF501400087014000886
:1002100000BFFEE7704710B54FF4005000F01CF827
:1002200010BD000070B5044600F026F906462546CC
:10023000681C10B104480068054400BF00F01CF9B8
:10024000801BA842FAD370BD1800002000B50246FA
:1002500001F060F800BD000010B5044604480068D5
:10026000204020B1024804602046FFF7EFFF10BD98
:100270001404014078B503460022E5E001269640CB
:100280000D6805EA0604002C7DD04D68012D08D0CC
:100290004D68022D05D04D68112D02D04D68122DEC
:1002A00013D1986856000325B540A8435600CD6881
:1002B000B54028439860586801259540A8430D79BA
:1002C000C5F300159540284358600D7905F00305E6
:1002D000032D09D1D86A01259540A8430D79C5F3AE
:1002E000C00595402843D862D86856000325B5401C
:1002F000A84356008D68B5402843D8604D68022D4C
:1003000002D04D68122D13D1D60803F1200555F8FF
:1003100026005507EE0E0F25B540A8435607F60EEA
:100320000D69B5402843D60803F1200545F826009D
:10033000186856000325B540A8430D7905F003055C
:100340005600B540284318604D6805F08055B5F15A
:10035000805F78D100BF3F4D2D6E45F001053D4EC9
:10036000356635462D6E05F00105009500BF00BFCE
:100370004FEAB635960855F8260095072E0F0F253B
:10038000B540A84300E05EE0B3F1904F01D10025F5
:100390001EE0314DAB4201D1012519E02F4DAB429A
:1003A00001D1022514E02E4DAB4201D103250FE00F
:1003B0002C4DAB4201D104250AE02B4DAB4201D1BB
:1003C000052505E0294DAB4201D1062500E00725B2
:1003D0009607360FB5402843254D960845F8260068
:1003E000244D2868A0434D6805F48035B5F5803F5D
:1003F00000D120431F4D28602D1D2868A0434D6863
:1004000005F40035B5F5003F00D12043194D2D1DF1
:1004100028602D1D2868A0434D6805F48015B5F5AA
:10042000801F00D12043134D083528602D1D2868FA
:10043000A0434D6805F40015B5F5001F00D1204319
:100440000C4D0C352860521C0D68D540002D7FF4F2
:1004500015AF78BD001002400004004800080048B5
:10046000000C004800100048001400480018004824
:100470000800014000040140014800687047000086
:100480001000002003480068034909680844014936
:1004900008607047100000201800002010B50024EC
:1004A000032000F0ADF80F2000F008F808B1012497
:1004B00001E000F02FF8204610BD000070B50446A2
:1004C000002511480068D8B10F4800684FF47A71D0
:1004D000B1FBF0F00D490968B1FBF0F6304600F0D1
:1004E0005DFD58B9102C07D200222146501E00F0A5
:1004F00045F80748046004E0012502E0012500E01A
:100500000125284670BD00001800002000000020D2
:10051000140000207047000010B50146084600286E
:1005200017DB00F01F0301229A400B4B440943F8EC
:10053000242000BF00BF00BFBFF34F8F00BF00BF2C
:1005400000BF00BF00BF00BFBFF36F8F00BF00BF81
:1005500000BF00BF10BD000080E100E0014608467A
:10056000002809DB00F01F0301229A4043099B0089
:1005700003F1E023C3F8002100BF70472DE9F05FCD
:1005800080460D461646002700F0E4FD0746394632
:100590002A46334601F00700C0F1070ABAF1040FFA
:1005A00002D94FF0040A01E0C0F1070AD14600F178
:1005B000040ABAF1070F02D24FF0000A01E0A0F1DD
:1005C000030AD4464FF0010A0AFA09FAAAF1010A0D
:1005D0000AEA020A0AFA0CFA4FF0010B0BFA0CFBBA
:1005E000ABF1010B0BEA030B4AEA0B042146404630
:1005F00000F0B8FD00F000B830BCBDE8C09F0000BE
:1006000000BF00F00702064B19684FF6FF031940C0
:10061000044B0B4343EA0221014B196000BF7047B2
:100620000CED00E00000FA050248006800F4C0602C
:1006300070470000007000402DE9F04104460D466F
:1006400014B90120BDE8F0815548006800F00700AA
:10065000A8420ED25248006820F0070028435049B3
:1006600008600846006800F00700A84201D0012099
:10067000E8E7207800F00100002840D060680328F7
:1006800006D14848006800F00070D8B90120D9E7C9
:100690006068022806D14348006800F4003088B939
:1006A0000120CFE7606830B93E48006800F00200E2
:1006B00040B90120C6E73B48006800F4806008B9F3
:1006C0000120BFE73748806820F0030061680843D5
:1006D00034498860FFF7D0FE064608E0FFF7CCFEFD
:1006E000801B41F28831884201D90320AAE72D48B6
:1006F000806800F00C006168B0EB810FEED12078CB
:1007000000F00200022807D12648806820F0F0009F
:10071000A1680843234988602148006800F0070069
:10072000A8420ED91E48006820F0070028431C4943
:1007300008600846006800F00700A84201D00120C8
:1007400080E7207800F00400042807D1154880686D
:1007500020F4E060E168084312498860207800F0E6
:100760000800082808D10F48806820F460502169EB
:1007700040EAC1000B49886000F01CF8094989680B
:10078000C1F30311084A515C01F01F01C840074939
:10079000086007480068FFF791FE0746384651E7B2
:1007A0000020024000100240081400080000002051
:1007B00014000020F0B500230020DFF8D4C0DCF8DE
:1007C00008C00CF00C01DFF8C8C0DCF80CC00CF05D
:1007D000030719B10C291ED1012F1CD1DFF8B0C0BD
:1007E000DCF800C00CF0080CBCF1000F06D1DFF8FB
:1007F000A0C0DCF894C0CCF3032305E0DFF890C080
:10080000DCF800C0CCF30313DFF888C05CF82330B9
:1008100041B9184606E0042901D11F4802E0082921
:1008200000D11E480C2932D1DFF864C0DCF80CC0BE
:100830000CF00304012C09D0022C02D0032C04D1AB
:1008400001E0154A04E0154A02E000BF1A4600BF65
:1008500000BFDFF83CC0DCF80CC0CCF3021C0CF18C
:100860000106DFF82CC0DCF80CC0CCF3062C0CFB26
:1008700002FCBCFBF6F2DFF818C0DCF80CC0CCF3CD
:10088000416C0CF1010C4FEA4C05B2FBF5F0F0BDE8
:1008900000100240201400080024F40000127A0026
:1008A0002DE9F843044614B90120BDE8F883F9485E
:1008B000806800F00C06F748C06800F00307207855
:1008C00000F01000102877D11EB10C2E76D1012F28
:1008D00074D1F048006800F0020018B1A06908B9AE
:1008E0000120E2E7EB48216A006800F0080020B12F
:1008F000E848006800F0F00005E0E6489430006841
:1009000000F47060000981421FD9206A00F066FB84
:1009100008B10120C9E700BFDE48006840F00800C8
:10092000DC4908600846006820F0F000216A0843AE
:10093000D849086000BF0846406820F47F40E1695C
:1009400040EA0120D34948601FE000BFD148006859
:1009500040F00800CF4908600846006820F0F00029
:10096000216A0843CB49086000BF0846406820F46C
:100970007F40E16940EA0120C64948602EB9206AFB
:1009800000F02CFB08B101208FE7FFF713FFC149EE
:100990008968C1F30311C04A515C01F01F01C840CE
:1009A000BE490860BE480068FFF788FD8046B8F180
:1009B000000F4ED0404678E74BE0FFE7A06980B3D8
:1009C000B448006840F00100B2490860FFF754FDE8
:1009D000054606E0FFF750FD401B022801D9032021
:1009E00063E7AC48006800F002000028F2D000BFC6
:1009F000A848006840F00800A6490860084600685A
:100A000020F0F000216A0843A249086000BF0846B0
:100A1000406820F47F40E16940EA01209D49486038
:100A200017E0FFE79B48006820F001009949086043
:100A3000FFF722FD054606E0FFF71EFD401B0228DA
:100A400001D9032031E79348006800F00200002834
:100A5000F2D1207800F0010000285CD0082E03D0ED
:100A60000C2E0AD1032F08D18A48006800F4003008
:100A700088B3606878BB012017E700BF6068B0F5F5
:100A8000803F06D18348006840F480308149086087
:100A90001AE06068B0F5A02F0BD17E48006840F4E2
:100AA00080207C4908600846006840F48030086077
:100AB0000AE07848006820F48030764908600846EB
:100AC000006820F48020086000BF606890B1FFF7E4
:100AD000D3FC054607E01EE0FFF7CEFC401B642870
:100AE00001D90320E1E66B48006800F400300028DB
:100AF000F2D010E0FFF7C0FC054606E0FFF7BCFCB3
:100B0000401B642801D90320CFE66248006800F446
:100B100000300028F2D1207800F00200022852D1E3
:100B2000042E03D00C2E14D1022F12D15948006884
:100B300000F4806018B1E06808B90120B5E65548B6
:100B4000406820F0F850217C40EA0160514948603B
:100B500039E0E06800B34F48006840F480704D49C8
:100B60000860FFF789FC054606E0FFF785FC401B9F
:100B7000022801D9032098E64648006800F4806006
:100B80000028F2D04348406820F0F850217C40EA29
:100B900001604049486016E03E48006820F48070DB
:100BA0003C490860FFF768FC054606E0FFF764FC77
:100BB000401B022801D9032077E63648006800F47C
:100BC00080600028F2D1207800F00800082836D193
:100BD0006069D0B12F489430006840F001002D4981
:100BE000C1F89400FFF748FC054606E0FFF744FC17
:100BF000401B022801D9032057E62648943000689C
:100C000000F002000028F1D019E02248943000687A
:100C100020F001001F49C1F89400FFF72DFC0546A4
:100C200006E0FFF729FC401B022801D903203CE61F
:100C300018489430006800F002000028F1D12078B4
:100C400000F00400042872D14FF000091148806DB3
:100C500000F0805078B900BF0E48806D40F08050A1
:100C60000C4988650846806D00F08050009000BFF8
:100C700000BF4FF001090B48006800F4807000BB12
:100C80000848006840F4807006490860FFF7F4FBEC
:100C9000054610E000100240081400080000002083
:100CA0001400002000700040FFF7E6FB401B022804
:100CB00001D90320F9E5B548006800F480700028E8
:100CC000F2D000BFA068012808D1B148006840F008
:100CD0000100AF499039C1F8900021E0A0680528D3
:100CE0000FD1AB48006840F00400A9499039C1F821
:100CF00090000846D0F8900040F00100C1F8900044
:100D00000EE0A348006820F00100A1499039C1F825
:100D100090000846D0F8900020F00400C1F8900040
:100D200000BFA068A0B1FFF7A7FB054609E02EE0D1
:100D3000FFF7A2FB401B41F28831884201D9032012
:100D4000B3E59348006800F002000028F0D012E0FC
:100D5000FFF792FB054608E0FFF78EFB401B41F2D0
:100D60008831884201D903209FE58948006800F056
:100D700002000028F0D1B9F1010F07D18448903862
:100D8000806D20F0805082499039886500BFA06A4C
:100D900000287DD0A06A02287BD17D489038C768A2
:100DA00007F00301E06A814228D107F07001206B4F
:100DB000401EB1EB001F21D107F4FE41606BB1EB87
:100DC000002F1BD107F40031A06B072801D00120B0
:100DD00000E00020814211D107F4C001A08F012260
:100DE000C2EB5000B1EB405F08D107F0C06140207A
:100DF000005DC2EB5000B1EB406F6CD00C2E68D0A0
:100E000063489038006800F0806028B960489038E6
:100E1000006800F0805008B1012046E55C48903839
:100E2000006820F080705A4990390860FFF724FB71
:100E3000054606E0FFF720FB401B022801D90320EE
:100E400033E553489038006800F000700028F1D175
:100E5000D4E90B10401E41EA0011606B41EA002109
:100E6000A08F0122C2EB500041EA40514020005DBA
:100E7000C2EB500041EA4061A06B000941EA4040EA
:100E800043499039C968434A11400843404901E049
:100E900066E046E09039C8600846006840F080701F
:100EA00008600846C06840F08070C860FFF7E4FA48
:100EB000054606E0FFF7E0FA401B022801D90320AF
:100EC000F3E433489038006800F000700028F1D057
:100ED0005AE00120E9E42E489038006800F00070E4
:100EE000F0BB2B489038006840F08070284990395A
:100EF00008600846C06840F08070C860FFF7BCFA20
:100F0000054606E0FFF7B8FA401B022801D9032086
:100F1000CBE41F489038006800F000700028F1D042
:100F200032E00C2E2ED01A489038006820F08070E5
:100F30001749903908600846006800F0205020B931
:100F40000846C06820F00300C86011489038C068A7
:100F5000114908400E499039C860FFF78DFA00E04A
:100F600012E0054606E0FFF787FA401B022801D988
:100F700003209AE406489038006800F000700028CA
:100F8000F1D101E0012090E400208EE400700040E7
:100F9000901002408C809DF9FFFFEEFE70B5044674
:100FA0002546681EB0F1807F01D301200FE0681E46
:100FB0004FF0E02148610F214FF0FF3000F0D2F8F0
:100FC00000204FF0E021886107200861002070BDFB
:100FD00000BFFEE700BFFEE770477047F8B5044664
:100FE00000262348806D00F0805018B1FFF71CFBED
:100FF000054616E000BF1E48806D40F080501C4939
:1010000088650846806D00F08050009000BF00BFEA
:10101000FFF70AFB05461648806D20F08050144902
:101020008865B5F5007F07D1802C10D9A02C01D997
:1010300002260CE001260AE0802C01D9032606E0F6
:10104000802C01D1022602E0702C00D10126094833
:10105000006820F007003043064908600846006831
:1010600000F00700B04201D00120F8BD0020FCE7ED
:101070000010024000200240704710B5FFF702FA4E
:1010800010BD00B597B0102001900120079060209E
:1010900009900020089002200B9001210C910D91E5
:1010A00028210E910221119107210F910421109105
:1010B00001A8FFF7F5FB08B100BFFEE70F20129073
:1010C000032013900020149015901690042112A86C
:1010D000FFF7B2FA08B100BFFEE717B000BD00008D
:1010E0001048006840F470000E4908600E4800681F
:1010F00040F001000C490860002088600846006844
:101100000A490840084908608814C8600846006811
:1011100020F48020086000208861C80301498039DC
:101120000860704788ED00E000100240FFFFF6EA1B
:1011300000BFFEE70FB4054B10B503A9044A02989F
:1011400000F034F810BC5DF814FB00008D130008AB
:101150000400002002480068C0F30220704700002D
:101160000CED00E010B5002804DB0A07130E054A59
:10117000135406E00A07140E034A00F00F031B1F66
:10118000D45410BD00E400E018ED00E002E008C80F
:10119000121F08C1002AFAD170477047002001E0F1
:1011A00001C1121F002AFBD1704700002DE9FF4F3B
:1011B00089B09B460446002506E025280BD05A46F8
:1011C0000B999047641C6D1C20780028F5D10DB058
:1011D000284600F095B80027B8460122474900E0AC
:1011E000074314F8013F203B02FA03F00842F7D10D
:1011F00020782E2819D114F8010F47F004072A2867
:101200000ED06FF02F022078A0F1300109290CD800
:1012100008EB880102EB410100EB0108641CF2E7D6
:101220000A98641C50F8048B0A9020780028CED0CD
:10123000642808D0692806D075281ED05A460B9914
:1012400090476D1C58E00A994FF00A0901C90A91AC
:10125000002802DA40422D2102E0390504D52B2175
:101260008DF82010012103E0F90704D02021F7E7D1
:101270008A4608AE0DE00021FAE70A994FF00A0904
:1012800001C90A91F7E74946FEF79AFF303106F89F
:10129000011D0028F7D1ADEB060000F12009780709
:1012A00001D44FF00108C84502DDA8EB090000E0B9
:1012B00000208046002706E008A85A46C05D0B992A
:1012C00090476D1C7F1C5745F6DB04E030205A46E2
:1012D0000B9990476D1CB8F10001A8F10108F5DCED
:1012E00005E016F8010B5A460B9990476D1CB9F1B1
:1012F0000001A9F10109F4DC641C65E7092801007B
:1013000030BCBDE8C08F0000014800687047000095
:101310000C00002002480068401C0149086070472A
:101320000C00002000B587B0002014490860282078
:10133000FFF7F2F800BF1248C06C40F004001049FB
:10134000C8640846C06C00F00400019000BF00BFF4
:101350004FF4005002900B4803900020049002A923
:101360000948FEF787FF002202210620FFF706F951
:101370002820FFF7F3F807B000BD00000C000020A4
:1013800000100240000021100008004810B502467D
:1013900010460B4B1B6803F001037BB1084B803BED
:1013A0001B6803F001034BB100E000BF4FF0604346
:1013B0001B68002BF9D04FF06044207000BF10BDB7
:1013C000800E00E0FFF76AF8FFF75BFEFFF7AAFF69
:1013D0000AE0FFF799FF0446214604A0FFF7AAFEA2
:1013E0004FF47A60FEF71EFFF3E70000436F6E7460
:1013F0006162696C697A61646F7320256420656A33
:1014000065732E0A000000000000000000000000CC
:10141000010203040607080900000000010203049A
:10142000A0860100400D0300801A060000350C0064
:1014300040420F0080841E0000093D0000127A0027
:101440000024F40000366E010048E801006CDC0264
:1014500070140008000000201C0000008C1100081F
:101460008C1400081C000020040400009C110008DB
:1014700000093D0000000000000000000000000026
:0C1480000000000010000000010000004F
:040000050800018965
:00000001FF
