:020000040800F2
:10000000180400209D010008350D00082D0D000882
:10001000310D000811020008810E000800000000E8
:10002000000000000000000000000000D50D0008E6
:100030001502000800000000370D0008D70D000869
:10004000B7010008B7010008B7010008B7010008B0
:10005000B7010008B7010008B7010008B7010008A0
:10006000B7010008B7010008B7010008B701000890
:10007000B7010008B7010008B7010008B701000880
:10008000B7010008B7010008B7010008B701000870
:10009000B7010008B7010008B7010008B701000860
:1000A000B7010008B7010008B7010008B701000850
:1000B000B7010008B7010008B7010008B701000840
:1000C000B7010008B7010008B7010008B701000830
:1000D000B7010008B7010008B7010008B701000820
:1000E000B7010008B7010008B7010008B701000810
:1000F000B7010008B7010008B7010008B701000800
:10010000B7010008B7010008B7010008B7010008EF
:10011000B7010008B7010008B7010008B7010008DF
:10012000B7010008B7010008B7010008B7010008CF
:10013000B7010008B7010008B7010008B7010008BF
:10014000B7010008B7010008B7010008B7010008AF
:10015000B7010008B7010008B7010008B70100089F
:10016000B7010008B7010008B7010008B70100088F
:10017000B7010008B7010008B7010008000000003F
:10018000B7010008B7010008DFF80CD000F02EF826
:10019000004800478D1000081804002006488047DA
:1001A00006480047FEE7FEE7FEE7FEE7FEE7FEE75C
:1001B000FEE7FEE7FEE7FEE73D0E000889010008C6
:1001C00030B50B46014600202022012409E021FA27
:1001D00002F59D4205D303FA02F5491B04FA02F524
:1001E0002844151EA2F10102F1DC30BD064C074D7A
:1001F00006E0E06840F0010394E8070098471034F7
:10020000AC42F6D3FFF7C4FF1811000838110008FC
:1002100000BFFEE77047000070B5044600F010F81C
:1002200006462546681C10B104480068054400BF16
:1002300000F006F8801BA842FAD370BD140000201D
:1002400001480068704700000C0000200348006867
:100250000349096808440149086070470C00002000
:100260001400002010B50024032000F077F80F20C0
:1002700000F008F808B1012401E000F02FF8204652
:1002800010BD000070B50446002511480068D8B1C3
:100290000F4800684FF47A71B1FBF0F00D4909681E
:1002A000B1FBF0F6304600F027FD58B9102C07D20C
:1002B00000222146501E00F012F80748046004E0B6
:1002C000012502E0012500E00125284670BD00005F
:1002D00014000020000000201000002070472DE9CD
:1002E000F05F80460D461646002700F0DBFD07460E
:1002F00039462A46334601F00700C0F1070ABAF131
:10030000040F02D94FF0040A01E0C0F1070AD146F8
:1003100000F1040ABAF1070F02D24FF0000A01E01F
:10032000A0F1030AD4464FF0010A0AFA09FAAAF129
:10033000010A0AEA020A0AFA0CFA4FF0010B0BFA58
:100340000CFBABF1010B0BEA030B4AEA0B04214651
:10035000404600F0AFFDBDE8F09F000000BF00F098
:100360000702064B19684FF6FF031940044B0B4375
:1003700043EA0221014B196000BF70470CED00E019
:100380000000FA050248006800F4C06070470000F1
:10039000007000402DE9F04104460D4614B90120DB
:1003A000BDE8F0815548006800F00700A8420ED271
:1003B0005248006820F0070028435049086008466A
:1003C000006800F00700A84201D00120E8E720788B
:1003D00000F00100002840D06068032806D148489A
:1003E000006800F00070D8B90120D9E760680228E1
:1003F00006D14348006800F4003088B90120CFE7F7
:10040000606830B93E48006800F0020040B9012041
:10041000C6E73B48006800F4806008B90120BFE7E8
:100420003748806820F003006168084334498860D9
:10043000FFF706FF064608E0FFF702FF801B41F2C8
:100440008831884201D90320AAE72D48806800F04E
:100450000C006168B0EB810FEED1207800F0020053
:10046000022807D12648806820F0F000A1680843E0
:10047000234988602148006800F00700A8420ED98F
:100480001E48006820F0070028431C490860084601
:10049000006800F00700A84201D0012080E7207822
:1004A00000F00400042807D11548806820F4E060BB
:1004B000E168084312498860207800F008000828A5
:1004C00008D10F48806820F46050216940EAC100DB
:1004D0000B49886000F01CF809498968C1F30311D1
:1004E000084A515C01F01F01C840074908600748ED
:1004F0000068FFF7C7FE0746384651E70020024074
:1005000000100240D0100008000000201000002061
:10051000F0B500230020DFF8D4C0DCF808C00CF0F0
:100520000C01DFF8C8C0DCF80CC00CF0030719B1EF
:100530000C291ED1012F1CD1DFF8B0C0DCF800C09F
:100540000CF0080CBCF1000F06D1DFF8A0C0DCF8FD
:1005500094C0CCF3032305E0DFF890C0DCF800C0C2
:10056000CCF30313DFF888C05CF8233041B9184698
:1005700006E0042901D11F4802E0082900D11E48E5
:100580000C2932D1DFF864C0DCF80CC00CF0030495
:10059000012C09D0022C02D0032C04D101E0154A11
:1005A00004E0154A02E000BF1A4600BF00BFDFF8B2
:1005B0003CC0DCF80CC0CCF3021C0CF10106DFF8E7
:1005C0002CC0DCF80CC0CCF3062C0CFB02FCBCFBF2
:1005D000F6F2DFF818C0DCF80CC0CCF3416C0CF17B
:1005E000010C4FEA4C05B2FBF5F0F0BD00100240E3
:1005F000E81000080024F40000127A002DE9F84306
:10060000044614B90120BDE8F883F948806800F079
:100610000C06F748C06800F00307207800F01000CF
:10062000102877D11EB10C2E76D1012F74D1F0484D
:10063000006800F0020018B1A06908B90120E2E7E3
:10064000EB48216A006800F0080020B1E848006823
:1006500000F0F00005E0E6489430006800F47060B7
:10066000000981421FD9206A00F066FB08B1012011
:10067000C9E700BFDE48006840F00800DC490860B8
:100680000846006820F0F000216A0843D849086055
:1006900000BF0846406820F47F40E16940EA01203D
:1006A000D34948601FE000BFD148006840F008000F
:1006B000CF4908600846006820F0F000216A08432E
:1006C000CB49086000BF0846406820F47F40E169DC
:1006D00040EA0120C64948602EB9206A00F02CFB90
:1006E00008B101208FE7FFF713FFC1498968C1F303
:1006F0000311C04A515C01F01F01C840BE490860A7
:10070000BE480068FFF7BEFD8046B8F1000F4ED02E
:10071000404678E74BE0FFE7A06980B3B448006843
:1007200040F00100B2490860FFF78AFD054606E087
:10073000FFF786FD401B022801D9032063E7AC4880
:10074000006800F002000028F2D000BFA84800684E
:1007500040F00800A64908600846006820F0F00054
:10076000216A0843A249086000BF0846406820F497
:100770007F40E16940EA01209D49486017E0FFE7BA
:100780009B48006820F0010099490860FFF758FD78
:10079000054606E0FFF754FD401B022801D903205F
:1007A00031E79348006800F002000028F2D1207879
:1007B00000F0010000285CD0082E03D00C2E0AD1D6
:1007C000032F08D18A48006800F4003088B36068BD
:1007D00078BB012017E700BF6068B0F5803F06D105
:1007E0008348006840F48030814908601AE06068FE
:1007F000B0F5A02F0BD17E48006840F480207C49E2
:1008000008600846006840F4803008600AE07848D4
:10081000006820F48030764908600846006820F4BB
:100820008020086000BF606890B1FFF709FD0546B1
:1008300007E01EE0FFF704FD401B642801D90320F8
:10084000E1E66B48006800F400300028F2D010E0C8
:10085000FFF7F6FC054606E0FFF7F2FC401B6428B4
:1008600001D90320CFE66248006800F40030002878
:10087000F2D1207800F00200022852D1042E03D0D9
:100880000C2E14D1022F12D15948006800F4806058
:1008900018B1E06808B90120B5E65548406820F075
:1008A000F850217C40EA01605149486039E0E06835
:1008B00000B34F48006840F480704D490860FFF76E
:1008C000BFFC054606E0FFF7BBFC401B022801D930
:1008D000032098E64648006800F480600028F2D0C3
:1008E0004348406820F0F850217C40EA01604049CC
:1008F000486016E03E48006820F480703C4908607B
:10090000FFF79EFC054606E0FFF79AFC401B022815
:1009100001D9032077E63648006800F4806000289B
:10092000F2D1207800F00800082836D16069D0B1F3
:100930002F489430006840F001002D49C1F8940020
:10094000FFF77EFC054606E0FFF77AFC401B022815
:1009500001D9032057E626489430006800F00200D1
:100960000028F1D019E022489430006820F00100FE
:100970001F49C1F89400FFF763FC054606E0FFF746
:100980005FFC401B022801D903203CE61848943044
:10099000006800F002000028F1D1207800F0040087
:1009A000042872D14FF000091148806D00F080508A
:1009B00078B900BF0E48806D40F080500C498865C2
:1009C0000846806D00F08050009000BF00BF4FF0DF
:1009D00001090B48006800F4807000BB08480068FB
:1009E00040F4807006490860FFF72AFC054610E0D5
:1009F00000100240D010000800000020100000206D
:100A000000700040FFF71CFC401B022801D90320A6
:100A1000F9E5B548006800F480700028F2D000BF06
:100A2000A068012808D1B148006840F00100AF4932
:100A30009039C1F8900021E0A06805280FD1AB489B
:100A4000006840F00400A9499039C1F890000846B8
:100A5000D0F8900040F00100C1F890000EE0A348EB
:100A6000006820F00100A1499039C1F890000846C3
:100A7000D0F8900020F00400C1F8900000BFA068FA
:100A8000A0B1FFF7DDFB054609E02EE0FFF7D8FB3C
:100A9000401B41F28831884201D90320B3E59348D5
:100AA000006800F002000028F0D012E0FFF7C8FB59
:100AB000054608E0FFF7C4FB401B41F2883188423D
:100AC00001D903209FE58948006800F00200002852
:100AD000F0D1B9F1010F07D184489038806D20F032
:100AE000805082499039886500BFA06A00287DD077
:100AF000A06A02287BD17D489038C76807F00301BF
:100B0000E06A814228D107F07001206B401EB1EBF2
:100B1000001F21D107F4FE41606BB1EB002F1BD108
:100B200007F40031A06B072801D0012000E000206D
:100B3000814211D107F4C001A08F0122C2EB500005
:100B4000B1EB405F08D107F0C0614020005DC2EB0F
:100B50005000B1EB406F6CD00C2E68D063489038D9
:100B6000006800F0806028B960489038006800F0A4
:100B7000805008B1012046E55C489038006820F0BC
:100B800080705A4990390860FFF75AFB054606E025
:100B9000FFF756FB401B022801D9032033E55348D9
:100BA0009038006800F000700028F1D1D4E90B10F3
:100BB000401E41EA0011606B41EA0021A08F012232
:100BC000C2EB500041EA40514020005DC2EB5000B2
:100BD00041EA4061A06B000941EA40404349903935
:100BE000C968434A11400843404901E066E046E0D5
:100BF0009039C8600846006840F080700860084678
:100C0000C06840F08070C860FFF71AFB054606E038
:100C1000FFF716FB401B022801D90320F3E43348F9
:100C20009038006800F000700028F1D05AE00120F0
:100C3000E9E42E489038006800F00070F0BB2B48C3
:100C40009038006840F08070284990390860084664
:100C5000C06840F08070C860FFF7F2FA054606E011
:100C6000FFF7EEFA401B022801D90320CBE41F480E
:100C70009038006800F000700028F1D032E00C2EAF
:100C80002ED01A489038006820F0807017499039AB
:100C900008600846006800F0205020B90846C06887
:100CA00020F00300C86011489038C068114908401E
:100CB0000E499039C860FFF7C3FA00E012E005461C
:100CC00006E0FFF7BDFA401B022801D903209AE491
:100CD00006489038006800F000700028F1D101E06B
:100CE000012090E400208EE400700040901002404B
:100CF0008C809DF9FFFFEEFE70B504462546681E08
:100D0000B0F1807F01D301200FE0681E4FF0E02199
:100D100048610F214FF0FF3000F0CCF800204FF079
:100D2000E021886107200861002070BD00BFFEE758
:100D300000BFFEE770477047F8B504460026234819
:100D4000806D00F0805018B1FFF71CFB054616E0DF
:100D500000BF1E48806D40F080501C4988650846E1
:100D6000806D00F08050009000BF00BFFFF70AFBCD
:100D700005461648806D20F0805014498865B5F509
:100D8000007F07D1802C10D9A02C01D902260CE0BD
:100D900001260AE0802C01D9032606E0802C01D12F
:100DA000022602E0702C00D101260948006820F0DC
:100DB00007003043064908600846006800F0070055
:100DC000B04201D00120F8BD0020FCE70010024035
:100DD00000200240704710B5FFF738FA10BD00B58B
:100DE00097B010200190012007906020099000200A
:100DF000089002200B9001210C910D9128210E9159
:100E00000221119107210F910421109101A8FFF7F0
:100E1000F5FB08B100BFFEE70F20129003201390EE
:100E20000020149015901690042112A8FFF7B2FA32
:100E300008B100BFFEE717B000BD00000D48006814
:100E400040F001000B4908600020886008460068F7
:100E500009490840074908608814C86008460068C6
:100E600020F48020086000208861C80303490860DE
:100E70007047000000100240FFFFF6EA08ED00E0B6
:100E800000BFFEE70FB4054B10B503A9044A029852
:100E900000F034F810BC5DF814FB00005510000899
:100EA0000400002002480068C0F3022070470000E0
:100EB0000CED00E010B5002804DB0A07130E054A0C
:100EC000135406E00A07140E034A00F00F031B1F19
:100ED000D45410BD00E400E018ED00E002E008C8C2
:100EE000121F08C1002AFAD170477047002001E0A4
:100EF00001C1121F002AFBD1704700002DE9FF4FEE
:100F000089B09B460446002506E025280BD05A46AA
:100F10000B999047641C6D1C20780028F5D10DB00A
:100F20002846BDE8F08F0027B8460122474900E077
:100F3000074314F8013F203B02FA03F00842F7D1BF
:100F400020782E2819D114F8010F47F004072A2819
:100F50000ED06FF02F022078A0F1300109290CD8B3
:100F600008EB880102EB410100EB0108641CF2E789
:100F70000A98641C50F8048B0A9020780028CED080
:100F8000642808D0692806D075281ED05A460B99C7
:100F900090476D1C58E00A994FF00A0901C90A915F
:100FA000002802DA40422D2102E0390504D52B2128
:100FB0008DF82010012103E0F90704D02021F7E784
:100FC0008A4608AE0DE00021FAE70A994FF00A09B7
:100FD00001C90A91F7E74946FFF7F2F8303106F800
:100FE000011D0028F7D1ADEB060000F120097807BC
:100FF00001D44FF00108C84502DDA8EB090000E06C
:1010000000208046002706E008A85A46C05D0B99DC
:1010100090476D1C7F1C5745F6DB04E030205A4694
:101020000B9990476D1CB8F10001A8F10108F5DC9F
:1010300005E016F8010B5A460B9990476D1CB9F163
:101040000001A9F10109F4DC641C65E7092801002D
:101050007047704710B5024610460B4B1B6803F0F3
:1010600001037BB1084B803B1B6803F001034BB1CC
:1010700000E000BF4FF060431B68002BF9D04FF039
:101080006044207000BF10BD800E00E0FFF7EAF85A
:10109000FFF7A5FEFFF7DDFF0AE0FFF7D9FF0446E3
:1010A000214604A0FFF7EEFE4FF47A60FFF7B4F894
:1010B000F3E70000436F6E746162696C697A616482
:1010C0006F7320256420656A65732E0A0000000096
:1010D00000000000000000000102030406070809E8
:1010E0000000000001020304A0860100400D03007F
:1010F000801A060000350C0040420F0080841E005C
:1011000000093D0000127A000024F40000366E0150
:101110000048E801006CDC023811000800000020E3
:1011200018000000DC0E0008501100081800002014
:1011300000040000EC0E000800093D000000000063
:10114000000000000000000010000000010000008E
:040000050800018965
:00000001FF
