:020000040800F2
:10000000F00A00209D0100087D230008B71E0008AB
:100010007923000853030008DB35000800000000C6
:10002000000000000000000000000000C1270008E0
:1000300057030008000000007F230008A7290008DC
:10004000B7010008B7010008B7010008B7010008B0
:10005000B7010008B7010008B7010008B7010008A0
:10006000B7010008B7010008B7010008B701000890
:10007000B7010008B7010008B7010008B701000880
:10008000B7010008B7010008B7010008B701000870
:10009000B7010008B7010008B7010008B701000860
:1000A000B7010008B7010008B7010008B701000850
:1000B000B7010008B7010008B7010008B701000840
:1000C000B7010008B7010008B7010008B701000830
:1000D000B7010008B7010008B7010008B701000820
:1000E000E9050008B7010008B7010008B7010008DA
:1000F000B7010008B7010008B7010008B701000800
:10010000B7010008B7010008B7010008B7010008EF
:10011000B7010008B7010008B7010008B7010008DF
:10012000B7010008B7010008B7010008B7010008CF
:10013000B7010008B7010008B7010008B7010008BF
:10014000B7010008B7010008B7010008B7010008AF
:10015000B7010008B7010008B7010008B70100089F
:10016000B7010008B7010008B7010008B70100088F
:10017000B7010008B7010008B7010008000000003F
:10018000B7010008B7010008DFF80CD000F0A0F8B4
:1001900000480047D56D0008F00A00200648804757
:1001A00006480047FEE7FEE7FEE7FEE7FEE7FEE75C
:1001B000FEE7FEE7FEE7FEE7312A000889010008B6
:1001C0002DE9F05F0546002092469B46884606468C
:1001D000814640241BE0284641464746224600F01F
:1001E00066F853465A46C01A914110D31146184634
:1001F000224600F04DF82D1A67EB01084F462246C3
:100200000120002100F044F817EB00094E41201EA8
:10021000A4F10104DFDC484631462A46434600F09B
:1002200000B830BCBDE8C09F40EA01039B0703D083
:1002300009E008C9121F08C0042AFAD203E011F825
:10024000013B00F8013B521EF9D27047D2B201E0E7
:1002500000F8012B491EFBD270470022F6E710B5CB
:1002600013460A4604461946FFF7F0FF204610BD24
:10027000421C10F8011B0029FBD1801A704703466D
:1002800011F8012B00F8012B002AF9D1184670470C
:10029000202A04DB203A00FA02F100207047914046
:1002A000C2F1200320FA03F3194390407047202A3B
:1002B00004DB203A21FA02F00021704721FA02F310
:1002C000D040C2F120029140084319467047000017
:1002D000064C074D06E0E06840F0010394E8070093
:1002E00098471034AC42F6D3FFF752FF387100083C
:1002F0005871000870B58D1810F8014B14F0030206
:1003000001D110F8012B231106D110F8013B03E0B5
:1003100010F8016B01F8016B521EF9D1ABB110F866
:10032000012B04F00C048A1A0C2C03D0A2EB8412CB
:100330009B1C08E010F8014BA2EB0422F8E712F82E
:10034000014B01F8014B5B1EF9D5A942D4D3002023
:1003500070BD00BFFEE770472DE9F843012601F0AC
:10036000A3FF00F0B1F901F0FBFE00F043F905F046
:100370005BFF63A16C4806F061F96B48FFF778FFFB
:100380001FFA80F8642342466749684801F027FD58
:1003900067A005F0F9FF4FF4FA7000F0BBF90021F7
:1003A000304605F093FF0546634C522084F8600107
:1003B0000020C4F868010121D4F8640105F086FF2B
:1003C0000546022000F0A6F9701C522101EB4007FF
:1003D00000BF2DB900228821204604F043F90546CC
:1003E0006A46C021204603F08BFD054685B13246A2
:1003F00052A14D4806F022F94B48FFF739FF1FFA8A
:1004000080F8642342464849484801F0E8FC6FE020
:10041000BDF800004EF6AA61884255D1F9B22046D7
:1004200003F0B1FD054685B1324649A13E4806F0CC
:1004300005F93D48FFF71CFF1FFA80F86423424688
:1004400039493A4801F0CBFC52E084F860716A46C1
:10045000C021204603F054FD054685B1324645A132
:10046000314806F0EBF83048FFF702FF1FFA80F83A
:10047000642342462C492D4801F0B1FC38E0204667
:1004800003F01AF905461DB90120C4F8680104E01B
:100490004F213FA000F0DAF82AE094F8603140A143
:1004A0002148D4F8642106F0C9F81F48FFF7E0FEA0
:1004B0001FFA80F8642342461B491C4801F08FFC58
:1004C0000120C4F8680112E0BDF80030324641A1B5
:1004D000154806F0B3F81448FFF7CAFE1FFA80F873
:1004E000642342461049114801F079FC012500BF00
:1004F00000BF1DB10021304605F0E8FEBDE8F883DD
:100500004869204920616D2052616E67696E6720DD
:10051000564C35334C3058206D6375204C3437368B
:1005200052470A0D0000000098050020FC0400203E
:10053000484F4C41000000000400002023256420A7
:1005400052656164206964206661696C0A0D00006F
:1005500023256420564C35334C30585F5365744422
:100560006576696365416464726573732066616969
:100570006C0A0D0023256420564C35334C30585FEF
:100580005264576F7264206661696C0A0D00000046
:10059000564C35334C30585F5349474D412E43003C
:1005A000564C35334C3058202564205072657365A5
:1005B0006E7420616E6420696E697469617465642B
:1005C00020746F2066696E616C20307825780A0D82
:1005D0000000000023256420756E6B6E6F776E201F
:1005E00049442025780A0D0010B54FF4005000F062
:1005F00003F910BD00B587B000BF1148C06C40F0D2
:1006000004000F49C8640846C06C00F00400019063
:1006100000BF00BF0B480390002004904FF400502F
:10062000029002A9084800F0F5F8002202212820D3
:1006300000F02BFC282000F018FC07B000BD0000E3
:1006400000100240000011100008004870B59AB078
:1006500005460C466CB9002609E020214FF0904079
:1006600000F0E2F9322000F055F8701CC6B20A2EF4
:10067000F3DB23462A460BA101A805F0DFFF01A802
:10068000FFF7F6FD86B26423324601A90D4801F05A
:10069000A6FB012220214FF0904000F0CCF91AB0C7
:1006A00070BD00004552524F5220696E2066696C41
:1006B00065202573204572726F723A2025640A0DF9
:1006C00000000000FC04002000B587B000BF104807
:1006D000C06C40F001000E49C8640846C06C00F0D0
:1006E0000100019000BF00BF002240214FF0904068
:1006F00000F0A1F940200290012003900020049016
:10070000059002A94FF0904000F084F807B000BDBA
:100710000010024070B5044600F092F906462546E6
:10072000681C10B104480068054400BF00F088F957
:10073000801BA842FAD370BDA801002010B5044662
:10074000B4F5005F38D11E480078032802DD002090
:100750001B4908701A480078401C1949087008465F
:10076000007830B1012809D002280CD0032814D118
:100770000EE014A1154805F061FF13E014A1134821
:1007800005F05CFF0EE014A1104805F057FF09E0EA
:1007900013A10E4805F052FF04E013A10B4805F029
:1007A0004DFF00BF00BF094805F0EEFD002000E04E
:1007B000401C0F498842FBD30E48046010BD000066
:1007C00098010020494E495400000000980500207F
:1007D0004341533100000000434153320000000008
:1007E00043415333000000004641494C00000000E3
:1007F000809698001404014010B50446044800682F
:10080000204020B1024804602046FFF797FF10BD4A
:100810001404014078B503460022E5E00126964025
:100820000D6805EA0604002C7DD04D68012D08D026
:100830004D68022D05D04D68112D02D04D68122D46
:1008400013D1986856000325B540A8435600CD68DB
:10085000B54028439860586801259540A8430D7914
:10086000C5F300159540284358600D7905F0030540
:10087000032D09D1D86A01259540A8430D79C5F308
:10088000C00595402843D862D86856000325B54076
:10089000A84356008D68B5402843D8604D68022DA6
:1008A00002D04D68122D13D1D60803F1200555F85A
:1008B00026005507EE0E0F25B540A8435607F60E45
:1008C0000D69B5402843D60803F1200545F82600F8
:1008D000186856000325B540A8430D7905F00305B7
:1008E0005600B540284318604D6805F08055B5F1B5
:1008F000805F78D100BF3F4D2D6E45F001053D4E24
:10090000356635462D6E05F00105009500BF00BF28
:100910004FEAB635960855F8260095072E0F0F2595
:10092000B540A84300E05EE0B3F1904F01D100254F
:100930001EE0314DAB4201D1012519E02F4DAB42F4
:1009400001D1022514E02E4DAB4201D103250FE069
:100950002C4DAB4201D104250AE02B4DAB4201D115
:10096000052505E0294DAB4201D1062500E007250C
:100970009607360FB5402843254D960845F82600C2
:10098000244D2868A0434D6805F48035B5F5803FB7
:1009900000D120431F4D28602D1D2868A0434D68BD
:1009A00005F40035B5F5003F00D12043194D2D1D4C
:1009B00028602D1D2868A0434D6805F48015B5F505
:1009C000801F00D12043134D083528602D1D286855
:1009D000A0434D6805F40015B5F5001F00D1204374
:1009E0000C4D0C352860521C0D68D540002D7FF44D
:1009F00015AF78BD00100240000400480008004810
:100A0000000C00480010004800140048001800487E
:100A10000800014000040140024613690B400BB17D
:100A2000012000E00020704742690A400AB181625B
:100A300000E0816170470AB1816100E08162704726
:100A40000148006870470000A001002010B504466E
:100A50000CB9012010BD94F8410028B9002084F899
:100A60004000204600F0B6F9242084F841002068B8
:100A7000006820F0010021680860606820F0706064
:100A8000216808612068806820F40040216888603F
:100A9000E068012805D1A06840F400402168886022
:100AA00004E0A06840F4044021688860E0680228FF
:100AB00002D18002216848602068406813490843D9
:100AC000216848602068C06820F400402168C86040
:100AD000D4E904010843A16940EA01202168C86003
:100AE000D4E907010843216808602068006840F0E5
:100AF00001002168086000206064202084F8410023
:100B00000020206384F8420000BFA3E700800002B9
:100B10002DE9F8430446894616461F46DDF8208035
:100B200094F84100202873D100BF94F840000128B8
:100B300002D10220BDE8F883012084F8400000BF04
:100B4000FFF77EFF054619230122D10320460095B9
:100B500001F02EFA08B10120ECE7222084F84100D0
:100B6000102084F84200002060646662678560633C
:100B7000608DFF280CD9FF2020853C48009094F818
:100B800028204FF080734946204601F0F7F90BE02A
:100B9000608D20853548009094F828204FF0007330
:100BA0004946204601F0EAF93FE02A464146204600
:100BB00001F02EFA08B10120BCE72068406A616AA2
:100BC0000870606A401C6062208D401E2085608D28
:100BD000401E6085608D40B3208D30BB43460022AF
:100BE00080212046009501F0E3F908B10120A1E73A
:100BF000608DFF280DD9FF2020850020009094F8FB
:100C000028204FF080734946204601F0B7F90CE0E8
:100C10002AE0608D20850020009094F828204FF075
:100C200000734946204601F0A9F9608D0028BCD127
:100C30002A464146204601F03BFA08B1012079E7F7
:100C400020202168C861206840680949084021685F
:100C50004860202084F84100002084F8420000BF52
:100C600084F8400000BF65E7022063E700240080AD
:100C700000E800FE2DE9F8430446894616461F4663
:100C8000DDF8208094F84100202871D100BF94F84D
:100C90004000012802D10220BDE8F883012084F839
:100CA000400000BFFFF7CCFE054619230122D10307
:100CB0002046009501F07CF908B10120ECE72120E5
:100CC00084F84100102084F84200002060646662CD
:100CD00067856063608DFF280BD9FF2020853B4826
:100CE000009094F82820C3024946204601F046F9B6
:100CF0000AE0608D20853548009094F82820030391
:100D00004946204601F03AF93FE02A46414620464E
:100D100001F0F9F908B10120BEE7606A00782168A6
:100D20008862606A401C6062608D401E6085208D14
:100D3000401E2085608D40B3208D30BB434600228D
:100D400080212046009501F033F908B10120A3E786
:100D5000608DFF280DD9FF2020850020009094F899
:100D600028204FF080734946204601F007F90CE037
:100D70002AE0608D20850020009094F828204FF014
:100D800000734946204601F0F9F8608D0028BCD177
:100D90002A464146204601F08BF908B101207BE745
:100DA00020202168C86120684068094908402168FE
:100DB0004860202084F84100002084F8420000BFF1
:100DC00084F8400000BF67E7022065E7002000804C
:100DD00000E800FE70470000034800680349096806
:100DE0000844014908607047A0010020A8010020C4
:100DF00010B50024032000F089F80F2000F008F857
:100E000008B1012401E000F02FF8204610BD0000D9
:100E100070B50446002511480068D8B10F48006835
:100E20004FF47A71B1FBF0F00D490968B1FBF0F6AF
:100E3000304600F063FD58B9102C07D2002221463D
:100E4000501E00F022F80748046004E0012502E08B
:100E5000012500E00125284670BD0000A801002002
:100E600000000020A4010020704701460846002829
:100E700009DB00F01F0301229A4043099B0003F1A4
:100E8000E023C3F8002100BF70472DE9F05F8046E2
:100E90000D461646002705F0E5FB074639462A466B
:100EA000334601F00700C0F1070ABAF1040F02D976
:100EB0004FF0040A01E0C0F1070AD14600F1040A2C
:100EC000BAF1070F02D24FF0000A01E0A0F1030AC5
:100ED000D4464FF0010A0AFA09FAAAF1010A0AEA0D
:100EE000020A0AFA0CFA4FF0010B0BFA0CFBABF1F9
:100EF000010B0BEA030B4AEA0B042146404605F0BE
:100F0000B9FB00F000B830BCBDE8C09F00BF00F0E6
:100F10000702064B19684FF6FF031940044B0B43B9
:100F200043EA0221014B196000BF70470CED00E05D
:100F30000000FA050248006800F4C0607047000035
:100F4000007000402DE9F04104460D4614B901201F
:100F5000BDE8F0815548006800F00700A8420ED2B5
:100F60005248006820F007002843504908600846AE
:100F7000006800F00700A84201D00120E8E72078CF
:100F800000F00100002840D06068032806D14848DE
:100F9000006800F00070D8B90120D9E76068022825
:100FA00006D14348006800F4003088B90120CFE73B
:100FB000606830B93E48006800F0020040B9012086
:100FC000C6E73B48006800F4806008B90120BFE72D
:100FD0003748806820F0030061680843344988601E
:100FE000FFF72EFD064608E0FFF72AFD801B41F2C1
:100FF0008831884201D90320AAE72D48806800F093
:101000000C006168B0EB810FEED1207800F0020097
:10101000022807D12648806820F0F000A168084324
:10102000234988602148006800F00700A8420ED9D3
:101030001E48006820F0070028431C490860084645
:10104000006800F00700A84201D0012080E7207866
:1010500000F00400042807D11548806820F4E060FF
:10106000E168084312498860207800F008000828E9
:1010700008D10F48806820F46050216940EAC1001F
:101080000B49886000F046F809498968C1F30311EB
:10109000084A515C01F01F01C84007490860074831
:1010A0000068FFF7B5FE0746384651E700200240CA
:1010B00000100240F06F000800000020A401002092
:1010C00001480068704700000000002000B5FFF7ED
:1010D000F7FF05498968C1F30221044A515C01F018
:1010E0001F01C84000BD0000001002400070000851
:1010F00000B5FFF7E5FF05498968C1F3C221044A3D
:10110000515C01F01F01C84000BD0000001002400A
:1011100000700008F0B500230020DFF8D4C0DCF830
:1011200008C00CF00C01DFF8C8C0DCF80CC00CF0F3
:10113000030719B10C291ED1012F1CD1DFF8B0C053
:10114000DCF800C00CF0080CBCF1000F06D1DFF891
:10115000A0C0DCF894C0CCF3032305E0DFF890C016
:10116000DCF800C0CCF30313DFF888C05CF8233050
:1011700041B9184606E0042901D11F4802E00829B8
:1011800000D11E480C2932D1DFF864C0DCF80CC055
:101190000CF00304012C09D0022C02D0032C04D142
:1011A00001E0154A04E0154A02E000BF1A4600BFFC
:1011B00000BFDFF83CC0DCF80CC0CCF3021C0CF123
:1011C0000106DFF82CC0DCF80CC0CCF3062C0CFBBD
:1011D00002FCBCFBF6F2DFF818C0DCF80CC0CCF364
:1011E000416C0CF1010C4FEA4C05B2FBF5F0F0BD7F
:1011F00000100240087000080024F40000127A0079
:101200002DE9F843044614B90120BDE8F883F948F4
:10121000806800F00C06F748C06800F003072078EB
:1012200000F01000102877D11EB10C2E76D1012FBE
:1012300074D1F048006800F0020018B1A06908B944
:101240000120E2E7EB48216A006800F0080020B1C5
:10125000E848006800F0F00005E0E64894300068D7
:1012600000F47060000981421FD9206A01F088F8FB
:1012700008B10120C9E700BFDE48006840F008005F
:10128000DC4908600846006820F0F000216A084345
:10129000D849086000BF0846406820F47F40E169F3
:1012A00040EA0120D34948601FE000BFD1480068F0
:1012B00040F00800CF4908600846006820F0F000C0
:1012C000216A0843CB49086000BF0846406820F403
:1012D0007F40E16940EA0120C64948602EB9206A92
:1012E00001F04EF808B101208FE7FFF713FFC14965
:1012F0008968C1F30311C04A515C01F01F01C84065
:10130000BE490860BE480068FFF782FD8046B8F11C
:10131000000F4ED0404678E74BE0FFE7A06980B36E
:10132000B448006840F00100B2490860FFF788FB4C
:10133000054606E0FFF784FB401B022801D9032085
:1013400063E7AC48006800F002000028F2D000BF5C
:10135000A848006840F00800A649086008460068F0
:1013600020F0F000216A0843A249086000BF084647
:10137000406820F47F40E16940EA01209D494860CF
:1013800017E0FFE79B48006820F0010099490860DA
:10139000FFF756FB054606E0FFF752FB401B02280D
:1013A00001D9032031E79348006800F002000028CB
:1013B000F2D1207800F0010000285CD0082E03D084
:1013C0000C2E0AD1032F08D18A48006800F400309F
:1013D00088B3606878BB012017E700BF6068B0F58C
:1013E000803F06D18348006840F48030814908601E
:1013F0001AE06068B0F5A02F0BD17E48006840F479
:1014000080207C4908600846006840F4803008600D
:101410000AE07848006820F4803076490860084681
:10142000006820F48020086000BF606890B1FFF77A
:1014300007FB054607E01EE0FFF702FB401B6428A0
:1014400001D90320E1E66B48006800F40030002871
:10145000F2D010E0FFF7F4FA054606E0FFF7F0FAE5
:10146000401B642801D90320CFE66248006800F4DD
:1014700000300028F2D1207800F00200022852D17A
:10148000042E03D00C2E14D1022F12D1594800681B
:1014900000F4806018B1E06808B90120B5E655484D
:1014A000406820F0F850217C40EA016051494860D2
:1014B00039E0E06800B34F48006840F480704D495F
:1014C0000860FFF7BDFA054606E0FFF7B9FA401BD2
:1014D000022801D9032098E64648006800F480609D
:1014E0000028F2D04348406820F0F850217C40EAC0
:1014F00001604049486016E03E48006820F4807072
:101500003C490860FFF79CFA054606E0FFF798FAA9
:10151000401B022801D9032077E63648006800F412
:1015200080600028F2D1207800F00800082836D129
:101530006069D0B12F489430006840F001002D4917
:10154000C1F89400FFF77CFA054606E0FFF778FA49
:10155000401B022801D9032057E626489430006832
:1015600000F002000028F1D019E022489430006811
:1015700020F001001F49C1F89400FFF761FA054609
:1015800006E0FFF75DFA401B022801D903203CE684
:1015900018489430006800F002000028F1D120784B
:1015A00000F00400042872D14FF000091148806D4A
:1015B00000F0805078B900BF0E48806D40F0805038
:1015C0000C4988650846806D00F08050009000BF8F
:1015D00000BF4FF001090B48006800F4807000BBA9
:1015E0000848006840F4807006490860FFF728FA50
:1015F000054610E000100240F06F000800000020D7
:10160000A401002000700040FFF71AFA401B0228D6
:1016100001D90320F9E5B548006800F4807000287E
:10162000F2D000BFA068012808D1B148006840F09E
:101630000100AF499039C1F8900021E0A068052869
:101640000FD1AB48006840F00400A9499039C1F8B7
:1016500090000846D0F8900040F00100C1F89000DA
:101660000EE0A348006820F00100A1499039C1F8BC
:1016700090000846D0F8900020F00400C1F89000D7
:1016800000BFA068A0B1FFF7DBF9054609E02EE036
:10169000FFF7D6F9401B41F28831884201D9032077
:1016A000B3E59348006800F002000028F0D012E093
:1016B000FFF7C6F9054608E0FFF7C2F9401B41F203
:1016C0008831884201D903209FE58948006800F0ED
:1016D00002000028F0D1B9F1010F07D184489038F9
:1016E000806D20F0805082499039886500BFA06AE3
:1016F00000287DD0A06A02287BD17D489038C76839
:1017000007F00301E06A814228D107F07001206BE5
:10171000401EB1EB001F21D107F4FE41606BB1EB1D
:10172000002F1BD107F40031A06B072801D0012046
:1017300000E00020814211D107F4C001A08F0122F6
:10174000C2EB5000B1EB405F08D107F0C061402010
:10175000005DC2EB5000B1EB406F6CD00C2E68D036
:1017600063489038006800F0806028B9604890387D
:10177000006800F0805008B1012046E55C489038D0
:10178000006820F080705A4990390860FFF758F9D6
:10179000054606E0FFF754F9401B022801D9032053
:1017A00033E553489038006800F000700028F1D10C
:1017B000D4E90B10401E41EA0011606B41EA0021A0
:1017C000A08F0122C2EB500041EA40514020005D51
:1017D000C2EB500041EA4061A06B000941EA404081
:1017E00043499039C968434A11400843404901E0E0
:1017F00066E046E09039C8600846006840F08070B6
:1018000008600846C06840F08070C860FFF718F9AB
:10181000054606E0FFF714F9401B022801D9032012
:10182000F3E433489038006800F000700028F1D0ED
:101830005AE00120E9E42E489038006800F000707A
:10184000F0BB2B489038006840F0807028499039F0
:1018500008600846C06840F08070C860FFF7F0F884
:10186000054606E0FFF7ECF8401B022801D90320EB
:10187000CBE41F489038006800F000700028F1D0D9
:1018800032E00C2E2ED01A489038006820F080707C
:101890001749903908600846006800F0205020B9C8
:1018A0000846C06820F00300C86011489038C0683E
:1018B000114908400E499039C860FFF7C1F800E0AF
:1018C00012E0054606E0FFF7BBF8401B022801D9ED
:1018D00003209AE406489038006800F00070002861
:1018E000F1D101E0012090E400208EE4007000407E
:1018F000901002408C809DF9FFFFEEFE70B504460B
:101900002546681EB0F1807F01D301200FE0681EDC
:101910004FF0E02148610F214FF0FF3004F0AAFEA4
:1019200000204FF0E021886107200861002070BD91
:1019300030B502460B4600BF92F83C00012801D1A9
:10194000022030BD012082F83C0000BF022082F856
:101950003D0010684168106884681F4D1068A842F7
:1019600003D01E4D1068A84203D121F470015868BD
:10197000014321F070011868014310684160164D61
:101980001068A84217D01068B0F1804F13D0144DE2
:101990001068A8420FD0134D1068A8420BD0124D0A
:1019A0001068A84207D00D4D1068A84203D00F4D13
:1019B0001068A84205D124F0800498680443106898
:1019C0008460012082F83D0000BF002082F83C00C6
:1019D00000BF00BFB5E70000002C0140003401400B
:1019E0000004004000080040000C0040004001409E
:1019F00010B504460CB9012010BD94F83D0028B97B
:101A0000002084F83C00204600F00CF8022084F806
:101A10003D00211D206801F033F8012084F83D00CD
:101A20000020E9E7704700002DE9F04104460D462B
:101A300000BF94F83C00012802D10220BDE8F081EB
:101A4000012084F83C0000BF022084F83D0020689B
:101A500086683748064026F47F46206886602868F6
:101A6000502833D00CDC202850D004DC00284BD088
:101A7000102851D149E0302849D040284CD139E0D4
:101A800060282DD0702807D0B0F5805F03D0B0F566
:101A9000005F41D10DE040E0D5E902136A6820689B
:101AA00001F065F82068866846F077062068866051
:101AB00033E0D5E902136A68206801F058F820681D
:101AC000806840F480402168886026E0EA686968A0
:101AD000206801F015FA5021206801F053F81CE04D
:101AE000EA686968206801F01EFA6021206801F048
:101AF00049F812E0EA686968206801F001FA4021BB
:101B0000206801F03FF808E000BF00BF00BF29686F
:101B1000206801F037F800E000BF00BF012084F822
:101B20003D0000BF002084F83C0000BF00BF85E7F7
:101B300088FFFEFF70B504460D46164600BF94F8B8
:101B40003C00012801D1022070BD012084F83C0036
:101B500000BF022084F83D000C2E51D005DC4EB1B0
:101B6000042E1ED0082E7AD133E0102E60D0142E11
:101B7000F9D175E02946206801F00EF820688069E7
:101B800040F00800216888612068806920F0040026
:101B90002168886120688069296908432168886113
:101BA00077E02946206801F04DF82068806940F40C
:101BB0000060216888612068806920F48060216865
:101BC000886120688069296940EA0120216888616C
:101BD0005FE02946206801F08FF82068C06940F076
:101BE00008002168C8612068C06920F004002168ED
:101BF000C8612068C069296908432168C86148E054
:101C00002946206801F0D2F82068C06940F40060DD
:101C10002168C8612068C06920F480602168C861BB
:101C20002068C069296940EA01202168C86130E064
:101C30002946206801F0F4F82068406D40F0080063
:101C4000216848652068406D20F0040021684865DF
:101C50002068406D296908432168486519E017E04C
:101C60002946206801F014F92068406D40F40060B6
:101C7000216848652068406D20F4806021684865CF
:101C80002068406D296940EA01202168486500E02C
:101C900000BF00BF012084F83D0000BF002084F891
:101CA0003C0000BF00BF4FE710B504460CB901204F
:101CB00010BD94F83D0028B9002084F83C0020466F
:101CC00000F00CF8022084F83D00211D206800F08F
:101CD000D7FE012084F83D000020E9E770470000AE
:101CE00070B504460E4601223146206800F02EFFF2
:101CF0001749206888420FD01649206888420BD0C7
:101D000015492068884207D014492068884203D0CA
:101D100013492068884201D1012000E0002028B149
:101D20002068406C40F40040216848642068806866
:101D30000C4900EA0105062D08D0B5F5803F05D015
:101D40002068006840F0010021680860002070BD34
:101D5000002C01400034014000400140004401409B
:101D6000004801400700010010B504460CB90120ED
:101D700010BDA06900B100E000BF606F28B900206D
:101D800084F87000204600F029F82420606720685D
:101D9000006820F0010021680860204601F08AF9FF
:101DA000012800D1E4E7606A10B1204601F0CFF8C5
:101DB0002068406820F4904021684860206880686E
:101DC00020F02A00216888602068006840F0010047
:101DD00021680860204601F036F9C9E770472DE90F
:101DE000F84F04460E4617469946606F20285DD18D
:101DF00006B117B9012000F05BB800BF94F870007D
:101E0000012801D10220F6E7012084F8700000BF0C
:101E10000020E06721206067FEF712FE8246A4F8EA
:101E20005070A4F85270A068B0F5805F04D12069AA
:101E300010B90025B04602E035464FF0000800BF5B
:101E4000002084F8700000BF1DE05346002280216E
:101E50002046CDF8009001F066FB08B10320CAE7E8
:101E600045B9B8F80000C0F308002168088508F1FA
:101E7000020803E02878216808856D1CB4F8520038
:101E8000401EA4F85200B4F852000028DDD1534699
:101E9000002240212046CDF8009001F044FB08B11B
:101EA0000320A8E7202060670020A4E70220A2E723
:101EB00018BCBDE8E08F00BFFEE701688969C1F387
:101EC000400111B10021026891620168896901F045
:101ED000010129B90168896941F001010268916134
:101EE0007047000070B504460D46164620688069AC
:101EF000C0F3001000283DD017E0681CA8B1FEF721
:101F00009FFD801BA84200D87DB9606C40F0200086
:101F10006064202084F84100002084F8420000BF63
:101F200084F8400000BF012070BD20688069C0F3C4
:101F300040100028E1D010202168C86120202168CD
:101F4000C8612046FFF7B9FF206840680A49084089
:101F500021684860606C40F004006064202084F8D0
:101F60004100002084F8420000BF84F8400000BF18
:101F70000120D9E70020D7E700E800FEF0B5059C76
:101F800005686D684FF4806606EA545666F0FC26D4
:101F900046F4C046B543C1F309064FF47F0707EA8C
:101FA00002473E431E432643354306687560F0BD35
:101FB0002DE9F04104460E4617461D46DDF818800F
:101FC00019E0681CB8B1FEF73BFDA0EB0800A84281
:101FD00000D885B9606C40F020006064202084F84F
:101FE0004100002084F8420000BF84F8400000BF98
:101FF0000120BDE8F081206880693040B04201D105
:10200000012000E00020B842DBD00020F1E7000012
:1020100070B504460D46164640E032462946204635
:10202000FFF760FF08B1012070BD20688069C0F330
:102030004010F8B120688069C0F3800018B1208D8D
:1020400008B10020F0E720202168C86120684068BE
:10205000164908402168486000206064202084F808
:102060004100002084F8420000BF84F8400000BF17
:102070000120D9E7FEF7E4FC801BA84200D86DB927
:10208000606C40F020006064202084F8410000BFB4
:10209000002084F8400000BF0120C5E72068806967
:1020A000C0F380000028B8D00020BDE700E800FEA3
:1020B00070B504460D4616461DE0324629462046B8
:1020C000FFF710FF08B1012070BDFEF7B9FC801BBF
:1020D000A84200D87DB9606C40F0200060642020E8
:1020E00084F84100002084F8420000BF84F84000DA
:1020F00000BF0120E8E720688069C0F34010002895
:10210000DBD00020E0E770B504460D4616461FE020
:10211000324629462046FFF7E5FE08B1012070BD92
:10212000681CA8B1FEF78CFC801BA84200D87DB9C2
:10213000606C40F020006064202084F841000020A2
:1021400084F8420000BF84F8400000BF0120E6E7A9
:1021500020688069C0F340000028D9D00020DEE765
:1021600000B595B000BF4548806D40F0010043497F
:1021700088650846806D00F00100019000BF00BF37
:10218000002011901290139014900E900F901090C8
:102190001C2107A8FEF761F84FF08040384908601D
:1021A000384800684FF47A71B0FBF1F0401E3449B2
:1021B000486000213248816040F2E731C16000216F
:1021C00001618161FFF714FC18B101212EA0FEF717
:1021D0003DFA4FF48050119011A92948FFF724FCD3
:1021E00018B1022128A0FEF731FA2548FFF75CFD5F
:1021F00018B1032124A0FEF729FA00200E901090B8
:102200000EA91F48FFF794FB18B104211EA0FEF78A
:102210001DFA602007904FF4FA60089002200990A0
:1022200000200B90002207A91548FFF783FC18B186
:10223000052115A0FEF70AFA142102A8FEF70DF8F1
:1022400000BF0E48C06C40F001000C49C86408464D
:10225000C06C00F00100019000BF00BF2020029080
:10226000022003900020049005900120069002A90E
:102270004FF09040FEF7CEFA15B000BD00100240BE
:10228000BC04002000000020766C35336C30785F91
:102290007369676D612E63202D3E2052616E676504
:1022A00044656D6F0000000000B587B0142102A8DE
:1022B000FDF7D3FF00BF2348806D40F40030214973
:1022C00088650846806D00F40030019000BF00BFB3
:1022D00000BF0846C06C40F00100C8640846C06CEE
:1022E00000F00100019000BF00BF0C20029002200E
:1022F000039000200490032005900720069002A977
:102300004FF09040FEF786FA0F48104908604FF4EE
:10231000E130486000210D488160C16001610C21FD
:10232000416100218161C161016200200749486269
:102330000846FFF719FD18B1012105A0FEF786F93F
:1023400007B000BD0010024000440040FC04002023
:10235000766C35336C30785F7369676D612E6320FE
:102360002D3E204D595F5553415254325F554152D5
:10237000545F496E6974000000BFFEE77047704704
:10238000F8B5044600262348806D00F0805018B14F
:10239000FEF7D0FD054616E000BF1E48806D40F0F8
:1023A00080501C4988650846806D00F08050009080
:1023B00000BF00BFFEF7BEFD05461648806D20F049
:1023C000805014498865B5F5007F07D1802C10D95D
:1023D000A02C01D902260CE001260AE0802C01D9AC
:1023E000032606E0802C01D1022602E0702C00D1E9
:1023F00001260948006820F00700304306490860BC
:102400000846006800F00700B04201D00120F8BD86
:102410000020FCE700100240002002407CB500F0E4
:10242000F5F9A149A14801F001FD04461CB10121C3
:102430009FA0FEF70BF9A648007830B101281AD00A
:10244000022869D003287DD1C9E0A2A1A84804F0E0
:10245000F5F8A748FDF70CFF85B264232A46A44986
:10246000A448FFF7BCFCA4A1684604F0E7F868465E
:1024700003F08AFF15E1002C42D18B48008940F619
:102480009801884211DD89489DA1D0F864219848BF
:1024900004F0D4F89648FDF7EBFE85B264232A4693
:1024A00093499448FFF79BFC12E07F4803897F48DB
:1024B0009AA1D0F864218E4804F0C0F88C48FDF74A
:1024C000D7FE85B264232A4689498A48FFF787FCEC
:1024D0007549764800F076F97348007E58B973481C
:1024E000D0F878010A2190FBF1F52A4697A16846B9
:1024F00004F0A4F808E097A1684604F09FF803E010
:1025000001216BA0FEF7A2F8684603F03DFF934857
:102510000068FEF7FFF8C4E0002C58D1624800893B
:10252000C82824DA8EA1724804F088F87048FDF7B4
:102530009FFE85B264232A466D496E48FFF74FFC23
:10254000402100E0A1E04FF09040FEF76DFA4021FD
:102550004FF09040FEF760FA20B187A1684604F082
:102560006DF82FE086A1684604F068F82AE04E482E
:10257000008940F69801884211DD4C4860A1D0F8EE
:1025800064215B4804F05AF85948FDF771FE85B2A2
:1025900064232A4656495748FFF721FC12E0424877
:1025A000038942485DA1D0F86421514804F046F8FF
:1025B0004F48FDF75DFE85B264232A464C494D48DD
:1025C000FFF70DFC3849394800F0FCF803E0022120
:1025D00037A0FEF73BF8684603F0D6FE61E0002125
:1025E0006948FFF77DFB002C47D12F48008940F652
:1025F0009801884211DD2D4841A1D0F864213C4862
:1026000004F01CF83A48FDF733FE85B264232A46ED
:1026100037493848FFF7E3FB12E023480389234892
:102620005AA1D0F86421324804F008F83048FDF788
:102630001FFE85B264232A462D492E48FFF7CFFBA3
:1026400019491A4800F0BEF81748007E80B91748AB
:10265000D0F878010A2190FBF1F52A463BA16846A3
:1026600003F0ECFF1048008947490968486308E017
:1026700038A1684603F0E2FF03E001210CA0FDF75A
:10268000E5FF684603F080FE0BE0042108A0FDF79B
:10269000DDFF49A1684603F0D1FF684603F074FEF0
:1026A00000BF00BF7CBD00007C05002004000020AE
:1026B000766C35336C30785F7369676D612E63209B
:1026C0002D3E2052616E676544656D6F000000000D
:1026D000980100205761697420746F2070726573CF
:1026E0007320627574746F6E2E2E0A0D0000000048
:1026F00098050020FC04002053544F5000000000B7
:102700004465766963653A2025643B204F757420E3
:102710006F662072616E67650A0D00004465766918
:1027200063653A2025643B204D6F64653A206D65F2
:1027300061737572696E673B2044697374616E637F
:10274000653A202564206D6D0A0D00002533646311
:1027500000000000204F5554000000009C010020A4
:102760004465766963653A20546F6F676C65206FC6
:1027700075747075740A0D00204F4E200000000023
:10278000204F464600000000BC04002044657669E6
:1027900063653A2025643B204D6F64653A205057AD
:1027A0004D3B2044697374616E63653A2025642053
:1027B0006D6D0A0D000000004641494C000000000C
:1027C0007047000010B50A7ECAB9D0F87C2132B13A
:1027D0000022C0F87C210A89C0F8782112E00A4A58
:1027E0001268C2F580720B895A43074CD0F87831D1
:1027F000246803FB04221212C0F8782102E00122AF
:10280000C0F87C2110BD0000940100202DE9FF4795
:102810004FF480454FF4901648F2E8074FF00E0849
:102820004FF00A094B48D0F8680100287DD049488C
:1028300001F028FE04461CB1012147A0FDF706FF68
:1028400002AA03A9434801F0B4FA04461CB10221CC
:1028500041A0FDF7FBFE6A4601A93E4801F0B9FA26
:1028600004461CB103213CA0FDF7F0FE00213948CD
:1028700001F09BFB04461CB1042137A0FDF7E6FEE6
:1028800001220021334801F05CFC04461CB1052103
:1028900031A0FDF7DBFE012211462E4801F051FC6C
:1028A00004461CB105212CA0FDF7D0FE41F6991578
:1028B0004FF4701648F2E8074FF012084FF00E0977
:1028C0002A460121234801F0A0FC04461CB1062140
:1028D0002AA0FDF7BBFE324600211E4801F095FC00
:1028E00004461CB107211CA0FDF7B0FE394619486B
:1028F00001F0C6FC04461CB1082117A0FDF7A6FE96
:1029000042460021134801F028FD04461CB109216C
:1029100011A0FDF79BFE4A4601210E4801F01DFD66
:1029200004462CB10A210CA000E010E0FDF78EFE59
:1029300002AA03A9074801F03CFA04461CB10B2186
:1029400005A0FDF783FE01200249C1F87C0100F0DB
:1029500027B8000004000020766C35336C30785FB7
:102960007369676D612E63202D3E20536574757009
:1029700053696E676C6553686F740000766C35330D
:102980006C30785F7369676D612E63202D3E5365EF
:1029900074757053696E676C6553686F74000000DE
:1029A0000FBCBDE8F08710B5FEF716FA10BD0000A9
:1029B00000B597B010200190012007906020099089
:1029C0000020089002200B9001210C910D912821EC
:1029D0000E910221119107210F910421109101A85C
:1029E000FEF70EFC18B101210AA0FDF72FFE0F2003
:1029F000129003201390002014901590169004213B
:102A000012A8FEF79FFA18B1022102A0FDF71EFEE0
:102A100017B000BD6D61696E2E632D3E53797374DE
:102A2000656D436C6F636B5F436F6E666967000033
:102A30001048006840F470000E4908600E480068B5
:102A400040F001000C4908600020886008460068DA
:102A50000A490840084908608814C86008460068A8
:102A600020F48020086000208861C8030149803973
:102A70000860704788ED00E000100240FFFFF6EAB2
:102A800010B50268294B98420ED0B0F1804F0BD0A0
:102A9000274B984208D0274B984205D0264B9842A6
:102AA00002D0264B984203D122F070024B681A43A1
:102AB0001E4B984217D0B0F1804F14D01C4B984257
:102AC00011D01C4B98420ED01B4B98420BD01B4B85
:102AD000984208D01A4B984205D01A4B984202D01F
:102AE000194B984203D122F44072CB681A4322F06A
:102AF00080034C6943EA040202608B68C3620B687E
:102B000083620A4B98420BD00C4B984208D00C4B76
:102B1000984205D00B4B984202D00B4B984201D102
:102B20000B6903630123436110BD0000002C0140C9
:102B30000004004000080040000C00400034014048
:102B400000400140004401400048014030B501F020
:102B50001F05012404FA05F3046A9C430462046A15
:102B600001F01F0502FA05F52C43046230BD30B5B3
:102B70000C46816821F47F4142EA0325254329431D
:102B8000816030BD0A46816821F0700142F0070380
:102B9000194381607047000030B5056A25F00105D2
:102BA0000562026A43688469204D2C4024F00304C6
:102BB0000D682C4322F002028D682A431C4DA84266
:102BC00000D10FE01B4DA84200D10BE01A4DA842E6
:102BD00000D107E0194DA84200D103E0184DA842EA
:102BE00006D100BF22F00802CD682A4322F0040279
:102BF0000F4DA8420BD00F4DA84208D00E4DA84251
:102C000005D00E4DA84202D00D4DA84207D123F4A5
:102C1000807323F400734D692B438D692B4343600C
:102C200084614D684563026230BD00008FFFFEFF86
:102C3000002C0140003401400040014000440140AC
:102C40000048014030B5056A25F010050562026AAA
:102C500043688469224D2C4024F440740D6844EA92
:102C6000052422F020028D6842EA05121D4DA8427B
:102C700000D10FE01C4DA84200D10BE01B4DA84233
:102C800000D100BF1A4DA84200D100BF194DA84283
:102C900007D106E022F08002CD6842EA051222F058
:102CA0004002104DA8420BD00F4DA84208D00F4D46
:102CB000A84205D00E4DA84202D00E4DA84209D11F
:102CC00023F4806323F400634D6943EA85038D692F
:102CD00043EA8503436084614D688563026230BDC9
:102CE000FF8FFFFE002C01400034014000400140F6
:102CF000004401400048014030B5056A25F4807564
:102D00000562026A4368C469224D2C4024F0030422
:102D10000D682C4322F400728D6842EA05221E4D94
:102D2000A84200D10FE01D4DA84200D10BE01C4D80
:102D3000A84200D100BF1B4DA84200D100BF1A4DD0
:102D4000A84207D106E022F40062CD6842EA0522DB
:102D500022F48062104DA8420BD0104DA84208D03A
:102D60000F4DA84205D00F4DA84202D00E4DA842EB
:102D700009D123F4805323F400534D6943EA05132A
:102D80008D6943EA05134360C4614D68C5630262FF
:102D900030BD00008FFFFEFF002C014000340140D9
:102DA00000400140004401400048014030B5056A40
:102DB00025F480550562036A4468C269124D2A40B1
:102DC00022F440720D6842EA052223F400538D6814
:102DD00043EA05330D4DA8420BD00D4DA84208D053
:102DE0000C4DA84205D00C4DA84202D00B4DA84274
:102DF00004D124F480444D6944EA85144460C261DE
:102E00004D680564036230BDFF8FFFFE002C01405A
:102E100000340140004001400044014000480140AE
:102E200030B5056A25F480350562026A4368446D51
:102E3000114D2C400D682C4322F400320D8942EADA
:102E400005420E4DA8420BD00D4DA84208D00D4DA5
:102E5000A84205D00C4DA84202D00C4DA84204D186
:102E600023F480334D6943EA0523436044654D688C
:102E70008565026230BD00008FFFFEFF002C01401F
:102E8000003401400040014000440140004801403E
:102E900030B5056A25F480150562026A4368446D01
:102EA000114D2C400D6844EA052422F400120D89CE
:102EB00042EA05520D4DA8420BD00D4DA84208D054
:102EC0000C4DA84205D00C4DA84202D00B4DA84293
:102ED00004D123F480234D6943EA8523436044658C
:102EE0004D68C565026230BDFF8FFFFE002C0140BA
:102EF00000340140004001400044014000480140CE
:102F000030B50B461446026A056A25F001050562D4
:102F1000816921F0F00141EA041122F00A021A430A
:102F20008161026230BD30B50B461446056A25F05A
:102F3000100505628169026A21F4704141EA043199
:102F400022F0A00242EA03128161026230BD90F8D1
:102F5000241001F0010139B10168496821F4003100
:102F6000826A11430268516090F8241001F0020156
:102F7000022907D10168496821F48031C26A1143EE
:102F80000268516090F8241001F00401042907D16F
:102F90000168496821F48021026B11430268516085
:102FA00090F8241001F00801082907D10168496848
:102FB00021F40041426B11430268516090F82410E3
:102FC00001F01001102907D10168896821F48051AE
:102FD000826B11430268916090F8241001F0200187
:102FE000202907D10168896821F40051C26B11437F
:102FF0000268916090F8241001F04001402913D13B
:103000000168496821F48011026C11430268516023
:10301000016CB1F5801F07D10168496821F4C00136
:10302000426C11430268516090F8241001F0800155
:10303000802907D10168496821F40021826C11437D
:1030400002685160704738B504460020E067FDF71C
:10305000F7FC05462068006800F0080008280CD13D
:103060006FF07E402B4600224FF400110090204666
:1030700000F059FA08B1032038BD2068006800F05C
:10308000040004280CD16FF07E402B4600224FF440
:1030900080010090204600F046FA08B10320EBE7DB
:1030A00020206067A06700BF002084F8700000BF88
:1030B00000BFE1E72DE9F84F04460027002000900B
:1030C0008146F8492068884200D100E000BF2169AC
:1030D000A068084361690843E16940EA0108206883
:1030E0000068F149084040EA08002168086020684B
:1030F000406820F44050E168084321684860D4F8F3
:103100001880E8492068884202D0206A40EA08080E
:103110002068806820F4306040EA080021688860F8
:1031200000BFE2492068884216D1E148006800F0FB
:10313000030030B1012808D0022804D0032808D1A8
:1031400005E0012507E0022505E0042503E0082548
:1031500001E0102500BF8DE0D6492068884216D1D5
:10316000D348006800F00C0030B1042808D00828CB
:1031700004D00C2808D105E0002507E0022505E071
:10318000042503E0082501E0102500BF72E0CA49CC
:103190002068884216D1C648006800F0300030B17F
:1031A000102808D0202804D0302808D105E00025B8
:1031B00007E0022505E0042503E0082501E01025CD
:1031C00000BF57E0BD492068884216D1B848006862
:1031D00000F0C00030B1402808D0802804D0C028BA
:1031E00008D105E0002507E0022505E0042503E0FD
:1031F000082501E0102500BF3CE0B1492068884265
:1032000019D1AB48006800F4407048B1B0F5807F38
:103210000AD0B0F5007F05D0B0F5407F08D105E0B9
:10322000002507E0022505E0042503E0082501E06C
:10323000102500BF1EE09B492068884219D19C4898
:10324000006800F4406048B1B0F5806F0AD0B0F576
:10325000006F05D0B0F5406F08D105E0002507E00C
:10326000022505E0042503E0082501E0102500BF44
:1032700000E0102500BF8B49206888427ED135B11F
:10328000022D08D0042D09D0082D0ED10AE0FDF73B
:103290001DFF81460CE0DFF82C9209E0FDF73AFFB4
:1032A000814605E04FF4004902E00120009000BF94
:1032B00000BFB9F1000F0AD0606800EB400048453C
:1032C00003D860680003484502D20120009021E144
:1032D00035B1022D1AD0042D2AD0082D53D13DE04E
:1032E000FDF7F4FE06464FF48070A6FB0031D4F8DB
:1032F00004E04FEA5E0013EB000B41F1000172465F
:1033000000235846FCF75CFF07463FE0D4F804E092
:103310004FEA5E0000216C4B10EB030B41EB010CFC
:1033200072460B4658466146FCF74AFF07462DE0B9
:10333000FDF7F0FE06464FF48070A6FB0031D4F88E
:1033400004E04FEA5E0013EB000B41F1000172460E
:1033500000235846FCF734FF074617E0D4F804E092
:103360004FEA5E0000214FF4000310EB030B41EB2A
:10337000010C72460B465846614600E013E0FCF72C
:103380001FFF074602E00120009000BF00BFB7F515
:10339000407F05D3B7F5801F02D22068C760B9E02F
:1033A00001200090B6E0E069B0F5004F54D1092D3E
:1033B0003AD2DFE805F005101B39243939392F00DE
:1033C000FDF784FE06467000616800EB5100B0FB1B
:1033D000F1F087B22BE0FDF78BFE064670006168C6
:1033E00000EB5100B0FBF1F087B220E03749606894
:1033F00001EB50006168B0FBF1F087B217E0FDF718
:1034000089FE06467000616800EB5100B0FBF1F0E8
:1034100087B20CE04FF48031606801EB50006168C6
:10342000B0FBF1F087B202E00120009000BF00BFC6
:10343000102F0ED3B7F5803F0BD24FF6F07007EA8E
:10344000000AC7F342004AEA000A2068C0F80CA04C
:1034500060E0012000905DE0092D4DD2DFE805F02D
:10346000050F194C384C4C4C4200FDF72FFE064618
:10347000616806EB5100B0FBF1F087B23FE0FDF769
:1034800037FE0646616806EB5100B0FBF1F087B2EB
:1034900035E00C49606801EB50006168B0FBF1F069
:1034A00087B22CE000800040F369FFEF0038014054
:1034B000881002400044004000480040004C00409A
:1034C000005000400024F400000024F40048E8010B
:1034D000FDF720FE0646616806EB5100B0FBF1F0F7
:1034E00087B20CE04FF40041606801EB5000616866
:1034F000B0FBF1F087B202E00120009000BF00BFF6
:10350000102F05D3B7F5803F02D22068C76001E0D5
:1035100001200090002020666066009800F000B84E
:1035200018BCBDE8E08F2DE9F04104460D46174672
:103530009846069E45E0701C002842D0FDF780FAB0
:10354000A0EB0800B04200D8B6B92068006820F4AB
:10355000D070216808602068806820F00100216830
:10356000886020206067A06700BF002084F870009A
:1035700000BF0320BDE8F0812068006800F004006F
:10358000F8B12068C069C0F3C020D0B14FF400602A
:10359000216808622068006820F4D0702168086003
:1035A0002068806820F00100216888602020606722
:1035B000A067E06700BF002084F8700000BF032010
:1035C000D8E72068C0692840A84201D1012000E066
:1035D0000020B842AFD00020CCE700BFFEE70000DB
:1035E0002DE9FC4106460F460024DA20855D012DB9
:1035F00003D0022D01D0032D2ED16B4601AA01214B
:10360000304600F0C6F904460198B0F57F0F03D8A4
:103610000098B0F57F0F1FD9F4B92FB1104930468B
:1036200002F030F8044617E00422FF21304601F092
:1036300019F8044300227021304601F013F80443C6
:103640000022FF21304601F00DF8044300228021C2
:10365000304601F007F804432046BDE8FC81000035
:103660009F020020F8B506460F460024002500BF43
:1036700001220B21304600F0F5FF044600220B2109
:10368000304600F0EFFF04436A461321304600F055
:10369000F1FB0443681CC5B29DF8000000F0070070
:1036A00018B1032D01DA002CE2D0032D01DB6FF0FD
:1036B0000B042046F8BD000070B592B0054600240A
:1036C0002CB900228821284600F0CCFF04460021B6
:1036D000F02041554FF47A70A5F852014FF4C870AC
:1036E000A5F854015A48C5F858015A48C5F8D400FD
:1036F000296202A9284600F0B4F8044654B9002013
:103700008DF808008DF80900402202A905F110008B
:10371000FCF78AFD642005F59A7528804FF46170E6
:1037200068804FF4FA70A8804FF42060288101204F
:103730002877A5F59A7501228021284600F092FF8E
:1037400004430122FF21284600F08CFF044300229D
:103750001146284600F086FF044301AA912128461D
:1037600000F088FB04439DF8040085F83A0101222B
:103770000021284600F076FF04430022FF2128465E
:1037800000F070FF044300228021284600F06AFF09
:103790000443002609E034B9B1B20122284600F002
:1037A000D0FC044300E002E0761C062EF3DB00BFF1
:1037B0002CB900220221284600F0C3FC04462CB993
:1037C00000220321284600F0BCFC04462CB900224C
:1037D0000421284600F0B5FC04462CB9002205213E
:1037E000284600F0AEFC044634B94FF49012002194
:1037F000284600F00AFD044634B94FF48042012106
:10380000284600F002FD044634B94FF40C120221A0
:10381000284600F0FAFC04462CB900220321284671
:1038200000F0F3FC04465CB9FF2085F83001FF226C
:103830000121284600F016FF0446012085F83201D8
:1038400014B9002185F81511204612B070BD000092
:10385000856B0100A470090002460020137C0B70E8
:1038600070472DE9F04107460D46002429463846A9
:10387000FFF7F2FF04462CB905F10801384600F0C5
:1038800051F804460CB9002028732CB905F1100139
:10389000384600F072FA04462CB905F11401384696
:1038A00000F037F90446E4B9002617E04CB905F1F9
:1038B000240000EB8602B1B2384600F099F80443C8
:1038C00000E00DE044B905F118008219B1B23846A4
:1038D00000F080F8044300E002E0761C062EE5DBF1
:1038E00000BF2CB905F13C01384600F021FA04462E
:1038F00024B9291D384600F001F904462046BDE8E8
:10390000F08170B506460C46002522460921304656
:1039100000F0B0FA05461DB9207800F001002070D3
:10392000284670BD7CB506460C46002501AAF82144
:10393000304600F0E5FA05462DB96A4604213046C6
:1039400000F0B2FA054655B9BDF8040028B1BDF83B
:1039500004100098B0FBF1F020602168B1612846A6
:103960007CBDF8B505460C4600266A46132128465C
:1039700000F080FA06469DF8000000F00700206085
:103980009DF8000000F0180008B16FF00506304601
:10399000F8BD2DE9F8430746884614461D46002623
:1039A0006A460E21384600F0ABFA0646BDF8000024
:1039B0000005C008206056B96A460C21384600F060
:1039C0009FFA0646BDF800000005C0082860304692
:1039D000BDE8F88330B503460020062903DB001F4D
:1039E0000025157003E003F128056C5C147030BDF0
:1039F0002DE9F84305460E4617464FF00008C1462C
:103A0000062E2FD2DFE806F00307161A1E1F6C6B76
:103A10004FF0000929E06A464421284600F070FA78
:103A20008046B8F1000F02D1BDF8000044024FF00B
:103A300001091AE0EC6B4FF0000916E02C6C4FF016
:103A4000000912E000BF6A466421284600F058FAD7
:103A50008046B8F1000F02D1BDF8000044024FF0DB
:103A6000000902E06FF0030800BF00BFB8F1000FCB
:103A700016D1B9F1010F12D144B905F1340050F853
:103A800026403C6000210C38815509E03C6005F17E
:103A9000340040F8264001210C38815500E03C609C
:103AA0004046BDE8F8832DE9FC4105460C4600265A
:103AB000DA20475D042F0DD169462846FFF751FFF4
:103AC00006460098042802D10120207013E000204F
:103AD000207010E001AA1421284600F0CBF9064618
:103AE0004EB99DF8040000F0010010B101202070D3
:103AF00001E0002020703046BDE8FC8170B504462E
:103B00000D4600262946204601F090FB0646304629
:103B100070BD70B504460D4600262946204601F0CA
:103B2000FFFB0646304670BD2DE9F04F93B00546C9
:103B30000C464FF000080C230AAA1421284600F076
:103B400003FA8046B8F1000F7DD10020A0752060F7
:103B50009DF833009DF8321000EB012087B2002061
:103B600060609DF82F009DF82E1000EB01200004EE
:103B7000C609E6609DF831009DF8301000EB012089
:103B800080B20F900F98400220619DF82B009DF8A5
:103B90002A1000EB01201FFA80F9A4F814909DF878
:103BA00028001290B5F852010D9095F831B10D989A
:103BB000B0F57A7F2AD00D98784300F5FA704FF46B
:103BC0007A7190FBF1F087B2288C80B20E90287F3A
:103BD00010901098D0B10E9800FB09F0A6EB2020B1
:103BE00040B9BBF1000F02D042F2B82A0DE048F60E
:103BF000E02A0AE007FB06F10E9800FB09F0A6EBAD
:103C00002020B1FBF0F01FFA80FA5746BBF1000FFD
:103C100005D0B8102081B807000EE07502E02781BA
:103C20000020E07511A84B463246CDE900402846F9
:103C3000129901F0A0FB40EA0808B8F1000F02D188
:103C40009DF844002076B8F1000F20D11C2205F128
:103C5000500103A8FCF7E8FA2089ADF81400E07DD4
:103C60008DF823006089ADF8160060680490E06864
:103C7000069020690790A08AADF82000207E8DF87C
:103C800024001C2203A905F15000FCF7CDFA4046A0
:103C900013B000F000B830BCBDE8C08FF8B50646E0
:103CA0000C460025002000906A460121304600F0B5
:103CB000E1F805463DB923469DF800200021304635
:103CC00003F0C9F805463DB9A31C9DF80020012169
:103CD000304603F0C0F805463DB9631C9DF800204E
:103CE0000221304603F0B7F805463DB9E31C9DF8C4
:103CF00000200321304603F0AEF805463DB9231DF0
:103D00009DF800200421304603F0A5F8054628461A
:103D1000F8BD2DE9F04104460D461646002732460F
:103D20002946204601F075FC07463846BDE8F0817B
:103D3000F8B506460C4600256A460121304600F0DB
:103D400099F805466DB99DF8000086F830019DF898
:103D5000000000F0800010B10120207001E0002080
:103D6000207015B9217886F84C102846F8BD10B59A
:103D700002460020137F0B7010BDF8B504460E46B6
:103D800000276A462021204600F0BAF8074677B996
:103D9000BDF8000020B9256A35600021217706E0D2
:103DA000BDF80000C5003560256201212177384645
:103DB000F8BD2DE9F04104460D46164600270123C3
:103DC00032462946204601F037FD07463846BDE811
:103DD000F0812DE9F04104460D4616460027324693
:103DE0002946204601F04EFD07463846BDE8F081E1
:103DF00038B50546002469462846FFF72DFD0446E0
:103E000034B99DF8000018B9284600F0B5FA044608
:103E10001CB9284601F0AEFC04462CB99DF8000000
:103E200010B9032085F83201204638BD70B505462B
:103E30000E4600240021284600F0B7F804461CB9BD
:103E40002846FFF7D5FF044624B931462846FFF738
:103E50006BFE044624B900212846FFF703FC044604
:103E6000204670BD70B5054600240220FCF752FCC8
:103E7000204670BDF7B5064614460027012201A969
:103E8000304602F032FB054615B16FF0130709E02A
:103E900001222146304602F011FB05460DB16FF0BC
:103EA000130700BF3846FEBDF7B506461446002787
:103EB000012201A9304602F018FB054615B16FF04A
:103EC000130719E004220D49304602F0F7FA0546BF
:103ED00015B16FF013070FE0084800780006074996
:103EE000497800EB01400549897800EB012003493E
:103EF000C9780844206000BF3846FEBD6006002037
:103F0000F7B5064614460027012201A9304602F003
:103F1000ECFA054615B16FF0130711E002220949CA
:103F2000304602F0CBFA054615B16FF0130707E0F3
:103F3000044840780349097800EB0120208000BF45
:103F40003846FEBD600600202DE9FF4107461446B5
:103F50001D464FF00008012201A9384602F0C5FABB
:103F6000064616B16FF0130809E02A462146384686
:103F700002F0A4FA06460EB16FF0130800BF4046E7
:103F800004B0BDE8F0812DE9F04105460C4600265D
:103F9000274604EBD770C0F347028A21284600F079
:103FA00061FB06463046BDE8F08102460020032949
:103FB0000BD003DC39B101290BD105E0142905D060
:103FC000152906D103E000BF00BF00BF00BF117478
:103FD00002E06FF0070000BF00BF70472DE9F04717
:103FE0008046894617461E46DDF820A00024B9F118
:103FF000000F02D06FF00904A0E0142F0CD1BAF129
:10400000000F01D1102500E001252A4684214046F9
:1040100000F028FB044691E0152F5AD10122FF2120
:10402000404600F01FFB044300221146404600F0CA
:1040300019FB04430022FF21404600F013FB044318
:1040400001228021404600F00DFB0443022285211D
:10405000404600F007FB04430422FF21404600F0E5
:1040600001FB04430022CD21404600F0FBFA04434B
:104070001122CC21404600F0F5FA04430722FF212B
:10408000404600F0EFFA04430022BE21404600F013
:10409000E9FA04430622FF21404600F0E3FA044314
:1040A0000922CC21404600F0DDFA04430022FF2122
:1040B000404600F0D7FA04430122FF21404600F0B9
:1040C000D1FA044300221146404600F0CBFA0443E3
:1040D00034E0A4B9052E0ED2DFE806F00305070987
:1040E0000B0000250AE0012508E0022506E0032573
:1040F00004E0042502E06FF00A0400BF00BF2CB901
:104100002A460A21404600F0ADFA044664B9BAF1E5
:10411000000F01D1002500E010252B46EF2284215D
:10412000404600F07FFA044614B9DA2000F808602F
:1041300024B900214046FFF795FA04462046BDE821
:10414000F0872DE9F05F04460D4616464FF0000952
:10415000CB460027BA46062D02DB6FF0030941E08B
:104160002EB94FF0000B00274FF0010A06E004F1D2
:10417000340050F825B04FF0000A0127062D2DD24B
:10418000DFE805F003060E1114202820075528E06B
:10419000CBF34F224421204600F07EFA814620E0F6
:1041A00084F82A701DE084F82B701AE04FEA4A6008
:1041B0004FEA10684346FE226021204600F032FAA2
:1041C00081460EE04FEA0A704FEA10684346EF223C
:1041D0006021204600F026FA814602E06FF00309D4
:1041E00000BF00BFB9F1000F09D126B9002104F1C9
:1041F0002800415503E0012104F1280041554846BB
:1042000000F000B830BCBDE8C09F2DE9F041054684
:104210000E461446002705F1280010F80680B8F174
:10422000000F03D10C3040F8264026E0062E1BD2AA
:10423000DFE806F003050D0F11126C6317E0C4F3FD
:104240004F224421284600F027FA07460FE0EC638E
:104250000DE02C640BE000BFC4F34F22642128461C
:1042600000F01AFA074602E06FF0030700BF00BF34
:104270001FB905F1340040F826403846BDE8F0810A
:1042800070B504460D4600262946204601F003FD80
:104290000646304670BD2DE9F84307460D46904668
:1042A00000260020009000246A4601213846FFF7CE
:1042B000E1FD06469DF80040002E36D1B8F1010F11
:1042C00019D1052D13D2DFE805F00306090C0F0004
:1042D00044F010040EE044F028040BE044F0040421
:1042E00008E044F0400405E044F0800402E06FF090
:1042F000030600BF19E0052D13D2DFE805F0030621
:10430000090C0F0004F0EF040EE004F0D7040BE0FA
:1043100004F0FB0408E004F0BF0405E004F07F04AF
:1043200002E06FF0030600BF00BF9DF8000084426A
:1043300010D02EB922460121384600F093F90646E6
:104340000EB987F830412EB9D7F81490494638464F
:10435000FFF796FF3046BDE8F8832DE9F0410446AB
:104360000D461646002732462946204601F08DFDAF
:1043700007463846BDE8F0812DE9FC410646002499
:10438000012701A93046FFF767FA01228021304654
:1043900000F068F904460122FF21304600F062F97E
:1043A000044600221146304600F05CF9044696F8B7
:1043B0003A219121304600F055F9044601220021AE
:1043C000304600F04FF904460022FF21304600F04D
:1043D00049F9044600228021304600F043F90446A2
:1043E0009DF8040020B1012823D0032843D131E0F7
:1043F00001220021304600F035F904460097BCB98F
:10440000002500BF2DB16A4600213046FFF732FD7E
:1044100004466D1C9DF800003840B84203D114B921
:10442000B5F5FA6FEED3B5F5FA6F01D36FF0060468
:1044300024E024B901213046FFF7D2F804460222D5
:104440000021304600F00EF9044614B9042086F825
:10445000320113E024B901213046FFF7C1F80446C8
:1044600004220021304600F0FDF8044614B904206F
:1044700086F8320102E06FF0070400BF00BF20465B
:10448000BDE8FC812DE9F04397B0054600244021AA
:1044900007A8FBF7E2FE0020069005908146002762
:1044A0000490039000260121284600F017FC0446E2
:1044B00095F8137195F81461012E05DC01D1202FB8
:1044C00002D846B90C2F06D904AA03A9284601F040
:1044D000D9F9044605E032463946284601F071FC18
:1044E0000446DFF83C814CB995F85091B9F1000FC2
:1044F00002D1D5F84C8101E0DFF8248124B941468E
:10450000284601F0BFF8044644B9002004230246BF
:10451000014600902846FFF761FD04468CB9012250
:10452000FF21284600F09EF8044606AA842128466A
:10453000FFF7E6FC04430022FF21284600F092F832
:10454000044324B9BDF818000001C5F8D40024B90B
:1045500007A92846FFF785F904464CB905A928465E
:10456000FFF7CFF904461CB99DF8140085F8310116
:104570002CB9402207A905F11000FBF755FE54B9EC
:1045800005AA01212846FFF775FC04461CB99DF8D1
:10459000140085F830012CB9002211462846FFF797
:1045A0007AFE04462CB9002202212846FFF773FE4A
:1045B000044614B9032085F832012CB902AA00215F
:1045C0002846FFF7A6FB04461CB99DF80810E82012
:1045D00041552CB902AA01212846FFF79AFB04464F
:1045E0001CB99DF80810E02041552CB901AA0321FF
:1045F000284602F04EFB044614B9E42001994151CB
:104600002CB901AA0421284602F043FB044614B940
:10461000DC2001994151204617B0BDE8F08300002D
:10462000AC0100202DE9F8430746884614461D4694
:1046300000266A4641463846FFF71CFC064606B18E
:104640000CE09DF800002040284300909DF80020D9
:104650004146384600F006F8064600BF3046BDE841
:10466000F88300002DE9F04106460C461546002768
:1046700008480470457002220146304601F035FFBB
:104680008046B8F1000F01D06FF013073846BDE83F
:10469000F0810000600600202DE9F04106460D463D
:1046A00014460027094805702012084948708C708C
:1046B0000322304601F019FF8046B8F1000F01D007
:1046C0006FF013073846BDE8F08100006006002057
:1046D0002DE9F04780460E4617461C464FF000096C
:1046E0003F2C03D96FF00300BDE8F087084806703F
:1046F00022463946401CFBF797FD621C04494046A0
:1047000001F0F3FE05460DB16FF013094846EBE7E3
:10471000600600202DE9FF4F90B01746DDF8788045
:1047200012200F904FF480400E9042200D900620F2
:104730000C9007200B90002000901098B0F85401C6
:104740000A901098D0F858010990DDE9091000FB93
:1047500001FA0AF180004FEA102A0A980AFB00FACF
:1047600000256FB1119880020190019800EB570568
:10477000B5FBF7F505EB45056D4305F50040050C68
:104780001D99139848430890089800F50040000CC4
:10479000089008984043089008F50040000C0290EB
:1047A0000298C01C0621B0FBF1F002900298C0EB09
:1047B000C00002900298B0F5803F02D337480790BE
:1047C0000DE008F103000621B0FBF1F8C8EBC808C2
:1047D00008F50040000C079007984043079040F20E
:1047E00027100590059810FB00F0059041F2041089
:1047F00004900498083000090490DDE90410401A80
:104800000590059800EB400000010690069800F521
:104810000050800B0690DDE9071044181F9804EB48
:1048200050041F98B4FBF0F4A403069804EB500462
:104830000698B4FBF0F46C4304F5FA704FF47A7107
:10484000B0FBF1F4240104F5FA70B0FBF1F44FF081
:104850004009B9F1000F05D00AEB5900B0FBF9F09F
:10486000039001E000200390039800F0F5FE8346DA
:1048700024B10AEB5400B0FBF4F600E00026304609
:1048800000F0EAFE06462098C0F800B0B34501D912
:1048900020980660009814B000F002B80000F0FF05
:1048A00030BCBDE8C08FE0B5064640F277634FF4F8
:1048B000106202FB01F5A5FB0307E0BD2DE9FF4FE8
:1048C000ABB0054688464FF448702A904FF41670F6
:1048D00029904FF4C810289041F25C202790B848E6
:1048E00026904FF470402590B6482490B648239007
:1048F0004FF4004022904FF44810219040F277602E
:10490000209000BF286A15904FF47A71D8F81000F3
:104910004843000C1690D8F80C000C900DAA4146A4
:10492000284600F045FE15AA4146284600F054FEF0
:1049300013904FF47A710D9800FB01F707F50040D2
:10494000070C1598484314901498B0F5481F02D9E5
:104950004FF4481014901398002849D1DC20405996
:104960001E90E020405D06902846069A1E9900F0B1
:1049700030F90990E42040591D90E820405D0590F1
:104980002846059A1D9900F024F9089003200A9002
:104990000698082801D102200A900A98C002DDE991
:1049A0000812114448430790079800F5FA704FF435
:1049B0007A71B0FBF1F0079040F2776107984843B5
:1049C0000790079800F5FA704FF47A71B0FBF1F098
:1049D00007900D988030000A0D9007990D98484374
:1049E0001F901F988030000A1F900D9800020D90B4
:1049F000139818B113982FB000F0E8B84FB9704968
:104A00002D9801600846C5F8400100212E980160EC
:104A1000D4E01F9808B901201F904FF448701B90F4
:104A200016980004B0FBF7F66648864200D90646A1
:104A30004FF4167046431F9901EB4101880000F0C6
:104A40000BFE40001A90B8F808005F4948431990DF
:104A500014984000C0EB074000F5FA704FF47A71EB
:104A6000B0FBF1F01290481000EB0740B0FBF1F101
:104A70001191129800021290DDE91112B2FBF1F0CF
:104A8000002801DB014600E041421791179800021F
:104A9000179098F8180010B14FF4803410E041F2EC
:104AA0005C211998B0FBF1F41798C0F580304443AD
:104AB00004F50040040C04F5803464086443A40B3E
:104AC0001B9804FB00FA0AF500404FEA104A0AFB63
:104AD0000AFAB3460BF500404FEA104B0BFB0BFBF9
:104AE0000AEB0B001090109800F0B6FD0F900F9895
:104AF00000040F900F9832306421B0FBF1F11A9846
:104B0000B1FBF0F940F6B53009FB00F941F288300D
:104B100081444000B9FBF0F9B9F5704F01D94FF469
:104B20007049DDE91D10084400F5FA704FF47A7100
:104B3000B0FBF1F01C904FF4C8111C9801EB500130
:104B4000B1FBF0F0049000F087FD0B900B98000291
:104B50000B900B9800F5FA704FF47A71B0FBF1F0FE
:104B60000B9009FB09FA0B9800FB00FB0AEB0B000A
:104B700000F072FD0E904FF47A710E984843189031
:104B80002FB11F9818B10E491898884201D90C48C6
:104B900018902D99189808602D980068C5F8400164
:104BA000079A1B992E982346CDE901620091039044
:104BB0002846DDE90C21FFF7ADFD139013981AE7A5
:104BC000AE878F02666666009A99060030BCBDE823
:104BD000C08F2DE9F04307460C46154600BF294615
:104BE0003846FFF760FE814609F5FA704FF47A7196
:104BF000B0FBF1F60846604300EB5600B0FBF6F858
:104C00004046BDE8F0832DE9F04306460C461546C4
:104C1000002729463046FFF746FE804608F5FA7021
:104C20004FF47A71B0FBF1F904FB09F000F5FA706A
:104C3000B0FBF1F73846BDE8F08301460020CAB268
:104C40000B0A9A40501C7047014600204A1C52062D
:104C5000100E7047F8B50646002400228321304626
:104C6000FFF700FD0443B4B9002500BF6A46832165
:104C70003046FFF7FFF804469DF8000000B904B184
:104C800003E06D1CB5F5FA6FF0D300BFB5F5FA6F10
:104C900001D36FF00604012283213046FFF7E2FCC6
:104CA00004432046F8BD10B5014600200022002331
:104CB00061B14A1E02E052085C1CA3B222F0FF045C
:104CC000002CF8D1144663F31F24A0B210BD014696
:104CD00000200122C2EB6102D0B270472DE9F04FF3
:104CE00093B005460F46002400200E900D900C90C6
:104CF0000B90824683464FF4C8500A904FF000094B
:104D0000002009900290F020465D072E7ED00122FF
:104D100080212846FFF7A6FC04430122FF212846F4
:104D2000FFF7A0FC0443002211462846FFF79AFC37
:104D300004430622FF212846FFF794FC044312AAED
:104D400083212846FFF796F804439DF8480040F079
:104D5000040283212846FFF785FC04430722FF2134
:104D60002846FFF77FFC0443012281212846FFF7F4
:104D700079FC04432846FFF775F80443012280219B
:104D80002846FFF76FFC044307F00100002855D0C8
:104D900006F00100002851D16B2294212846FFF72C
:104DA00061FC04432846FFF755FF044311AA9021F4
:104DB0002846FFF779F804431198C0F306200E90B7
:104DC0001198C0F3C0300D90242294212846FFF79B
:104DD00049FC04432846FFF73DFF044311AA9021F4
:104DE0002846FFF761F804431198000E8DF8000083
:104DF0001198000C8DF801001198000A8DF802003E
:104E00001198C0B28DF80300252200E0A4E194219E
:104E10002846FFF727FC04432846FFF71BFF0443FF
:104E200011AA90212846FFF73FF804431198000E7D
:104E30008DF804001198000C8DF8050007F00200B1
:104E400002287DD106F002000028FAD10222942126
:104E50002846FFF707FC04432846FFF7FBFE044300
:104E600010AA90212846FFF705F804437B229421DD
:104E70002846FFF7F7FB04432846FFF7EBFE044301
:104E80000FAA90212846FEF7F5FF044377229421CC
:104E90002846FFF7E7FB04432846FFF7DBFE044301
:104EA00011AA90212846FEF7FFFF04437F211198A5
:104EB00001EA50608DF810001198C0F386408DF81B
:104EC00011001198C0F3C6208DF812001198C0F39C
:104ED00006108DF8130011980007400E12907822EA
:104EE00094212846FFF7BEFB04432846FFF7B2FE95
:104EF000044311AA90212846FEF7D6FF04437F21E0
:104F0000119801EA50709DF848100844C0B28DF81D
:104F100014001198C0F386508DF815001198C0F355
:104F2000C6308DF816001198C0F306208DF81700D2
:104F30001198C0F346008DF818001198C00700E0E2
:104F40005FE0400E1290792294212846FFF78AFBF9
:104F500004432846FFF77EFE044311AA9021284609
:104F6000FEF7A2FF04437F21119801EA90609DF8AB
:104F700048100844C0B28DF819001198C0F3C6401B
:104F80008DF81A001198C0F306308DF81B001198A7
:104F9000C0F346108DF81C001198C006400E129008
:104FA0007A2294212846FFF75DFB04432846FFF749
:104FB00051FE044311AA90212846FEF775FF0443D1
:104FC0007F21119801EA90709DF848100844C0B202
:104FD0008DF81D001198C0F3C6508DF81E00119871
:104FE000C0F306408DF81F001198C0F346208DF8DD
:104FF00020001198C0F386008DF8210000208DF864
:10500000220007F00400042873D106F004000028F1
:105010006FD17B2294212846FFF724FB04432846C6
:10502000FFF718FE04430CAA90212846FEF73CFF28
:1050300004437C2294212846FFF714FB04432846AE
:10504000FFF708FE04430BAA90212846FEF72CFF29
:105050000443732294212846FFF704FB04432846A7
:10506000FFF7F8FD044311AA90212846FEF71CFF24
:10507000044311980006000C0990742294212846DC
:10508000FFF7F0FA04432846FFF7E4FD044311AAB2
:1050900090212846FEF708FF04431199099840EA39
:1050A00011600990752294212846FFF7DBFA04432A
:1050B0002846FFF7CFFD044311AA90212846FEF7AA
:1050C000F3FE0443119800064FEA1049762294211A
:1050D0002846FFF7C7FA04432846FFF7BBFD044301
:1050E00011AA90212846FEF7DFFE0443119849EAF1
:1050F0001069002281212846FFF7B4FA04430622F2
:10510000FF212846FFF7AEFA044312AA832128465E
:10511000FEF7B0FE04439DF8480000F0FB02832137
:105120002846FFF79FFA04430122FF212846FFF794
:1051300099FA0443012200212846FFF793FA044319
:105140000022FF212846FFF78DFA04430022802128
:105150002846FFF787FA0443002C60D1072E5ED063
:1051600007F00100A8B106F0010090B90E9885F88B
:1051700013010D9885F81401A04607E01DF80810EA
:1051800005F5957000F8081008F10108B8F1060F50
:10519000F4DB07F00200022811D106F0020070B91A
:1051A0009DF84010F12041559DF83C10F2204155EA
:1051B00005F1F300039004A90398FBF760F807F0EA
:1051C0000400042824D106F0040008BB4FF48C70BE
:1051D0000C994151001D0B994151099840020290D0
:1051E0004FF49071029848514FF0000BB9F1000F45
:1051F0000CD00A98A9EB000A4FF47A700AFB00F071
:105200004FEA101BCBF100000FFA80FBC5F80CB081
:1052100046EA070012909DF84810F02041552046BC
:1052200013B000F000B830BCBDE8C08F2DE9F04FDE
:1052300087B006460C4600254FF4FA60039040F212
:1052400076774FF470784FF4257940F24E2A40F289
:10525000B22B4846029040F2262001900020009098
:1052600007EB0800206005A93046FEF717FD05464C
:105270001DB1284607B000F050B89DF8140028B9B9
:105280009DF8150010B99DF8160008B303AA022175
:10529000304601F0FEFC0546D5B99DF8140020B15A
:1052A000206803995144084420609DF8160038B1E5
:1052B000206803995944022202FB0100206007E0A4
:1052C0009DF8150020B120680399494408442060E6
:1052D00075B99DF8170058B16A460321304601F0B0
:1052E000D8FC05462168009A0298104408442060C2
:1052F00075B99DF8180058B104AA0421304601F090
:10530000C8FC05462168049A0198104408442060AE
:105310000DB9216871612846ACE730BCBDE8C08F8B
:105320002DE9F84306460C46002540F2FF774FF47E
:1053300080586A4628213046FEF7E2FD0546BDB991
:10534000BDF80000C0F30B000090BDF80000B842AB
:1053500008DDBDF80000A0EB0800FA2110FB01F009
:10536000206005E0BDF80000FA2110FB01F020608C
:105370002846BDE8F8832DE9FF4F8FB007469946D0
:10538000DDE91CA6002500200E900D900C900B90DE
:105390000A90099008900024029001901098C0F3A0
:1053A000C3045CB1052C09D0072C07D00C2C05D008
:1053B0000D2C03D00E2C01D00F2C02D14FF0010B7D
:1053C00001E04FF0000B2DB90BAA00213846FEF783
:1053D00001FB05469DF82C00D0B1CDB901AB07AA61
:1053E00051463846FFF76AFA054615B90198AAF8FA
:1053F0000A006DB906AA00213846FEF7F9FA0546FB
:10540000069828B1DDE90610884201D901200E90E6
:105410002DB909AA02213846FEF7DCFA05469DF8A7
:10542000240050B34DBB05AA02213846FEF7E0FA2E
:1054300005462DB90122FF213846FFF713F905462D
:105440002DB902AAB6213846FEF75AFD05462DB9F8
:105450000022FF213846FFF705F90546BDF8080090
:10546000400200900098C7F84801059828B10599B6
:105470000098884201D901200D902DB908AA032176
:105480003846FEF7A7FA05469DF82000C8B1C5B911
:10549000B9F1000F02D10020039004E0119800023E
:1054A000B0FBF9F0039004AA03213846FEF7A0FAF6
:1054B0000546049828B1DDE90301884201D20120A4
:1054C0000C9035BBBBF1010F02D1FF20307028E0FA
:1054D000012C03D0022C01D0032C02D10520307006
:1054E0001FE0062C01D0092C02D10420307018E0F6
:1054F000082C04D00A2C02D00D98012802D10320D8
:1055000030700EE0042C02D00C98012802D1022049
:10551000307006E00E98012801D1307001E00020C3
:105520003070307810B90020AAF80A000AAA0121C8
:105530003846FEF74FFA054675BB9DF82C0010B1B2
:105540000E98012802D14FF0010801E04FF0000849
:1055500087F82E80042C02D09DF8280010B94FF057
:10556000010801E04FF0000887F82F809DF8240023
:1055700010B10D98012802D14FF0010801E04FF061
:10558000000887F830809DF8200010B10C980128A1
:1055900003D14FF0010802E003E04FF0000887F864
:1055A0003180284613B000F000B830BCBDE8C08F91
:1055B000F8B507460D4614460026E86820606A469E
:1055C0002946384600F008F806461EB920680099BA
:1055D000084420603046F8BD2DE9F84305460E46E4
:1055E000144600270020206069462846FEF7BFFBCE
:1055F00007465FB99DF8000040B1D5F82080B08A19
:1056000000FB08F909F18000000A20603846BDE877
:10561000F883F8B507460C461546002614B1012C50
:105620000ED106E06A4650213846FEF723FC0646B6
:1056300009E06A4670213846FEF71CFC064602E087
:105640006FF0030600BF00BF26B99DF80000FFF70A
:10565000FBFA28703046F8BD024600204FF080412A
:1056600000E089089142FCD809E04318934204D82D
:105670004318D21A01EB500000E0400889080029C5
:10568000F3D170472DE9FF5F06460D4600200390D9
:10569000002463E02F5D641CFF2F44D1285D02903D
:1056A000641C029830B1012811D002281CD00328B4
:1056B00034D126E015F80480641C15F80490641CAD
:1056C00009EB08201FFA80FAA6F834A12AE015F8A1
:1056D0000480641C15F80490641C09EB08201FFA70
:1056E00080FAA6F836A11DE015F80480641C15F8B0
:1056F0000490641C09EB08201FFA80FAA6F838A170
:1057000010E015F80480641C15F80490641C09EB83
:1057100008201FFA80FAA6F83CA103E06FF003000E
:10572000039000BF1AE0042F15DC285D0190641C73
:105730004FF0000B05E0285D0DF80B00641C0BF129
:10574000010BBB45F7DB3B466A4630460199FEF745
:10575000BFFF039002E06FF003000390285D10B1DB
:105760000398002896D0039804B000F000B830BC2D
:10577000BDE8C09FF8B50646002400200090002533
:1057800000BF69463046FEF78EF9044604B10FE0CB
:105790009DF80000012800D10AE06D1CB5F5FA6FF4
:1057A00002D36FF0060403E03046FEF75BFBE8E748
:1057B00000BF2046F8BD2DE9F04F85B005460E46E6
:1057C00090461F460024A146A246A3460FB195F875
:1057D0003091022201212846FEF744FF044624B9F5
:1057E0000021284600F09AF904468CB9B8F1010F5F
:1057F0000ED10120002104AA5B46CDE90026CDE9A7
:10580000021052460146284600F0EAF9044601E03B
:10581000002030704CB947B14A4601212846FEF7B6
:1058200021FF04460CB985F83091204605B000F000
:1058300000B830BCBDE8C08F2DE9F0470546894669
:1058400016461F460024A04695F8308100233A46AC
:105850004946284600F082F9044634B900233A4606
:1058600031462846FFF7A7FF044644B942460121C6
:105870002846FEF7F7FE04460CB985F8308120462D
:10588000BDE8F0872DE9F74F94B0044600254FF0AE
:10589000B40B032011902C201090002600200F90B4
:1058A0000E904FF42067804681464FF0060A0C9018
:1058B0000B900A900990089007900690B4F83C71FC
:1058C00000BF06E0002104F5927000F8091009F10C
:1058D0000109D145F6D30122FF212046FEF7C2FE81
:1058E00005462DB900224F212046FEF7BBFE054696
:1058F0002DB92C224E212046FEF7B4FE05462DB9C7
:105900000022FF212046FEF7ADFE05462DB95A467E
:10591000B6212046FEF7A6FE05462DB900228021BD
:105920002046FEF79FFE054635B9002308AA09A9BF
:105930002046FFF781FF05468DB900260F96B04639
:105940000FA91198CDE900ABCDE902600491414661
:1059500004F592739A1D204601F0E9F80546002DE2
:1059600044D10F9E0DA9204601F03EFA0546002DB8
:105970003AD1BDF83400B84236DDA94606E0002130
:1059800004F5927000F8091009F10109D145F6D328
:1059900000E0761C0BEB060001F010FA10B910982D
:1059A0008642F6D34FF001080FA91198CDE900AB5C
:1059B000CDE902600491414604F592739A1D204698
:1059C00001F0B5F805468DB90F9E0DA9204601F0EE
:1059D0000BFA054655B9BDF83400B84206DD012082
:1059E00006901198079001E04FF00008002D7CD13F
:1059F000BDF83400B84278DA08F0FF00069011983C
:105A00000790524604F5927112A8FAF70DFCBDF802
:105A10003410C81B002801DB014600E041420B9115
:105A200000200A905DE00EAB3246514604F59570B9
:105A300001F0EFF80E98401C10B96FF0310553E0FB
:105A40000E990BEB010001F0B9F9404502D001209D
:105A50000A9049E00798401C07900E9E3246514636
:105A600004F5927001F0BCF8054635B9761C04F5D2
:105A70009271204601F013FA054605B134E00DA9F4
:105A8000204601F0B1F9054605B12DE0BDF834100E
:105A9000C81B002801DB014600E041420C91BDF823
:105AA0003400B84215DDDDE90B1088420DD912A98A
:105AB000204601F0F4F90546524612A904F5927009
:105AC000FAF7B2FB0798401E079001200A9008E001
:105AD0000BE00C980B90524604F5927112A8FAF75D
