:020000040800F2
:10000000880400209D010008351400082D14000804
:1000100031140008110200088F1A000800000000C7
:10002000000000000000000000000000D5140008DF
:10003000150200080000000037140008D71400085B
:10004000B7010008B7010008B7010008B7010008B0
:10005000B7010008B7010008B7010008B7010008A0
:10006000B7010008B7010008B7010008B701000890
:10007000B7010008B7010008B7010008B701000880
:10008000B7010008B7010008B7010008B701000870
:10009000B7010008B7010008B7010008B701000860
:1000A000B7010008B7010008B7010008B701000850
:1000B000B7010008B7010008B7010008B701000840
:1000C000B7010008B7010008B7010008B701000830
:1000D000B7010008B7010008B7010008B701000820
:1000E000B7010008B7010008B7010008B701000810
:1000F000B7010008B7010008B7010008B701000800
:10010000B7010008B7010008B7010008B7010008EF
:10011000B7010008B7010008B7010008B7010008DF
:10012000B7010008B7010008B7010008B7010008CF
:10013000B7010008B7010008B7010008B7010008BF
:10014000B7010008B7010008B7010008B7010008AF
:10015000B7010008B7010008B7010008B70100089F
:10016000B7010008B7010008B7010008B70100088F
:10017000B7010008B7010008B7010008000000003F
:10018000B7010008B7010008DFF80CD000F02EF826
:1001900000480047811D0008880400200648804769
:1001A00006480047FEE7FEE7FEE7FEE7FEE7FEE75C
:1001B000FEE7FEE7FEE7FEE771150008890100088B
:1001C00030B50B46014600202022012409E021FA27
:1001D00002F59D4205D303FA02F5491B04FA02F524
:1001E0002844151EA2F10102F1DC30BD064C074D7A
:1001F00006E0E06840F0010394E8070098471034F7
:10020000AC42F6D3FFF7C4FF042000082420000806
:1002100000BFFEE77047000070B5044600F012F919
:1002200006462546681C10B104480068054400BF16
:1002300000F008F9801BA842FAD370BD40000020EE
:1002400078B503460022E5E0012696400D6805EAF0
:100250000604002C7DD04D68012D08D04D68022D7C
:1002600005D04D68112D02D04D68122D13D198681C
:1002700056000325B540A8435600CD68B540284335
:100280009860586801259540A8430D79C5F300157D
:100290009540284358600D7905F00305032D09D1D9
:1002A000D86A01259540A8430D79C5F3C00595404E
:1002B0002843D862D86856000325B540A8435600A5
:1002C0008D68B5402843D8604D68022D02D04D6836
:1002D000122D13D1D60803F1200555F82600550735
:1002E000EE0E0F25B540A8435607F60E0D69B54032
:1002F0002843D60803F1200545F826001868560063
:100300000325B540A8430D7905F003055600B54017
:10031000284318604D6805F08055B5F1805F78D1AD
:1003200000BF3F4D2D6E45F001053D4E356635460B
:100330002D6E05F00105009500BF00BF4FEAB635F0
:10034000960855F8260095072E0F0F25B540A843AF
:1003500000E05EE0B3F1904F01D100251EE0314D89
:10036000AB4201D1012519E02F4DAB4201D102254D
:1003700014E02E4DAB4201D103250FE02C4DAB42D2
:1003800001D104250AE02B4DAB4201D1052505E042
:10039000294DAB4201D1062500E007259607360F0F
:1003A000B5402843254D960845F82600244D286879
:1003B000A0434D6805F48035B5F5803F00D120435A
:1003C0001F4D28602D1D2868A0434D6805F4003599
:1003D000B5F5003F00D12043194D2D1D28602D1D7E
:1003E0002868A0434D6805F48015B5F5801F00D13D
:1003F0002043134D083528602D1D2868A0434D6803
:1004000005F40015B5F5001F00D120430C4D0C3547
:100410002860521C0D68D540002D7FF415AF78BDC3
:10042000001002400004004800080048000C00488A
:10043000001000480014004800180048080001405F
:1004400000040140014800687047000038000020A7
:100450000348006803490968084401490860704777
:10046000380000204000002010B50024032000F0D8
:1004700079F80F2000F008F808B1012401E000F03D
:100480002FF8204610BD000070B504460025114825
:100490000068D8B10F4800684FF47A71B1FBF0F0F2
:1004A0000D490968B1FBF0F6304600F089FD58B9F6
:1004B000102C07D200222146501E00F012F80748E7
:1004C000046004E0012502E0012500E00125284642
:1004D00070BD000040000020000000203C00002013
:1004E00070472DE9F05F80460D461646002701F063
:1004F000E3FA074639462A46334601F00700C0F1C1
:10050000070ABAF1040F02D94FF0040A01E0C0F162
:10051000070AD14600F1040ABAF1070F02D24FF0E0
:10052000000A01E0A0F1030AD4464FF0010A0AFADA
:1005300009FAAAF1010A0AEA020A0AFA0CFA4FF0C9
:10054000010B0BFA0CFBABF1010B0BEA030B4AEAB4
:100550000B042146404601F0B7FA00F000B830BC69
:10056000BDE8C09F00BF00F00702064B19684FF6B8
:10057000FF031940044B0B4343EA0221014B19606E
:1005800000BF70470CED00E00000FA050246B2F52E
:10059000007F2AD11D48006800F4C060B0F5007FDC
:1005A00032D01A48006820F4C06040F40070174B45
:1005B00018601748006832235843164BB0FBF3F01D
:1005C000411C00E0491E1148406900F48060B0F50C
:1005D000806F01D10029F5D10C48406900F480609A
:1005E000B0F5806F10D1032070470848006800F410
:1005F000C060B0F5806F07D00448006820F4C06088
:1006000040F48060014B18600020EDE7007000406E
:100610000000002040420F000248006800F4C06063
:1006200070470000007000402DE9F04104460D467F
:1006300014B90120BDE8F0815548006800F00700BA
:10064000A8420ED25248006820F0070028435049C3
:1006500008600846006800F00700A84201D00120A9
:10066000E8E7207800F00100002840D06068032807
:1006700006D14848006800F00070D8B90120D9E7D9
:100680006068022806D14348006800F4003088B949
:100690000120CFE7606830B93E48006800F00200F2
:1006A00040B90120C6E73B48006800F4806008B903
:1006B0000120BFE73748806820F0030061680843E5
:1006C00034498860FFF7BEFE064608E0FFF7BAFE31
:1006D000801B41F28831884201D90320AAE72D48C6
:1006E000806800F00C006168B0EB810FEED12078DB
:1006F00000F00200022807D12648806820F0F000B0
:10070000A1680843234988602148006800F0070079
:10071000A8420ED91E48006820F0070028431C4953
:1007200008600846006800F00700A84201D00120D8
:1007300080E7207800F00400042807D1154880687D
:1007400020F4E060E168084312498860207800F0F6
:100750000800082808D10F48806820F460502169FB
:1007600040EAC1000B49886000F022F80949896815
:10077000C1F30311084A515C01F01F01C840074949
:10078000086007480068FFF77FFE0746384651E7D4
:100790000020024000100240641F000800000020FA
:1007A0003C00002001480068704700000000002065
:1007B000F0B500230020DFF8D4C0DCF808C00CF04E
:1007C0000C01DFF8C8C0DCF80CC00CF0030719B14D
:1007D0000C291ED1012F1CD1DFF8B0C0DCF800C0FD
:1007E0000CF0080CBCF1000F06D1DFF8A0C0DCF85B
:1007F00094C0CCF3032305E0DFF890C0DCF800C020
:10080000CCF30313DFF888C05CF8233041B91846F5
:1008100006E0042901D11F4802E0082900D11E4842
:100820000C2932D1DFF864C0DCF80CC00CF00304F2
:10083000012C09D0022C02D0032C04D101E0154A6E
:1008400004E0154A02E000BF1A4600BF00BFDFF80F
:100850003CC0DCF80CC0CCF3021C0CF10106DFF844
:100860002CC0DCF80CC0CCF3062C0CFB02FCBCFB4F
:10087000F6F2DFF818C0DCF80CC0CCF3416C0CF1D8
:10088000010C4FEA4C05B2FBF5F0F0BD0010024040
:100890007C1F00080024F40000127A002DE9F843C0
:1008A000044614B90120BDE8F883F948806800F0D7
:1008B0000C06F748C06800F00307207800F010002D
:1008C000102877D11EB10C2E76D1012F74D1F048AB
:1008D000006800F0020018B1A06908B90120E2E741
:1008E000EB48216A006800F0080020B1E848006881
:1008F00000F0F00005E0E6489430006800F4706015
:10090000000981421FD9206A00F096FD08B101203C
:10091000C9E700BFDE48006840F00800DC49086015
:100920000846006820F0F000216A0843D8490860B2
:1009300000BF0846406820F47F40E16940EA01209A
:10094000D34948601FE000BFD148006840F008006C
:10095000CF4908600846006820F0F000216A08438B
:10096000CB49086000BF0846406820F47F40E16939
:1009700040EA0120C64948602EB9206A00F05CFDBB
:1009800008B101208FE7FFF713FFC1498968C1F360
:100990000311C04A515C01F01F01C840BE49086004
:1009A000BE480068FFF770FD8046B8F1000F4ED0DA
:1009B000404678E74BE0FFE7A06980B3B4480068A1
:1009C00040F00100B2490860FFF73CFD054606E033
:1009D000FFF738FD401B022801D9032063E7AC482C
:1009E000006800F002000028F2D000BFA8480068AC
:1009F00040F00800A64908600846006820F0F000B2
:100A0000216A0843A249086000BF0846406820F4F4
:100A10007F40E16940EA01209D49486017E0FFE717
:100A20009B48006820F0010099490860FFF70AFD23
:100A3000054606E0FFF706FD401B022801D903200A
:100A400031E79348006800F002000028F2D12078D6
:100A500000F0010000285CD0082E03D00C2E0AD133
:100A6000032F08D18A48006800F4003088B360681A
:100A700078BB012017E700BF6068B0F5803F06D162
:100A80008348006840F48030814908601AE060685B
:100A9000B0F5A02F0BD17E48006840F480207C493F
:100AA00008600846006840F4803008600AE0784832
:100AB000006820F48030764908600846006820F419
:100AC0008020086000BF606890B1FFF7BBFC05465E
:100AD00007E01EE0FFF7B6FC401B642801D90320A5
:100AE000E1E66B48006800F400300028F2D010E026
:100AF000FFF7A8FC054606E0FFF7A4FC401B6428AE
:100B000001D90320CFE66248006800F400300028D5
:100B1000F2D1207800F00200022852D1042E03D036
:100B20000C2E14D1022F12D15948006800F48060B5
:100B300018B1E06808B90120B5E65548406820F0D2
:100B4000F850217C40EA01605149486039E0E06892
:100B500000B34F48006840F480704D490860FFF7CB
:100B600071FC054606E0FFF76DFC401B022801D929
:100B7000032098E64648006800F480600028F2D020
:100B80004348406820F0F850217C40EA0160404929
:100B9000486016E03E48006820F480703C490860D8
:100BA000FFF750FC054606E0FFF74CFC401B02280F
:100BB00001D9032077E63648006800F480600028F9
:100BC000F2D1207800F00800082836D16069D0B151
:100BD0002F489430006840F001002D49C1F894007E
:100BE000FFF730FC054606E0FFF72CFC401B02280F
:100BF00001D9032057E626489430006800F002002F
:100C00000028F1D019E022489430006820F001005B
:100C10001F49C1F89400FFF715FC054606E0FFF7F1
:100C200011FC401B022801D903203CE618489430EF
:100C3000006800F002000028F1D1207800F00400E4
:100C4000042872D14FF000091148806D00F08050E7
:100C500078B900BF0E48806D40F080500C4988651F
:100C60000846806D00F08050009000BF00BF4FF03C
:100C700001090B48006800F4807000BB0848006858
:100C800040F4807006490860FFF7DCFB054610E081
:100C900000100240641F0008000000203C000020FB
:100CA00000700040FFF7CEFB401B022801D9032053
:100CB000F9E5B548006800F480700028F2D000BF64
:100CC000A068012808D1B148006840F00100AF4990
:100CD0009039C1F8900021E0A06805280FD1AB48F9
:100CE000006840F00400A9499039C1F89000084616
:100CF000D0F8900040F00100C1F890000EE0A34849
:100D0000006820F00100A1499039C1F89000084620
:100D1000D0F8900020F00400C1F8900000BFA06857
:100D2000A0B1FFF78FFB054609E02EE0FFF78AFB35
:100D3000401B41F28831884201D90320B3E5934832
:100D4000006800F002000028F0D012E0FFF77AFB04
:100D5000054608E0FFF776FB401B41F288318842E8
:100D600001D903209FE58948006800F002000028AF
:100D7000F0D1B9F1010F07D184489038806D20F08F
:100D8000805082499039886500BFA06A00287DD0D4
:100D9000A06A02287BD17D489038C76807F003011C
:100DA000E06A814228D107F07001206B401EB1EB50
:100DB000001F21D107F4FE41606BB1EB002F1BD166
:100DC00007F40031A06B072801D0012000E00020CB
:100DD000814211D107F4C001A08F0122C2EB500063
:100DE000B1EB405F08D107F0C0614020005DC2EB6D
:100DF0005000B1EB406F6CD00C2E68D06348903837
:100E0000006800F0806028B960489038006800F001
:100E1000805008B1012046E55C489038006820F019
:100E200080705A4990390860FFF70CFB054606E0D0
:100E3000FFF708FB401B022801D9032033E5534884
:100E40009038006800F000700028F1D1D4E90B1050
:100E5000401E41EA0011606B41EA0021A08F01228F
:100E6000C2EB500041EA40514020005DC2EB50000F
:100E700041EA4061A06B000941EA40404349903992
:100E8000C968434A11400843404901E066E046E032
:100E90009039C8600846006840F0807008600846D5
:100EA000C06840F08070C860FFF7CCFA054606E0E5
:100EB000FFF7C8FA401B022801D90320F3E43348A6
:100EC0009038006800F000700028F1D05AE001204E
:100ED000E9E42E489038006800F00070F0BB2B4821
:100EE0009038006840F080702849903908600846C2
:100EF000C06840F08070C860FFF7A4FA054606E0BD
:100F0000FFF7A0FA401B022801D90320CBE41F48B9
:100F10009038006800F000700028F1D032E00C2E0C
:100F20002ED01A489038006820F080701749903908
:100F300008600846006800F0205020B90846C068E4
:100F400020F00300C86011489038C068114908407B
:100F50000E499039C860FFF775FA00E012E00546C7
:100F600006E0FFF76FFA401B022801D903209AE43C
:100F700006489038006800F000700028F1D101E0C8
:100F8000012090E400208EE40070004090100240A8
:100F90008C809DF9FFFFEEFE042808D14FF0E02180
:100FA000096941F004014FF0E022116107E04FF0C0
:100FB000E021096921F004014FF0E022116170473E
:100FC00070B504462546681EB0F1807F01D301202C
:100FD0000FE0681E4FF0E02148610F214FF0FF3015
:100FE00000F072FD00204FF0E021886107200861C9
:100FF000002070BD30B502460B4600BF92F83C00A1
:10100000012801D1022030BD012082F83C0000BF40
:10101000022082F83D0010684168106884681F4D06
:101020001068A84203D01E4D1068A84203D121F4D5
:1010300070015868014321F070011868014310687D
:101040004160164D1068A84217D01068B0F1804F6B
:1010500013D0144D1068A8420FD0134D1068A84249
:101060000BD0124D1068A84207D00D4D1068A84251
:1010700003D00F4D1068A84205D124F08004986871
:10108000044310688460012082F83D0000BF002006
:1010900082F83C0000BF00BFB5E70000002C014013
:1010A000003401400004004000080040000C0040F3
:1010B0000040014010B504460CB9012010BD94F861
:1010C0003D0028B9002084F83C00204600F00CF8D0
:1010D000022084F83D00211D206800F071FA0120F3
:1010E00084F83D000020E9E7704700002DE9F04159
:1010F00004460D4600BF94F83C00012802D10220AE
:10110000BDE8F081012084F83C0000BF022084F893
:101110003D00206886683748064026F47F462068F0
:1011200086602868502833D00CDC202850D004DC9E
:1011300000284BD0102851D149E0302849D0402810
:101140004CD139E060282DD0702807D0B0F5805FF1
:1011500003D0B0F5005F41D10DE040E0D5E90213C6
:101160006A68206800F0A3FA2068866846F077066F
:101170002068866033E0D5E902136A68206800F0D1
:1011800096FA2068806840F480402168886026E0F4
:10119000EA686968206800F053FC5021206800F07C
:1011A00091FA1CE0EA686968206800F05CFC602144
:1011B000206800F087FA12E0EA686968206800F0A9
:1011C0003FFC4021206800F07DFA08E000BF00BF2E
:1011D00000BF2968206800F075FA00E000BF00BF7A
:1011E000012084F83D0000BF002084F83C0000BFCF
:1011F00000BF85E788FFFEFF70B504460D46164622
:1012000000BF94F83C00012801D1022070BD0120EC
:1012100084F83C0000BF022084F83D000C2E51D021
:1012200005DC4EB1042E1ED0082E7AD133E0102EEC
:1012300060D0142EF9D175E02946206800F04CFAF0
:101240002068806940F00800216888612068806912
:1012500020F00400216888612068806929690843BA
:101260002168886177E02946206800F08BFA2068C1
:10127000806940F40060216888612068806920F4FA
:1012800080602168886120688069296940EA0120BE
:10129000216888615FE02946206800F0CDFA206867
:1012A000C06940F008002168C8612068C06920F06A
:1012B00004002168C8612068C06929690843216861
:1012C000C86148E02946206800F010FB2068C0692A
:1012D00040F400602168C8612068C06920F4806023
:1012E0002168C8612068C069296940EA0120216835
:1012F000C86130E02946206800F032FB2068406D6C
:1013000040F00800216848652068406D20F0040026
:10131000216848652068406D29690843216848654F
:1013200019E017E02946206800F052FB2068406D64
:1013300040F40060216848652068406D20F48060BA
:10134000216848652068406D296940EA01202168CC
:10135000486500E000BF00BF012084F83D0000BFE9
:10136000002084F83C0000BF00BF4FE710B50446E2
:101370000CB9012010BD94F83D0028B9002084F874
:101380003C00204600F00CF8022084F83D00211DAE
:10139000206800F015F9012084F83D000020E9E7FD
:1013A0007047000070B504460E46012231462068A1
:1013B00000F06CF91749206888420FD01649206860
:1013C00088420BD015492068884207D0144920680C
:1013D000884203D013492068884201D1012000E0EF
:1013E000002028B12068406C40F400402168486427
:1013F000206880680C4900EA0105062D08D0B5F583
:10140000803F05D02068006840F001002168086036
:10141000002070BD002C014000340140004001401C
:1014200000440140004801400700010000BFFEE702
:1014300000BFFEE770477047F8B504460026234812
:10144000806D00F0805018B1FFF7E6F8054616E011
:1014500000BF1E48806D40F080501C4988650846DA
:10146000806D00F08050009000BF00BFFFF7D4F8FF
:1014700005461648806D20F0805014498865B5F502
:10148000007F07D1802C10D9A02C01D902260CE0B6
:1014900001260AE0802C01D9032606E0802C01D128
:1014A000022602E0702C00D101260948006820F0D5
:1014B00007003043064908600846006800F007004E
:1014C000B04201D00120F8BD0020FCE7001002402E
:1014D00000200240704710B5FEF7BAFF10BD0000B3
:1014E00010B596B01020059001200B9000200C90B4
:1014F00060200D9000200F9005A8FFF7CFF918B1DC
:101500006D2117A000F0C5FA0F2000900020019077
:1015100002900390049000216846FFF785F818B107
:101520007B210FA000F0B5FA4FF40070FFF72EF802
:1015300018B182210AA000F0ACFAFFF733F94FF49A
:101540007A71B0FBF1F42046FFF73AFD0420FFF773
:1015500023FD00221146501EFEF7C3FF16B010BD3A
:101560002E2E5C5372635C6D61696E2E6300000009
:101570001048006840F470000E4908600E4800688A
:1015800040F001000C4908600020886008460068AF
:101590000A490840084908608814C860084600687D
:1015A00020F48020086000208861C8030149803948
:1015B0000860704788ED00E000100240FFFFF6EA87
:1015C00010B50268294B98420ED0B0F1804F0BD075
:1015D000274B984208D0274B984205D0264B98427B
:1015E00002D0264B984203D122F070024B681A4376
:1015F0001E4B984217D0B0F1804F14D01C4B98422C
:1016000011D01C4B98420ED01B4B98420BD01B4B59
:10161000984208D01A4B984205D01A4B984202D0F3
:10162000194B984203D122F44072CB681A4322F03E
:1016300080034C6943EA040202608B68C3620B6852
:1016400083620A4B98420BD00C4B984208D00C4B4B
:10165000984205D00B4B984202D00B4B984201D1D7
:101660000B6903630123436110BD0000002C01409E
:101670000004004000080040000C0040003401401D
:1016800000400140004401400048014030B501F0F5
:101690001F05012404FA05F3046A9C430462046AEA
:1016A00001F01F0502FA05F52C43046230BD30B588
:1016B0000C46816821F47F4142EA032525432943F2
:1016C000816030BD0A46816821F0700142F0070355
:1016D000194381607047000030B5056A25F00105A7
:1016E0000562026A43688469204D2C4024F003049B
:1016F0000D682C4322F002028D682A431C4DA8423B
:1017000000D10FE01B4DA84200D10BE01A4DA842BA
:1017100000D107E0194DA84200D103E0184DA842BE
:1017200006D100BF22F00802CD682A4322F004024D
:101730000F4DA8420BD00F4DA84208D00E4DA84225
:1017400005D00E4DA84202D00D4DA84207D123F47A
:10175000807323F400734D692B438D692B434360E1
:1017600084614D684563026230BD00008FFFFEFF5B
:10177000002C014000340140004001400044014081
:101780000048014030B5056A25F010050562026A7F
:1017900043688469224D2C4024F440740D6844EA67
:1017A000052422F020028D6842EA05121D4DA84250
:1017B00000D10FE01C4DA84200D10BE01B4DA84208
:1017C00000D100BF1A4DA84200D100BF194DA84258
:1017D00007D106E022F08002CD6842EA051222F02D
:1017E0004002104DA8420BD00F4DA84208D00F4D1B
:1017F000A84205D00E4DA84202D00E4DA84209D1F4
:1018000023F4806323F400634D6943EA85038D6903
:1018100043EA8503436084614D688563026230BD9D
:10182000FF8FFFFE002C01400034014000400140CA
:10183000004401400048014030B5056A25F4807538
:101840000562026A4368C469224D2C4024F00304F7
:101850000D682C4322F400728D6842EA05221E4D69
:10186000A84200D10FE01D4DA84200D10BE01C4D55
:10187000A84200D100BF1B4DA84200D100BF1A4DA5
:10188000A84207D106E022F40062CD6842EA0522B0
:1018900022F48062104DA8420BD0104DA84208D00F
:1018A0000F4DA84205D00F4DA84202D00E4DA842C0
:1018B00009D123F4805323F400534D6943EA0513FF
:1018C0008D6943EA05134360C4614D68C5630262D4
:1018D00030BD00008FFFFEFF002C014000340140AE
:1018E00000400140004401400048014030B5056A15
:1018F00025F480550562036A4468C269124D2A4086
:1019000022F440720D6842EA052223F400538D68E8
:1019100043EA05330D4DA8420BD00D4DA84208D027
:101920000C4DA84205D00C4DA84202D00B4DA84248
:1019300004D124F480444D6944EA85144460C261B2
:101940004D680564036230BDFF8FFFFE002C01402F
:101950000034014000400140004401400048014083
:1019600030B5056A25F480350562026A4368446D26
:10197000114D2C400D682C4322F400320D8942EAAF
:1019800005420E4DA8420BD00D4DA84208D00D4D7A
:10199000A84205D00C4DA84202D00C4DA84204D15B
:1019A00023F480334D6943EA0523436044654D6861
:1019B0008565026230BD00008FFFFEFF002C0140F4
:1019C0000034014000400140004401400048014013
:1019D00030B5056A25F480150562026A4368446DD6
:1019E000114D2C400D6844EA052422F400120D89A3
:1019F00042EA05520D4DA8420BD00D4DA84208D029
:101A00000C4DA84205D00C4DA84202D00B4DA84267
:101A100004D123F480234D6943EA85234360446560
:101A20004D68C565026230BDFF8FFFFE002C01408E
:101A300000340140004001400044014000480140A2
:101A400030B50B461446026A056A25F001050562A9
:101A5000816921F0F00141EA041122F00A021A43DF
:101A60008161026230BD30B50B461446056A25F02F
:101A7000100505628169026A21F4704141EA04316E
:101A800022F0A00242EA03128161026230BD00BF6F
:101A9000FEE700BFFEE700000FB4054B10B503A939
:101AA000044A029800F034F810BC5DF814FB000002
:101AB000491D00080400002002480068C0F302200D
:101AC000704700000CED00E010B5002804DB0A07A9
:101AD000130E054A135406E00A07140E034A00F0D9
:101AE0000F031B1FD45410BD00E400E018ED00E00C
:101AF00002E008C8121F08C1002AFAD170477047D7
:101B0000002001E001C1121F002AFBD17047000034
:101B10002DE9FF4F8BB09A460F460546002606E09A
:101B200025280BD052460D9990476D1C761C2878BD
:101B30000028F5D10FB0304600F0C6B80024A0460A
:101B40000122604900E0044315F8013F203B02FAFE
:101B500003F00842F7D128782E2817D115F8010F85
:101B600044F004042A280ED06FF02F022878A0F148
:101B7000300109290AD808EB880102EB410100EB8A
:101B800001086D1CF2E757F8048B6D1C2878692852
:101B90003ED006DC0028CDD063280BD0642804D1C9
:101BA00036E0732810D075284BD052460D999047D7
:101BB000761C85E017F8040B8DF8000000208DF8E6
:101BC0000100E946012003E057F8049B4FF0FF3085
:101BD00061074FF0000401D40AE0641C44450DDAAB
:101BE0008442FADB19F804100029F6D106E0641CDF
:101BF0008442FCDB19F804100029F8D1264404E0E3
:101C000019F8010B52460D999047641EF8D257E01F
:101C100001CF4FF00A0B002802DA40422D2102E0EA
:101C2000210504D52B218DF82410012103E0E107C3
:101C300005D02021F7E70DF1200908910CE00021E3
:101C4000F9E701CF4FF00A0BF9E75946FEF7B8FA6A
:101C500001F1300209F8012D0028F6D1ADEB0900A1
:101C600000F1200B600701D44FF00108D84502DDD8
:101C7000A8EB0B0000E000208046002406E009A845
:101C80005246005D0D999047641C761C089884426A
:101C9000F5DB04E0302052460D999047761CB8F1F0
:101CA0000001A8F10108F5DC05E019F8010B524626
:101CB0000D999047761CBBF10001ABF1010BF4DCF0
:101CC0006D1C34E70928010030BCBDE8C08F00005E
:101CD00004460D461646304600F020F807463B46BF
:101CE0002A46214602A0FFF7D7FE00BFFEE700000C
:101CF0004552524F5220696E2066696C65202573EB
:101D0000206F6E206C696E6520256420616E6420F2
:101D1000726561736F6E2025730D0A000246002103
:101D200001E0481CC1B2074810F83100904204D0CD
:101D3000044810F83100FF28F3D1024800EBC1003D
:101D4000406870470C00002010B5024610460B4B4F
:101D50001B6803F001037BB1084B803B1B6803F059
:101D600001034BB100E000BF4FF060431B68002B44
:101D7000F9D04FF06044207000BF10BD800E00E02D
:101D8000FEF772FBFFF7ACFB00F034F8044624B119
:101D900022463F2112A0FFF79BFF00BF4FF4617066
:101DA00000F0B6F8044624B1224647210CA0FFF704
:101DB0008FFF4FF4FA60FEF72FFA002000F0A8F82A
:101DC0004FF4FA60FEF728FA094800F0A1F84FF442
:101DD000FA60FEF721FA4FF47A70FEF71DFADDE79C
:101DE0002E2E5C5372635C6D61696E2E6300000081
:101DF0007CFCFFFF00B595B000BF3E48C06C40F0D2
:101E000001003C49C8640846C06C00F00100019024
:101E100000BF00BF00BF0846806D40F0010088652C
:101E20000846806D00F00100019000BF00BF8804EB
:101E300031490860314800683149B0FBF1F0401C7D
:101E40002D49486000212C4881602E48B0F90010CF
:101E50002948C160002101618161FFF72BF910B1B0
:101E6000012015B000BD4FF48050119011A92248F7
:101E7000FFF73CF908B10120F3E71F48FFF776FAB6
:101E800008B10120EDE700200E9010900EA91A482D
:101E9000FFF7B0F808B10120E3E7602007901A4986
:101EA000B1F90010194AB2F90020881800EBD0717E
:101EB00049100891002009900B90002207A90E48B4
:101EC000FFF79AF908B10120CBE720200290022009
:101ED00003900020049005900120069002A94FF085
:101EE0009040FEF7ADF900210348FFF75BFA0020B0
:101EF000B7E700000010024044000020000000206E
:101F000040420F0034000020320000202E0000204C
:101F100010B501460E48B0F90000081A0D4BB3F990
:101F200000300D4CB4F900401B1B58430B4BB3F968
:101F30000030074CB4F900401B1B90FBF3F0064B3C
:101F4000B3F90030C218064800684263002010BD93
:101F50002C000020320000202E0000203000002045
:101F60004400002000000000000000000102030403
:101F7000060708090000000001020304A086010012
:101F8000400D0300801A060000350C0040420F008F
:101F900080841E0000093D0000127A000024F40035
:101FA00000366E010048E801006CDC025365727671
:101FB0006F2063616E277420626520696E697469A1
:101FC000617465642E0000004572726F72206E6F3E
:101FD0007420696D706C656D656E7465642E0000AB
:101FE0004E6F206572726F722E000000536572761C
:101FF0006F20636F6D6D616E642070726F626C65CF
:102000006D732E0024200008000000204400000012
:10201000F01A000868200008440000204404000072
:10202000001B000800093D00000000000000000047
:1020300000000000E01F000801000000AC1F0008C5
:1020400002000000EC1F0008FF000000C81F00088D
:102050007CFCE8038403D007204E00000000000051
:08206000100000000100000067
:040000050800018965
:00000001FF
