:020000040800F2
:10000000180400209D0100080D0D0008050D0008D2
:10001000090D0008E5010008650E00080000000059
:10002000000000000000000000000000AD0D00080E
:10003000E9010008000000000F0D0008AF0D0008E6
:10004000B7010008B7010008B7010008B7010008B0
:10005000B7010008B7010008B7010008B7010008A0
:10006000B7010008B7010008B7010008B701000890
:10007000B7010008B7010008B7010008B701000880
:10008000B7010008B7010008B7010008B701000870
:10009000B7010008B7010008B7010008B701000860
:1000A000B7010008B7010008B7010008B701000850
:1000B000B7010008B7010008B7010008B701000840
:1000C000B7010008B7010008B7010008B701000830
:1000D000B7010008B7010008B7010008B701000820
:1000E000B7010008B7010008B7010008B701000810
:1000F000B7010008B7010008B7010008B701000800
:10010000B7010008B7010008B7010008B7010008EF
:10011000B7010008B7010008B7010008B7010008DF
:10012000B7010008B7010008B7010008B7010008CF
:10013000B7010008B7010008B7010008B7010008BF
:10014000B7010008B7010008B7010008B7010008AF
:10015000B7010008B7010008B7010008B70100089F
:10016000B7010008B7010008B7010008B70100088F
:10017000B7010008B7010008B7010008000000003F
:10018000B7010008B7010008DFF80CD000F018F83C
:1001900000480047290F000818040020064880473F
:1001A00006480047FEE7FEE7FEE7FEE7FEE7FEE75C
:1001B000FEE7FEE7FEE7FEE7150E000889010008EE
:1001C000064C074D06E0E06840F0010394E80700A4
:1001D00098471034AC42F6D3FFF7DAFFA00F0008BF
:1001E000C00F000800BFFEE77047000070B504466E
:1001F00000F010F806462546681C10B10448006857
:10020000054400BF00F006F8801BA842FAD370BD79
:100210001400002001480068704700000C00002016
:1002200003480068034909680844014908607047A9
:100230000C0000201400002010B50024032000F062
:1002400079F80F2000F008F808B1012401E000F06F
:100250002FF8204610BD000070B504460025114857
:100260000068D8B10F4800684FF47A71B1FBF0F024
:100270000D490968B1FBF0F6304600F029FD58B988
:10028000102C07D200222146501E00F012F8074819
:10029000046004E0012502E0012500E00125284674
:1002A00070BD00001400002000000020100000209D
:1002B00070472DE9F05F80460D461646002700F096
:1002C000DBFD074639462A46334601F00700C0F1F8
:1002D000070ABAF1040F02D94FF0040A01E0C0F195
:1002E000070AD14600F1040ABAF1070F02D24FF013
:1002F000000A01E0A0F1030AD4464FF0010A0AFA0D
:1003000009FAAAF1010A0AEA020A0AFA0CFA4FF0FB
:10031000010B0BFA0CFBABF1010B0BEA030B4AEAE6
:100320000B042146404600F0AFFD00F000B830BCA1
:10033000BDE8C09F00BF00F00702064B19684FF6EA
:10034000FF031940044B0B4343EA0221014B1960A0
:1003500000BF70470CED00E00000FA05024800689D
:1003600000F4C06070470000007000402DE9F041CB
:1003700004460D4614B90120BDE8F08155480068D7
:1003800000F00700A8420ED25248006820F0070093
:100390002843504908600846006800F00700A8425A
:1003A00001D00120E8E7207800F00100002840D0CB
:1003B0006068032806D14848006800F00070D8B98A
:1003C0000120D9E76068022806D14348006800F49C
:1003D000003088B90120CFE7606830B93E48006836
:1003E00000F0020040B90120C6E73B48006800F475
:1003F000806008B90120BFE73748806820F003001B
:100400006168084334498860FFF704FF064608E046
:10041000FFF700FF801B41F28831884201D9032099
:10042000AAE72D48806800F00C006168B0EB810FEE
:10043000EED1207800F00200022807D1264880681B
:1004400020F0F000A1680843234988602148006833
:1004500000F00700A8420ED91E48006820F00700EF
:1004600028431C4908600846006800F00700A842BD
:1004700001D0012080E7207800F00400042807D193
:100480001548806820F4E060E168084312498860FC
:10049000207800F00800082808D10F48806820F470
:1004A0006050216940EAC1000B49886000F01CF8E7
:1004B00009498968C1F30311084A515C01F01F0121
:1004C000C8400749086007480068FFF7C5FE0746AF
:1004D000384651E70020024000100240580F000843
:1004E0000000002010000020F0B500230020DFF8FD
:1004F000D4C0DCF808C00CF00C01DFF8C8C0DCF890
:100500000CC00CF0030719B10C291ED1012F1CD10E
:10051000DFF8B0C0DCF800C00CF0080CBCF1000F34
:1005200006D1DFF8A0C0DCF894C0CCF3032305E0CB
:10053000DFF890C0DCF800C0CCF30313DFF888C00C
:100540005CF8233041B9184606E0042901D11F4860
:1005500002E0082900D11E480C2932D1DFF864C01E
:10056000DCF80CC00CF00304012C09D0022C02D0E2
:10057000032C04D101E0154A04E0154A02E000BF53
:100580001A4600BF00BFDFF83CC0DCF80CC0CCF35B
:10059000021C0CF10106DFF82CC0DCF80CC0CCF317
:1005A000062C0CFB02FCBCFBF6F2DFF818C0DCF8F2
:1005B0000CC0CCF3416C0CF1010C4FEA4C05B2FBC2
:1005C000F5F0F0BD00100240700F00080024F400A8
:1005D00000127A002DE9F843044614B90120BDE861
:1005E000F883F948806800F00C06F748C06800F00E
:1005F0000307207800F01000102877D11EB10C2ED0
:1006000076D1012F74D1F048006800F0020018B1D3
:10061000A06908B90120E2E7EB48216A006800F010
:10062000080020B1E848006800F0F00005E0E64866
:100630009430006800F47060000981421FD9206A7C
:1006400000F066FB08B10120C9E700BFDE48006882
:1006500040F00800DC4908600846006820F0F0001F
:10066000216A0843D849086000BF0846406820F462
:100670007F40E16940EA0120D34948601FE000BFA4
:10068000D148006840F00800CF490860084600687B
:1006900020F0F000216A0843CB49086000BF0846FB
:1006A000406820F47F40E16940EA0120C649486083
:1006B0002EB9206A00F02CFB08B101208FE7FFF76C
:1006C00013FFC1498968C1F30311C04A515C01F0AD
:1006D0001F01C840BE490860BE480068FFF7BCFD66
:1006E0008046B8F1000F4ED0404678E74BE0FFE778
:1006F000A06980B3B448006840F00100B2490860C6
:10070000FFF788FD054606E0FFF784FD401B022841
:1007100001D9032063E7AC48006800F0020000281C
:10072000F2D000BFA848006840F00800A649086061
:100730000846006820F0F000216A0843A2490860DA
:1007400000BF0846406820F47F40E16940EA01208C
:100750009D49486017E0FFE79B48006820F00100D2
:1007600099490860FFF756FD054606E0FFF752FD80
:10077000401B022801D9032031E79348006800F0AC
:1007800002000028F2D1207800F0010000285CD09F
:10079000082E03D00C2E0AD1032F08D18A480068F6
:1007A00000F4003088B3606878BB012017E700BF11
:1007B0006068B0F5803F06D18348006840F480301F
:1007C000814908601AE06068B0F5A02F0BD17E481F
:1007D000006840F480207C4908600846006840F4C6
:1007E000803008600AE07848006820F4803076495C
:1007F00008600846006820F48020086000BF606838
:1008000090B1FFF707FD054607E01EE0FFF702FD88
:10081000401B642801D90320E1E66B48006800F41E
:1008200000300028F2D010E0FFF7F4FC054606E0A7
:10083000FFF7F0FC401B642801D90320CFE6624893
:10084000006800F400300028F2D1207800F00200A7
:10085000022852D1042E03D00C2E14D1022F12D113
:100860005948006800F4806018B1E06808B90120B8
:10087000B5E65548406820F0F850217C40EA016018
:100880005149486039E0E06800B34F48006840F4DF
:1008900080704D490860FFF7BDFC054606E0FFF794
:1008A000B9FC401B022801D9032098E6464800689D
:1008B00000F480600028F2D04348406820F0F850EF
:1008C000217C40EA01604049486016E03E480068EB
:1008D00020F480703C490860FFF79CFC054606E068
:1008E000FFF798FC401B022801D9032077E6364821
:1008F000006800F480600028F2D1207800F0080041
:10090000082836D16069D0B12F489430006840F093
:1009100001002D49C1F89400FFF77CFC054606E074
:10092000FFF778FC401B022801D9032057E6264830
:100930009430006800F002000028F1D019E022484D
:100940009430006820F001001F49C1F89400FFF7BF
:1009500061FC054606E0FFF75DFC401B022801D95B
:1009600003203CE618489430006800F0020000289C
:10097000F1D1207800F00400042872D14FF0000972
:100980001148806D00F0805078B900BF0E48806D2E
:1009900040F080500C4988650846806D00F080501A
:1009A000009000BF00BF4FF001090B48006800F441
:1009B000807000BB0848006840F4807006490860F9
:1009C000FFF728FC054610E000100240580F000811
:1009D000000000201000002000700040FFF71AFC0B
:1009E000401B022801D90320F9E5B548006800F44E
:1009F00080700028F2D000BFA068012808D1B1485B
:100A0000006840F00100AF499039C1F8900021E042
:100A1000A06805280FD1AB48006840F00400A94940
:100A20009039C1F890000846D0F8900040F00100DD
:100A3000C1F890000EE0A348006820F00100A14931
:100A40009039C1F890000846D0F8900020F00400DA
:100A5000C1F8900000BFA068A0B1FFF7DBFB05461E
:100A600009E02EE0FFF7D6FB401B41F288318842B7
:100A700001D90320B3E59348006800F00200002884
:100A8000F0D012E0FFF7C6FB054608E0FFF7C2FB17
:100A9000401B41F28831884201D903209FE58948F3
:100AA000006800F002000028F0D1B9F1010F07D171
:100AB00084489038806D20F0805082499039886554
:100AC00000BFA06A00287DD0A06A02287BD17D48A3
:100AD0009038C76807F00301E06A814228D107F027
:100AE0007001206B401EB1EB001F21D107F4FE41C5
:100AF000606BB1EB002F1BD107F40031A06B07280E
:100B000001D0012000E00020814211D107F4C00192
:100B1000A08F0122C2EB5000B1EB405F08D107F07B
:100B2000C0614020005DC2EB5000B1EB406F6CD063
:100B30000C2E68D063489038006800F0806028B9B7
:100B400060489038006800F0805008B1012046E508
:100B50005C489038006820F080705A4990390860ED
:100B6000FFF758FB054606E0FFF754FB401B022841
:100B700001D9032033E553489038006800F0007035
:100B80000028F1D1D4E90B10401E41EA0011606B3E
:100B900041EA0021A08F0122C2EB500041EA4051FE
:100BA0004020005DC2EB500041EA4061A06B0009AB
:100BB00041EA404043499039C968434A11400843DB
:100BC000404901E066E046E09039C86008460068A8
:100BD00040F0807008600846C06840F08070C860CF
:100BE000FFF718FB054606E0FFF714FB401B022841
:100BF00001D90320F3E433489038006800F0007016
:100C00000028F1D05AE00120E9E42E48903800682D
:100C100000F00070F0BB2B489038006840F0807006
:100C20002849903908600846C06840F08070C86064
:100C3000FFF7F0FA054606E0FFF7ECFA401B022842
:100C400001D90320CBE41F489038006800F0007001
:100C50000028F1D032E00C2E2ED01A4890380068CF
:100C600020F080701749903908600846006800F04D
:100C7000205020B90846C06820F00300C860114821
:100C80009038C068114908400E499039C860FFF794
:100C9000C1FA00E012E0054606E0FFF7BBFA401B90
:100CA000022801D903209AE406489038006800F031
:100CB00000700028F1D101E0012090E400208EE4D2
:100CC00000700040901002408C809DF9FFFFEEFE06
:100CD00070B504462546681EB0F1807F01D301201F
:100CE0000FE0681E4FF0E02148610F214FF0FF3008
:100CF00000F0CAF800204FF0E02188610720086169
:100D0000002070BD00BFFEE700BFFEE770477047E0
:100D1000F8B5044600262348806D00F0805018B1D5
:100D2000FFF71CFB054616E000BF1E48806D40F033
:100D300080501C4988650846806D00F08050009006
:100D400000BF00BFFFF70AFB05461648806D20F084
:100D5000805014498865B5F5007F07D1802C10D9E3
:100D6000A02C01D902260CE001260AE0802C01D932
:100D7000032606E0802C01D1022602E0702C00D16F
:100D800001260948006820F0070030430649086042
:100D90000846006800F00700B04201D00120F8BD0D
:100DA0000020FCE70010024000200240704710B510
:100DB000FFF736FA10BD00B597B010200190012062
:100DC0000790602009900020089002200B900121DC
:100DD0000C910D9128210E910221119107210F9163
:100DE0000421109101A8FFF7F5FB08B100BFFEE751
:100DF0000F2012900320139000201490159016904D
:100E0000042112A8FFF7B2FA08B100BFFEE717B03D
:100E100000BD00001048006840F470000E490860F2
:100E20000E48006840F001000C490860002088600E
:100E3000084600680A490840084908608814C860E4
:100E40000846006820F48020086000208861C803FC
:100E5000014980390860704788ED00E000100240C9
:100E6000FFFFF6EA00BFFEE7014A024900F02FB893
:100E7000F10E00080400002002480068C0F30220C0
:100E8000704700000CED00E010B5002804DB0A07F5
:100E9000130E054A135406E00A07140E034A00F025
:100EA0000F031B1FD45410BD00E400E018ED00E058
:100EB00002E008C8121F08C1002AFAD17047704723
:100EC000002001E001C1121F002AFBD170472DE96B
:100ED000F04116460F460446002503E03946B04768
:100EE000641C6D1C20780028F8D12846BDE8F081EC
:100EF00010B5024610460B4B1B6803F001037BB193
:100F0000084B803B1B6803F001034BB100E000BFBE
:100F10004FF060431B68002BF9D04FF06044207005
:100F200000BF10BD800E00E0FFF786F9FFF743FF1A
:100F300006E004A0FFF798FF4FF4FA60FFF756F9B8
:100F4000F7E7000048656C6C6F20776F726C642067
:100F5000212121210A000000000000000000000003
:100F6000010203040607080900000000010203044F
:100F7000A0860100400D0300801A060000350C0019
:100F800040420F0080841E0000093D0000127A00DC
:100F90000024F40000366E010048E801006CDC0219
:100FA000C00F00080000002018000000B00E00086C
:100FB000D80F00081800002000040000C00E000830
:100FC00000093D00000000000000000000000000DB
:080FD000100000000100000008
:040000050800018965
:00000001FF
